{"_format":"hh-sol-artifact-1","contractName":"LoneSomeSharkMonitor","sourceName":"contracts/LoneSomeSharkMonitor.sol","abi":[{"inputs":[{"internalType":"contract Subscribers","name":"_subscribers","type":"address"},{"internalType":"contract KeeperRegistryBaseInterface","name":"_registry","type":"address"},{"internalType":"address","name":"_link","type":"address"}],"stateMutability":"nonpayable","type":"constructor"},{"anonymous":false,"inputs":[{"indexed":false,"internalType":"address","name":"subscriber","type":"address"},{"indexed":false,"internalType":"address[]","name":"assets","type":"address[]"},{"indexed":false,"internalType":"uint256[]","name":"amounts","type":"uint256[]"}],"name":"CatchFlashEvent","type":"event"},{"anonymous":false,"inputs":[{"indexed":false,"internalType":"bool","name":"_paused","type":"bool"},{"indexed":false,"internalType":"bool","name":"_test_triggered","type":"bool"}],"name":"MonitoringTriggered","type":"event"},{"anonymous":false,"inputs":[{"indexed":false,"internalType":"address","name":"subscriber","type":"address"},{"indexed":false,"internalType":"address[]","name":"assets","type":"address[]"},{"indexed":false,"internalType":"uint256[]","name":"amounts","type":"uint256[]"}],"name":"SuccessFlashEvent","type":"event"},{"inputs":[],"name":"addFunds","outputs":[],"stateMutability":"payable","type":"function"},{"inputs":[{"internalType":"bytes","name":"","type":"bytes"}],"name":"checkUpkeep","outputs":[{"internalType":"bool","name":"upkeepNeeded","type":"bool"},{"internalType":"bytes","name":"","type":"bytes"}],"stateMutability":"nonpayable","type":"function"},{"inputs":[{"internalType":"bytes","name":"","type":"bytes"}],"name":"performUpkeep","outputs":[],"stateMutability":"nonpayable","type":"function"},{"inputs":[{"internalType":"bool","name":"_pause","type":"bool"}],"name":"setPause","outputs":[],"stateMutability":"nonpayable","type":"function"},{"inputs":[{"internalType":"bool","name":"_trigger","type":"bool"}],"name":"setTrigger","outputs":[],"stateMutability":"nonpayable","type":"function"},{"inputs":[{"internalType":"uint96","name":"_new_cost","type":"uint96"}],"name":"updateLinkCost","outputs":[],"stateMutability":"nonpayable","type":"function"},{"inputs":[{"internalType":"uint256","name":"_id","type":"uint256"}],"name":"updateRegistryId","outputs":[],"stateMutability":"nonpayable","type":"function"},{"stateMutability":"payable","type":"receive"}],"bytecode":"0x60e0604052600180546001600160601b0319166706f05b59d3b2000017905534801561002a57600080fd5b50604051610eaf380380610eaf83398101604081905261004991610080565b600080546001600160a01b031916331790556001600160601b0319606091821b811660c05292811b83166080521b1660a0526100e4565b600080600060608486031215610094578283fd5b835161009f816100cc565b60208501519093506100b0816100cc565b60408501519092506100c1816100cc565b809150509250925092565b6001600160a01b03811681146100e157600080fd5b50565b60805160601c60a05160601c60c05160601c610d8c6101236000395080610650525080610165528061023852806102fb528061052c5250610d8c6000f3fe6080604052600436106100745760003560e01c8063bedb86fb1161004e578063bedb86fb146100e1578063ddf2846214610101578063e3beb39314610121578063ec86d60c146101415761007b565b80634585e33b146100805780636e04ff0d146100a2578063a26759cb146100d95761007b565b3661007b57005b600080fd5b34801561008c57600080fd5b506100a061009b3660046109b2565b610161565b005b3480156100ae57600080fd5b506100c26100bd3660046109b2565b6104d9565b6040516100d0929190610be8565b60405180910390f35b6100a061061a565b3480156100ed57600080fd5b506100a06100fc366004610973565b6106c2565b34801561010d57600080fd5b506100a061011c366004610adb565b61072e565b34801561012d57600080fd5b506100a061013c366004610973565b610784565b34801561014d57600080fd5b506100a061015c366004610ac3565b6107bd565b60607f00000000000000000000000000000000000000000000000000000000000000006001600160a01b031663815a86bc6040518163ffffffff1660e01b815260040160006040518083038186803b1580156101bc57600080fd5b505afa1580156101d0573d6000803e3d6000fd5b505050506040513d6000823e601f3d908101601f191682016040526101f8919081019061087f565b905060005b81518110156104d35760006001600160a01b031682828151811061021d57fe5b60200260200101516001600160a01b0316146104cb576060807f00000000000000000000000000000000000000000000000000000000000000006001600160a01b031663a661cc5885858151811061027157fe5b60200260200101516040518263ffffffff1660e01b81526004016102959190610b20565b60006040518083038186803b1580156102ad57600080fd5b505afa1580156102c1573d6000803e3d6000fd5b505050506040513d6000823e601f3d908101601f191682016040526102e991908101906108ba565b915091508051825114156104c85760007f00000000000000000000000000000000000000000000000000000000000000006001600160a01b031663fbcbc0f186868151811061033457fe5b60200260200101516040518263ffffffff1660e01b81526004016103589190610b20565b60006040518083038186803b15801561037057600080fd5b505afa158015610384573d6000803e3d6000fd5b505050506040513d6000823e601f3d908101601f191682016040526103ac9190810190610a1f565b604001519050806001600160a01b031663b485b7ea8686815181106103cd57fe5b602002602001015185856040518463ffffffff1660e01b81526004016103f593929190610b34565b600060405180830381600087803b15801561040f57600080fd5b505af1925050508015610420575060015b610477577fa755814d325deee51598ee35a6fba2a451219ec5e08e658202f0f594c756ed9f85858151811061045157fe5b6020026020010151848460405161046a93929190610b34565b60405180910390a16104c6565b7f662affe9d17f8100a681ab765488fcbdaf870a2935706da03bad6a7c2f7148178585815181106104a457fe5b602002602001015184846040516104bd93929190610b34565b60405180910390a15b505b50505b6001016101fd565b50505050565b60008054606090600160a81b900460ff161561050357600054600160a81b900460ff1691506105be565b600054600160a01b900460ff161561052a57600054600160a01b900460ff161591506105be565b7f00000000000000000000000000000000000000000000000000000000000000006001600160a01b031663aa7a3e966040518163ffffffff1660e01b815260040160206040518083038186803b15801561058357600080fd5b505afa158015610597573d6000803e3d6000fd5b505050506040513d601f19601f820116820180604052508101906105bb9190610996565b91505b8115610613576000546040517fb8e714f450c470e564ed5d60864db213b63b48bee08bafddbc960d8a35adc2729161060a9160ff600160a01b8304811692600160a81b90041690610bd6565b60405180910390a15b9250929050565b6002546001546040517f948108f70000000000000000000000000000000000000000000000000000000081526001600160a01b037f0000000000000000000000000000000000000000000000000000000000000000169263948108f792610694926bffffffffffffffffffffffff90911690600401610cd9565b600060405180830381600087803b1580156106ae57600080fd5b505af11580156104d3573d6000803e3d6000fd5b6000546001600160a01b031633146106f55760405162461bcd60e51b81526004016106ec90610c45565b60405180910390fd5b60008054911515600160a01b027fffffffffffffffffffffff00ffffffffffffffffffffffffffffffffffffffff909216919091179055565b6000546001600160a01b031633146107585760405162461bcd60e51b81526004016106ec90610c7c565b600180546bffffffffffffffffffffffff19166bffffffffffffffffffffffff92909216919091179055565b60008054911515600160a81b027fffffffffffffffffffff00ffffffffffffffffffffffffffffffffffffffffff909216919091179055565b6000546001600160a01b031633146107e75760405162461bcd60e51b81526004016106ec90610c7c565b600255565b80516001600160a01b038116811461080357600080fd5b92915050565b600082601f830112610819578081fd5b815161082c61082782610d1c565b610cf5565b81815291506020808301908481018184028601820187101561084d57600080fd5b60005b848110156108745761086288836107ec565b84529282019290820190600101610850565b505050505092915050565b600060208284031215610890578081fd5b815167ffffffffffffffff8111156108a6578182fd5b6108b284828501610809565b949350505050565b600080604083850312156108cc578081fd5b825167ffffffffffffffff808211156108e3578283fd5b6108ef86838701610809565b9350602091508185015181811115610905578384fd5b85019050601f81018613610917578283fd5b805161092561082782610d1c565b81815283810190838501858402850186018a1015610941578687fd5b8694505b83851015610963578051835260019490940193918501918501610945565b5080955050505050509250929050565b600060208284031215610984578081fd5b813561098f81610d45565b9392505050565b6000602082840312156109a7578081fd5b815161098f81610d45565b600080602083850312156109c4578182fd5b823567ffffffffffffffff808211156109db578384fd5b818501915085601f8301126109ee578384fd5b8135818111156109fc578485fd5b866020828501011115610a0d578485fd5b60209290920196919550909350505050565b600060208284031215610a30578081fd5b815167ffffffffffffffff80821115610a47578283fd5b9083019060a08286031215610a5a578283fd5b610a6460a0610cf5565b825181526020830151610a7681610d45565b6020820152610a8886604085016107ec565b604082015260608301516060820152608083015182811115610aa8578485fd5b610ab487828601610809565b60808301525095945050505050565b600060208284031215610ad4578081fd5b5035919050565b600060208284031215610aec578081fd5b81356bffffffffffffffffffffffff8116811461098f578182fd5b6001600160a01b0316815260200190565b815260200190565b6001600160a01b0391909116815260200190565b6000606082016001600160a01b03861683526020606081850152818651610b5b8185610d3c565b91508288019350845b81811015610b8557610b77838651610b07565b948401949250600101610b64565b505084810360408601528092508551610b9e8183610d3c565b93508287019150845b81811015610bc857610bba858451610b18565b945091830191600101610ba7565b509298975050505050505050565b91151582521515602082015260400190565b6000831515825260206040818401528351806040850152825b81811015610c1d57858101830151858201606001528201610c01565b81811115610c2e5783606083870101525b50601f01601f191692909201606001949350505050565b60208082526010908201527f6e65656420746f2062652061646d696e00000000000000000000000000000000604082015260600190565b60208082526021908201527f726571756972652061646d696e20746f20757064617465206c696e6b20636f7360408201527f7400000000000000000000000000000000000000000000000000000000000000606082015260800190565b9182526bffffffffffffffffffffffff16602082015260400190565b60405181810167ffffffffffffffff81118282101715610d1457600080fd5b604052919050565b600067ffffffffffffffff821115610d32578081fd5b5060209081020190565b90815260200190565b8015158114610d5357600080fd5b5056fea2646970667358221220bf9cad818e5cd419367915676a003505d7c284cfda72cca7018c354d5325de0964736f6c634300060c0033","linkReferences":{},"deployedLinkReferences":{},"network":"kovan","address":"0x85f1CE1Bc3C016d1fE31A858bDd12f73B89aD2eD"}