{"_format":"hh-sol-artifact-1","contractName":"LoneSomeSharkMonitor","sourceName":"contracts/LoneSomeSharkMonitor.sol","abi":[{"inputs":[{"internalType":"contract Subscribers","name":"_subscribers","type":"address"},{"internalType":"contract KeeperRegistryBaseInterface","name":"_registry","type":"address"},{"internalType":"address","name":"_link","type":"address"}],"stateMutability":"nonpayable","type":"constructor"},{"anonymous":false,"inputs":[{"indexed":false,"internalType":"address","name":"subscriber","type":"address"},{"indexed":false,"internalType":"address[]","name":"assets","type":"address[]"},{"indexed":false,"internalType":"uint256[]","name":"amounts","type":"uint256[]"}],"name":"CatchFlashEvent","type":"event"},{"anonymous":false,"inputs":[{"indexed":false,"internalType":"bool","name":"_paused","type":"bool"},{"indexed":false,"internalType":"bool","name":"_test_triggered","type":"bool"}],"name":"MonitoringTriggered","type":"event"},{"anonymous":false,"inputs":[{"indexed":false,"internalType":"address","name":"subscriber","type":"address"},{"indexed":false,"internalType":"address[]","name":"assets","type":"address[]"},{"indexed":false,"internalType":"uint256[]","name":"amounts","type":"uint256[]"}],"name":"SuccessFlashEvent","type":"event"},{"inputs":[],"name":"addFunds","outputs":[],"stateMutability":"payable","type":"function"},{"inputs":[{"internalType":"bytes","name":"","type":"bytes"}],"name":"checkUpkeep","outputs":[{"internalType":"bool","name":"upkeepNeeded","type":"bool"},{"internalType":"bytes","name":"","type":"bytes"}],"stateMutability":"nonpayable","type":"function"},{"inputs":[{"internalType":"bytes","name":"","type":"bytes"}],"name":"performUpkeep","outputs":[],"stateMutability":"nonpayable","type":"function"},{"inputs":[{"internalType":"bool","name":"_pause","type":"bool"}],"name":"setPause","outputs":[],"stateMutability":"nonpayable","type":"function"},{"inputs":[{"internalType":"bool","name":"_trigger","type":"bool"}],"name":"setTrigger","outputs":[],"stateMutability":"nonpayable","type":"function"},{"inputs":[{"internalType":"uint96","name":"_new_cost","type":"uint96"}],"name":"updateLinkCost","outputs":[],"stateMutability":"nonpayable","type":"function"},{"inputs":[{"internalType":"uint256","name":"_id","type":"uint256"}],"name":"updateRegistryId","outputs":[],"stateMutability":"nonpayable","type":"function"},{"stateMutability":"payable","type":"receive"}],"bytecode":"0x60e0604052600180546001600160601b0319166706f05b59d3b2000017905534801561002a57600080fd5b50604051610e5f380380610e5f83398101604081905261004991610080565b600080546001600160a01b031916331790556001600160601b0319606091821b811660c05292811b83166080521b1660a0526100e4565b600080600060608486031215610094578283fd5b835161009f816100cc565b60208501519093506100b0816100cc565b60408501519092506100c1816100cc565b809150509250925092565b6001600160a01b03811681146100e157600080fd5b50565b60805160601c60a05160601c60c05160601c610d3c610123600039508061064c525080610165528061023852806102fb52806105285250610d3c6000f3fe6080604052600436106100745760003560e01c8063bedb86fb1161004e578063bedb86fb146100e1578063ddf2846214610101578063e3beb39314610121578063ec86d60c146101415761007b565b80634585e33b146100805780636e04ff0d146100a2578063a26759cb146100d95761007b565b3661007b57005b600080fd5b34801561008c57600080fd5b506100a061009b3660046109ae565b610161565b005b3480156100ae57600080fd5b506100c26100bd3660046109ae565b6104d5565b6040516100d0929190610b98565b60405180910390f35b6100a0610616565b3480156100ed57600080fd5b506100a06100fc36600461096f565b6106be565b34801561010d57600080fd5b506100a061011c366004610a8b565b61072a565b34801561012d57600080fd5b506100a061013c36600461096f565b610780565b34801561014d57600080fd5b506100a061015c366004610a73565b6107b9565b60607f00000000000000000000000000000000000000000000000000000000000000006001600160a01b031663815a86bc6040518163ffffffff1660e01b815260040160006040518083038186803b1580156101bc57600080fd5b505afa1580156101d0573d6000803e3d6000fd5b505050506040513d6000823e601f3d908101601f191682016040526101f8919081019061087b565b905060005b81518110156104cf5760006001600160a01b031682828151811061021d57fe5b60200260200101516001600160a01b0316146104c7576060807f00000000000000000000000000000000000000000000000000000000000000006001600160a01b031663a661cc5885858151811061027157fe5b60200260200101516040518263ffffffff1660e01b81526004016102959190610ad0565b60006040518083038186803b1580156102ad57600080fd5b505afa1580156102c1573d6000803e3d6000fd5b505050506040513d6000823e601f3d908101601f191682016040526102e991908101906108b6565b915091508051825114156104c45760007f00000000000000000000000000000000000000000000000000000000000000006001600160a01b031663fbcbc0f186868151811061033457fe5b60200260200101516040518263ffffffff1660e01b81526004016103589190610ad0565b60806040518083038186803b15801561037057600080fd5b505afa158015610384573d6000803e3d6000fd5b505050506040513d601f19601f820116820180604052508101906103a89190610a1b565b604001519050806001600160a01b031663b485b7ea8686815181106103c957fe5b602002602001015185856040518463ffffffff1660e01b81526004016103f193929190610ae4565b600060405180830381600087803b15801561040b57600080fd5b505af192505050801561041c575060015b610473577fa755814d325deee51598ee35a6fba2a451219ec5e08e658202f0f594c756ed9f85858151811061044d57fe5b6020026020010151848460405161046693929190610ae4565b60405180910390a16104c2565b7f662affe9d17f8100a681ab765488fcbdaf870a2935706da03bad6a7c2f7148178585815181106104a057fe5b602002602001015184846040516104b993929190610ae4565b60405180910390a15b505b50505b6001016101fd565b50505050565b60008054606090600160a81b900460ff16156104ff57600054600160a81b900460ff1691506105ba565b600054600160a01b900460ff161561052657600054600160a01b900460ff161591506105ba565b7f00000000000000000000000000000000000000000000000000000000000000006001600160a01b031663aa7a3e966040518163ffffffff1660e01b815260040160206040518083038186803b15801561057f57600080fd5b505afa158015610593573d6000803e3d6000fd5b505050506040513d601f19601f820116820180604052508101906105b79190610992565b91505b811561060f576000546040517fb8e714f450c470e564ed5d60864db213b63b48bee08bafddbc960d8a35adc272916106069160ff600160a01b8304811692600160a81b90041690610b86565b60405180910390a15b9250929050565b6002546001546040517f948108f70000000000000000000000000000000000000000000000000000000081526001600160a01b037f0000000000000000000000000000000000000000000000000000000000000000169263948108f792610690926bffffffffffffffffffffffff90911690600401610c89565b600060405180830381600087803b1580156106aa57600080fd5b505af11580156104cf573d6000803e3d6000fd5b6000546001600160a01b031633146106f15760405162461bcd60e51b81526004016106e890610bf5565b60405180910390fd5b60008054911515600160a01b027fffffffffffffffffffffff00ffffffffffffffffffffffffffffffffffffffff909216919091179055565b6000546001600160a01b031633146107545760405162461bcd60e51b81526004016106e890610c2c565b600180546bffffffffffffffffffffffff19166bffffffffffffffffffffffff92909216919091179055565b60008054911515600160a81b027fffffffffffffffffffff00ffffffffffffffffffffffffffffffffffffffffff909216919091179055565b6000546001600160a01b031633146107e35760405162461bcd60e51b81526004016106e890610c2c565b600255565b80516001600160a01b03811681146107ff57600080fd5b92915050565b600082601f830112610815578081fd5b815161082861082382610ccc565b610ca5565b81815291506020808301908481018184028601820187101561084957600080fd5b60005b848110156108705761085e88836107e8565b8452928201929082019060010161084c565b505050505092915050565b60006020828403121561088c578081fd5b815167ffffffffffffffff8111156108a2578182fd5b6108ae84828501610805565b949350505050565b600080604083850312156108c8578081fd5b825167ffffffffffffffff808211156108df578283fd5b6108eb86838701610805565b9350602091508185015181811115610901578384fd5b85019050601f81018613610913578283fd5b805161092161082382610ccc565b81815283810190838501858402850186018a101561093d578687fd5b8694505b8385101561095f578051835260019490940193918501918501610941565b5080955050505050509250929050565b600060208284031215610980578081fd5b813561098b81610cf5565b9392505050565b6000602082840312156109a3578081fd5b815161098b81610cf5565b600080602083850312156109c0578182fd5b823567ffffffffffffffff808211156109d7578384fd5b818501915085601f8301126109ea578384fd5b8135818111156109f8578485fd5b866020828501011115610a09578485fd5b60209290920196919550909350505050565b600060808284031215610a2c578081fd5b610a366080610ca5565b825181526020830151610a4881610cf5565b6020820152610a5a84604085016107e8565b6040820152606083015160608201528091505092915050565b600060208284031215610a84578081fd5b5035919050565b600060208284031215610a9c578081fd5b81356bffffffffffffffffffffffff8116811461098b578182fd5b6001600160a01b0316815260200190565b815260200190565b6001600160a01b0391909116815260200190565b6000606082016001600160a01b03861683526020606081850152818651610b0b8185610cec565b91508288019350845b81811015610b3557610b27838651610ab7565b948401949250600101610b14565b505084810360408601528092508551610b4e8183610cec565b93508287019150845b81811015610b7857610b6a858451610ac8565b945091830191600101610b57565b509298975050505050505050565b91151582521515602082015260400190565b6000831515825260206040818401528351806040850152825b81811015610bcd57858101830151858201606001528201610bb1565b81811115610bde5783606083870101525b50601f01601f191692909201606001949350505050565b60208082526010908201527f6e65656420746f2062652061646d696e00000000000000000000000000000000604082015260600190565b60208082526021908201527f726571756972652061646d696e20746f20757064617465206c696e6b20636f7360408201527f7400000000000000000000000000000000000000000000000000000000000000606082015260800190565b9182526bffffffffffffffffffffffff16602082015260400190565b60405181810167ffffffffffffffff81118282101715610cc457600080fd5b604052919050565b600067ffffffffffffffff821115610ce2578081fd5b5060209081020190565b90815260200190565b8015158114610d0357600080fd5b5056fea2646970667358221220d27ddc1df17d3b0cb82545a8fa5d87e5e8b23e4b1afcf3ab16f0bd71f1c9789964736f6c634300060c0033","linkReferences":{},"deployedLinkReferences":{},"network":"kovan","address":"0xEd5DE24aa3339Ba6804D5dFA02C61e3fD82DbF1F"}