{"_format":"hh-sol-artifact-1","contractName":"LoneSomeSharkMonitor","sourceName":"contracts/LoneSomeSharkMonitor.sol","abi":[{"inputs":[{"internalType":"contract Subscribers","name":"_subscribers","type":"address"},{"internalType":"contract KeeperRegistryBaseInterface","name":"_registry","type":"address"},{"internalType":"address","name":"_link","type":"address"}],"stateMutability":"nonpayable","type":"constructor"},{"anonymous":false,"inputs":[{"indexed":false,"internalType":"address","name":"subscriber","type":"address"},{"indexed":false,"internalType":"address[]","name":"assets","type":"address[]"},{"indexed":false,"internalType":"uint256[]","name":"amounts","type":"uint256[]"}],"name":"CatchFlashEvent","type":"event"},{"anonymous":false,"inputs":[{"indexed":false,"internalType":"bool","name":"_paused","type":"bool"},{"indexed":false,"internalType":"bool","name":"_test_triggered","type":"bool"}],"name":"MonitoringTriggered","type":"event"},{"anonymous":false,"inputs":[{"indexed":false,"internalType":"address","name":"subscriber","type":"address"},{"indexed":false,"internalType":"address[]","name":"assets","type":"address[]"},{"indexed":false,"internalType":"uint256[]","name":"amounts","type":"uint256[]"}],"name":"SuccessFlashEvent","type":"event"},{"inputs":[{"internalType":"bytes","name":"","type":"bytes"}],"name":"checkUpkeep","outputs":[{"internalType":"bool","name":"upkeepNeeded","type":"bool"},{"internalType":"bytes","name":"","type":"bytes"}],"stateMutability":"nonpayable","type":"function"},{"inputs":[],"name":"getRegistry","outputs":[{"internalType":"address","name":"","type":"address"}],"stateMutability":"view","type":"function"},{"inputs":[],"name":"getRegistryID","outputs":[{"internalType":"uint256","name":"","type":"uint256"}],"stateMutability":"view","type":"function"},{"inputs":[{"internalType":"bytes","name":"","type":"bytes"}],"name":"performUpkeep","outputs":[],"stateMutability":"nonpayable","type":"function"},{"inputs":[{"internalType":"bool","name":"_pause","type":"bool"}],"name":"setPause","outputs":[],"stateMutability":"nonpayable","type":"function"},{"inputs":[{"internalType":"bool","name":"_trigger","type":"bool"}],"name":"setTrigger","outputs":[],"stateMutability":"nonpayable","type":"function"},{"inputs":[{"internalType":"uint256","name":"_id","type":"uint256"}],"name":"updateRegistryId","outputs":[],"stateMutability":"nonpayable","type":"function"}],"bytecode":"0x60e06040526102da60015534801561001657600080fd5b50604051610d45380380610d458339810160408190526100359161006c565b600080546001600160a01b031916331790556001600160601b0319606091821b811660c05292811b83166080521b1660a0526100d0565b600080600060608486031215610080578283fd5b835161008b816100b8565b602085015190935061009c816100b8565b60408501519092506100ad816100b8565b809150509250925092565b6001600160a01b03811681146100cd57600080fd5b50565b60805160601c60a05160601c60c05160601c610c3661010f600039508061049e52508061012852806101fb52806102be52806105135250610c366000f3fe608060405234801561001057600080fd5b506004361061007d5760003560e01c80637954a1d21161005b5780637954a1d2146100d6578063bedb86fb146100eb578063e3beb393146100fe578063ec86d60c146101115761007d565b80634585e33b146100825780635ab1bd53146100975780636e04ff0d146100b5575b600080fd5b610095610090366004610896565b610124565b005b61009f61049c565b6040516100ac91906109d1565b60405180910390f35b6100c86100c3366004610896565b6104c0565b6040516100ac929190610a99565b6100de610601565b6040516100ac9190610b8a565b6100956100f9366004610857565b610607565b61009561010c366004610857565b610673565b61009561011f3660046109a0565b6106ac565b60607f00000000000000000000000000000000000000000000000000000000000000006001600160a01b031663815a86bc6040518163ffffffff1660e01b815260040160006040518083038186803b15801561017f57600080fd5b505afa158015610193573d6000803e3d6000fd5b505050506040513d6000823e601f3d908101601f191682016040526101bb9190810190610763565b905060005b81518110156104965760006001600160a01b03168282815181106101e057fe5b60200260200101516001600160a01b03161461048e576060807f00000000000000000000000000000000000000000000000000000000000000006001600160a01b031663a661cc5885858151811061023457fe5b60200260200101516040518263ffffffff1660e01b815260040161025891906109d1565b60006040518083038186803b15801561027057600080fd5b505afa158015610284573d6000803e3d6000fd5b505050506040513d6000823e601f3d908101601f191682016040526102ac919081019061079e565b9150915080518251141561048b5760007f00000000000000000000000000000000000000000000000000000000000000006001600160a01b031663fbcbc0f18686815181106102f757fe5b60200260200101516040518263ffffffff1660e01b815260040161031b91906109d1565b60006040518083038186803b15801561033357600080fd5b505afa158015610347573d6000803e3d6000fd5b505050506040513d6000823e601f3d908101601f1916820160405261036f9190810190610903565b602001519050806001600160a01b031663b485b7ea86868151811061039057fe5b602002602001015185856040518463ffffffff1660e01b81526004016103b8939291906109e5565b600060405180830381600087803b1580156103d257600080fd5b505af19250505080156103e3575060015b61043a577fa755814d325deee51598ee35a6fba2a451219ec5e08e658202f0f594c756ed9f85858151811061041457fe5b6020026020010151848460405161042d939291906109e5565b60405180910390a1610489565b7f662affe9d17f8100a681ab765488fcbdaf870a2935706da03bad6a7c2f71481785858151811061046757fe5b60200260200101518484604051610480939291906109e5565b60405180910390a15b505b50505b6001016101c0565b50505050565b7f000000000000000000000000000000000000000000000000000000000000000090565b60008054606090600160a81b900460ff16156104ea57600054600160a81b900460ff1691506105a5565b600054600160a01b900460ff161561051157600054600160a01b900460ff161591506105a5565b7f00000000000000000000000000000000000000000000000000000000000000006001600160a01b031663aa7a3e966040518163ffffffff1660e01b815260040160206040518083038186803b15801561056a57600080fd5b505afa15801561057e573d6000803e3d6000fd5b505050506040513d601f19601f820116820180604052508101906105a2919061087a565b91505b81156105fa576000546040517fb8e714f450c470e564ed5d60864db213b63b48bee08bafddbc960d8a35adc272916105f19160ff600160a01b8304811692600160a81b90041690610a87565b60405180910390a15b9250929050565b60015490565b6000546001600160a01b0316331461063a5760405162461bcd60e51b815260040161063190610af6565b60405180910390fd5b60008054911515600160a01b027fffffffffffffffffffffff00ffffffffffffffffffffffffffffffffffffffff909216919091179055565b60008054911515600160a81b027fffffffffffffffffffff00ffffffffffffffffffffffffffffffffffffffffff909216919091179055565b6000546001600160a01b031633146106d65760405162461bcd60e51b815260040161063190610b2d565b600155565b80516106e681610bda565b92915050565b600082601f8301126106fc578081fd5b815161070f61070a82610bba565b610b93565b81815291506020808301908481018184028601820187101561073057600080fd5b60005b8481101561075857815161074681610bda565b84529282019290820190600101610733565b505050505092915050565b600060208284031215610774578081fd5b815167ffffffffffffffff81111561078a578182fd5b610796848285016106ec565b949350505050565b600080604083850312156107b0578081fd5b825167ffffffffffffffff808211156107c7578283fd5b6107d3868387016106ec565b93506020915081850151818111156107e9578384fd5b85019050601f810186136107fb578283fd5b805161080961070a82610bba565b81815283810190838501858402850186018a1015610825578687fd5b8694505b83851015610847578051835260019490940193918501918501610829565b5080955050505050509250929050565b600060208284031215610868578081fd5b813561087381610bf2565b9392505050565b60006020828403121561088b578081fd5b815161087381610bf2565b600080602083850312156108a8578182fd5b823567ffffffffffffffff808211156108bf578384fd5b818501915085601f8301126108d2578384fd5b8135818111156108e0578485fd5b8660208285010111156108f1578485fd5b60209290920196919550909350505050565b600060208284031215610914578081fd5b815167ffffffffffffffff8082111561092b578283fd5b908301906080828603121561093e578283fd5b6109486080610b93565b825160038110610956578485fd5b815261096586602085016106db565b602082015260408301516040820152606083015182811115610985578485fd5b610991878286016106ec565b60608301525095945050505050565b6000602082840312156109b1578081fd5b5035919050565b6001600160a01b0316815260200190565b815260200190565b6001600160a01b0391909116815260200190565b6000606082016001600160a01b03861683526020606081850152818651610a0c8185610b8a565b91508288019350845b81811015610a3657610a288386516109b8565b948401949250600101610a15565b505084810360408601528092508551610a4f8183610b8a565b93508287019150845b81811015610a7957610a6b8584516109c9565b945091830191600101610a58565b509298975050505050505050565b91151582521515602082015260400190565b6000831515825260206040818401528351806040850152825b81811015610ace57858101830151858201606001528201610ab2565b81811115610adf5783606083870101525b50601f01601f191692909201606001949350505050565b60208082526010908201527f6e65656420746f2062652061646d696e00000000000000000000000000000000604082015260600190565b60208082526021908201527f726571756972652061646d696e20746f20757064617465206c696e6b20636f7360408201527f7400000000000000000000000000000000000000000000000000000000000000606082015260800190565b90815260200190565b60405181810167ffffffffffffffff81118282101715610bb257600080fd5b604052919050565b600067ffffffffffffffff821115610bd0578081fd5b5060209081020190565b6001600160a01b0381168114610bef57600080fd5b50565b8015158114610bef57600080fdfea2646970667358221220bef873a870f22122b57926a26758019ff094281f6044359c7a7f9cfc360da26964736f6c634300060c0033","linkReferences":{},"deployedLinkReferences":{},"network":"kovan","address":"0xd5837B01f3B86E80eF9A5627F17C9CddBB1302dd"}