{"_format":"hh-sol-artifact-1","contractName":"Subscribers","sourceName":"contracts/Subscribers.sol","abi":[{"inputs":[{"internalType":"contract ILendingPoolAddressesProvider","name":"_provider","type":"address"},{"internalType":"contract AaveProtocolDataProvider","name":"_aave_provider","type":"address"},{"internalType":"contract IUniswapV2Router02","name":"_uniswapRouter","type":"address"},{"internalType":"address","name":"wethAddress","type":"address"},{"internalType":"address","name":"linkAddress","type":"address"}],"stateMutability":"nonpayable","type":"constructor"},{"inputs":[],"name":"addMoreGas","outputs":[],"stateMutability":"payable","type":"function"},{"inputs":[{"internalType":"address","name":"_token","type":"address"}],"name":"approveAsCollateralOnlyIfAllowedInAave","outputs":[],"stateMutability":"nonpayable","type":"function"},{"inputs":[],"name":"getAccount","outputs":[{"components":[{"internalType":"enum Subscribers.Status","name":"status","type":"uint8"},{"internalType":"address","name":"payback","type":"address"},{"internalType":"uint256","name":"threshold","type":"uint256"},{"internalType":"address[]","name":"collaterals","type":"address[]"}],"internalType":"struct Subscribers.Account","name":"","type":"tuple"}],"stateMutability":"view","type":"function"},{"inputs":[{"internalType":"address","name":"_subscriber","type":"address"}],"name":"getAccount","outputs":[{"components":[{"internalType":"enum Subscribers.Status","name":"status","type":"uint8"},{"internalType":"address","name":"payback","type":"address"},{"internalType":"uint256","name":"threshold","type":"uint256"},{"internalType":"address[]","name":"collaterals","type":"address[]"}],"internalType":"struct Subscribers.Account","name":"","type":"tuple"}],"stateMutability":"view","type":"function"},{"inputs":[{"internalType":"address","name":"_subscriber","type":"address"}],"name":"getAssetsAndAmounts","outputs":[{"internalType":"address[]","name":"","type":"address[]"},{"internalType":"uint256[]","name":"","type":"uint256[]"}],"stateMutability":"view","type":"function"},{"inputs":[],"name":"getUnhealthySubscribers","outputs":[{"internalType":"address[]","name":"","type":"address[]"}],"stateMutability":"view","type":"function"},{"inputs":[],"name":"getUserData","outputs":[{"components":[{"internalType":"uint256","name":"currentATokenBalance","type":"uint256"},{"internalType":"uint256","name":"currentStableDebt","type":"uint256"},{"internalType":"uint256","name":"currentVariableDebt","type":"uint256"},{"internalType":"uint256","name":"principalStableDebt","type":"uint256"},{"internalType":"uint256","name":"scaledVariableDebt","type":"uint256"},{"internalType":"uint256","name":"stableBorrowRate","type":"uint256"},{"internalType":"uint256","name":"liquidityRate","type":"uint256"},{"internalType":"uint40","name":"stableRateLastUpdated","type":"uint40"},{"internalType":"bool","name":"usageAsCollateralEnabled","type":"bool"},{"internalType":"address","name":"token","type":"address"},{"internalType":"string","name":"symbol","type":"string"}],"internalType":"struct Subscribers.UserReserveData[]","name":"","type":"tuple[]"},{"internalType":"uint256","name":"totalCollateralETH","type":"uint256"},{"internalType":"uint256","name":"totalDebtETH","type":"uint256"},{"internalType":"uint256","name":"availableBorrowsETH","type":"uint256"},{"internalType":"uint256","name":"currentLiquidationThreshold","type":"uint256"},{"internalType":"uint256","name":"ltv","type":"uint256"},{"internalType":"uint256","name":"healthFactor","type":"uint256"}],"stateMutability":"view","type":"function"},{"inputs":[],"name":"monitorSubscribersHealth","outputs":[{"internalType":"bool","name":"needsPayback","type":"bool"}],"stateMutability":"view","type":"function"},{"inputs":[],"name":"pauseMonitoring","outputs":[],"stateMutability":"nonpayable","type":"function"},{"inputs":[{"internalType":"uint256","name":"_threshold","type":"uint256"}],"name":"registerHF","outputs":[],"stateMutability":"payable","type":"function"},{"inputs":[],"name":"startMonitoring","outputs":[],"stateMutability":"nonpayable","type":"function"},{"inputs":[{"internalType":"address","name":"_new","type":"address"}],"name":"updateAdmin","outputs":[],"stateMutability":"nonpayable","type":"function"},{"inputs":[{"internalType":"uint256","name":"_threshold","type":"uint256"}],"name":"updateHF","outputs":[],"stateMutability":"nonpayable","type":"function"},{"inputs":[{"internalType":"address","name":"_new","type":"address"}],"name":"updateLoneSomeSharkAddress","outputs":[],"stateMutability":"nonpayable","type":"function"},{"inputs":[{"internalType":"uint256","name":"_id","type":"uint256"}],"name":"updateUpkeepID","outputs":[],"stateMutability":"nonpayable","type":"function"}],"bytecode":"0x6101606040526000196080523480156200001857600080fd5b5060405162004636380380620046368339810160408190526200003b9162000146565b6001600160601b0319606083811b821660c05282811b821660e052600480546001600160a01b031916331781559087901b90911660a05260408051630261bf8b60e01b815290516000926001600160a01b03891692630261bf8b9281830192602092829003018186803b158015620000b257600080fd5b505afa158015620000c7573d6000803e3d6000fd5b505050506040513d601f19601f82011682018060405250810190620000ed919062000120565b6001600160601b0319606091821b81166101005294811b8516610140529490941b9092166101205250620001de92505050565b60006020828403121562000132578081fd5b81516200013f81620001c5565b9392505050565b600080600080600060a086880312156200015e578081fd5b85516200016b81620001c5565b60208701519095506200017e81620001c5565b60408701519094506200019181620001c5565b6060870151909350620001a481620001c5565b6080870151909250620001b781620001c5565b809150509295509295909350565b6001600160a01b0381168114620001db57600080fd5b50565b60805160a05160601c60c05160601c60e05160601c6101005160601c6101205160601c6101405160601c6143de6200025860003980610ab65250806105d752806106e95280610dae5280610e5852508061088b5280610c985280610fb552505080610ada525080610a945250806103b852506143de6000f3fe608060405260043610620000fe5760003560e01c8063547de9951162000097578063ba7b436d1162000061578063ba7b436d146200028b578063db613e8114620002a3578063e2f273bd14620002ca578063fbcbc0f114620002ef57620000fe565b8063547de99514620001e3578063815a86bc1462000208578063a661cc58146200022f578063aa7a3e96146200026457620000fe565b80631c4a641511620000d95780631c4a6415146200016757806322e8c87d14620001715780632ecc030814620001a75780632f2d474b14620001cc57620000fe565b806309a895be14620001035780630f2488f0146200012a57806317b62ee5146200014f575b600080fd5b3480156200011057600080fd5b50620001286200012236600462001420565b62000314565b005b3480156200013757600080fd5b506200012862000149366004620015a0565b62000486565b3480156200015c57600080fd5b506200012862000531565b6200012862000580565b3480156200017e57600080fd5b5062000189620005c8565b6040516200019e979695949392919062001883565b60405180910390f35b348015620001b457600080fd5b5062000128620001c636600462001420565b6200092d565b62000128620001dd366004620015a0565b62000989565b348015620001f057600080fd5b506200012862000202366004620015a0565b62000b8f565b3480156200021557600080fd5b506200022062000bc1565b6040516200019e919062001814565b3480156200023c57600080fd5b50620002546200024e36600462001420565b62000da7565b6040516200019e92919062001829565b3480156200027157600080fd5b506200027c62000f2e565b6040516200019e91906200190f565b3480156200029857600080fd5b506200012862001094565b348015620002b057600080fd5b50620002bb620010f4565b6040516200019e919062001b69565b348015620002d757600080fd5b5062000128620002e936600462001420565b620011dd565b348015620002fc57600080fd5b50620002bb6200030e36600462001420565b62001262565b60013360009081526001602052604090205460ff1660028111156200033557fe5b146200035e5760405162461bcd60e51b8152600401620003559062001b32565b60405180910390fd5b33600090815260016020526040908190205490517f095ea7b30000000000000000000000000000000000000000000000000000000081526001600160a01b038084169263095ea7b392620003e192610100909204909116907f000000000000000000000000000000000000000000000000000000000000000090600401620017fb565b602060405180830381600087803b158015620003fc57600080fd5b505af115801562000411573d6000803e3d6000fd5b505050506040513d601f19601f820116820180604052508101906200043791906200157e565b50336000908152600160208181526040832060020180549283018155835290912001805473ffffffffffffffffffffffffffffffffffffffff19166001600160a01b0392909216919091179055565b80670de0b6b3a7640000811015620004b25760405162461bcd60e51b8152600401620003559062001a8d565b670e043da617250000811115620004dd5760405162461bcd60e51b8152600401620003559062001a1f565b3360009081526001602052604090205461010090046001600160a01b03166200051a5760405162461bcd60e51b81526004016200035590620019b1565b503360009081526001602081905260409091200155565b60013360009081526001602052604090205460ff1660028111156200055257fe5b106200057e57336000908152600160208190526040909120805460029260ff1990911690835b02179055505b565b3360009081526001602052604090205461010090046001600160a01b0316620005bd5760405162461bcd60e51b81526004016200035590620019b1565b336000526001602052565b606060008060008060008060607f00000000000000000000000000000000000000000000000000000000000000006001600160a01b031663b316ff896040518163ffffffff1660e01b815260040160006040518083038186803b1580156200062f57600080fd5b505afa15801562000644573d6000803e3d6000fd5b505050506040513d6000823e601f3d908101601f191682016040526200066e919081019062001446565b90506060815167ffffffffffffffff811180156200068b57600080fd5b50604051908082528060200260200182016040528015620006c957816020015b620006b56200137f565b815260200190600190039081620006ab5790505b50905060005b8251811015620008735760008060008060008060008060007f00000000000000000000000000000000000000000000000000000000000000006001600160a01b03166328dd2d018d8c815181106200072357fe5b602002602001015160200151336040518363ffffffff1660e01b81526004016200074f929190620017e1565b6101206040518083038186803b1580156200076957600080fd5b505afa1580156200077e573d6000803e3d6000fd5b505050506040513d601f19601f82011682018060405250810190620007a4919062001603565b9850985098509850985098509850985098506040518061016001604052808a81526020018981526020018881526020018781526020018681526020018581526020018481526020018364ffffffffff16815260200182151581526020018d8c815181106200080e57fe5b6020026020010151602001516001600160a01b031681526020018d8c815181106200083557fe5b6020026020010151600001518152508b8b815181106200085157fe5b60200260200101819052505050505050505050508080600101915050620006cf565b50604051632fe4a15f60e21b81526001600160a01b037f0000000000000000000000000000000000000000000000000000000000000000169063bf92857c90620008c2903390600401620017cd565b60c06040518083038186803b158015620008db57600080fd5b505afa158015620008f0573d6000803e3d6000fd5b505050506040513d601f19601f82011682018060405250810190620009169190620015b9565b959e949d50929b5090995097509550909350915050565b6004546001600160a01b031633146200095a5760405162461bcd60e51b8152600401620003559062001afb565b6003805473ffffffffffffffffffffffffffffffffffffffff19166001600160a01b0392909216919091179055565b80670de0b6b3a7640000811015620009b55760405162461bcd60e51b8152600401620003559062001a8d565b670e043da617250000811115620009e05760405162461bcd60e51b8152600401620003559062001a1f565b3360009081526001602052604090205461010090046001600160a01b03161562000a1e5760405162461bcd60e51b81526004016200035590620019b1565b336000818152600160208190526040808320805460ff191683178155820186905560028054928301815583527f405787fa12a823e0f2b7631cc41b3ba8828b3321ca811111fa75cd3aa3bb5ace909101805473ffffffffffffffffffffffffffffffffffffffff191684179055600354905191927f0000000000000000000000000000000000000000000000000000000000000000927f00000000000000000000000000000000000000000000000000000000000000009230927f0000000000000000000000000000000000000000000000000000000000000000926001600160a01b039092169162000b1190620013eb565b62000b22969594939291906200191a565b604051809103906000f08015801562000b3f573d6000803e3d6000fd5b5033600090815260016020526040902080546001600160a01b03909216610100027fffffffffffffffffffffff0000000000000000000000000000000000000000ff909216919091179055505050565b6004546001600160a01b0316331462000bbc5760405162461bcd60e51b8152600401620003559062001a56565b600055565b60606000606060028054905067ffffffffffffffff8111801562000be457600080fd5b5060405190808252806020026020018201604052801562000c0f578160200160208202803683370190505b50905060005b60025460ff8216101562000da057600060028260ff168154811062000c3657fe5b6000918252602090912001546001600160a01b0316905060026001600160a01b03821660009081526001602052604090205460ff16600281111562000c7757fe5b141562000d9657604051632fe4a15f60e21b81526000906001600160a01b037f0000000000000000000000000000000000000000000000000000000000000000169063bf92857c9062000ccf908590600401620017cd565b60c06040518083038186803b15801562000ce857600080fd5b505afa15801562000cfd573d6000803e3d6000fd5b505050506040513d601f19601f8201168201806040525081019062000d239190620015b9565b9550505050505060016000836001600160a01b03166001600160a01b0316815260200190815260200160002060010154811162000d9457848060010195505081848660ff168151811062000d7357fe5b60200260200101906001600160a01b031690816001600160a01b0316815250505b505b5060010162000c15565b5091505090565b60608060607f00000000000000000000000000000000000000000000000000000000000000006001600160a01b031663b316ff896040518163ffffffff1660e01b815260040160006040518083038186803b15801562000e0657600080fd5b505afa15801562000e1b573d6000803e3d6000fd5b505050506040513d6000823e601f3d908101601f1916820160405262000e45919081019062001446565b905060005b815181101562000f275760007f00000000000000000000000000000000000000000000000000000000000000006001600160a01b03166328dd2d0184848151811062000e9257fe5b602002602001015160200151886040518363ffffffff1660e01b815260040162000ebe929190620017e1565b6101206040518083038186803b15801562000ed857600080fd5b505afa15801562000eed573d6000803e3d6000fd5b505050506040513d601f19601f8201168201806040525081019062000f13919062001603565b985050505050505050505060010162000e4a565b5050915091565b6000805b60025460ff821610156200109057600060028260ff168154811062000f5357fe5b6000918252602090912001546001600160a01b0316905060026001600160a01b03821660009081526001602052604090205460ff16600281111562000f9457fe5b14156200108657604051632fe4a15f60e21b81526000906001600160a01b037f0000000000000000000000000000000000000000000000000000000000000000169063bf92857c9062000fec908590600401620017cd565b60c06040518083038186803b1580156200100557600080fd5b505afa1580156200101a573d6000803e3d6000fd5b505050506040513d601f19601f82011682018060405250810190620010409190620015b9565b9550505050505060016000836001600160a01b03166001600160a01b0316815260200190815260200160002060010154811015620010845760019350505062001090565b505b5060010162000f32565b5090565b3360009081526001602052604090205461010090046001600160a01b0316620010d15760405162461bcd60e51b81526004016200035590620019b1565b33600090815260016020819052604082208054909160ff19909116908362000578565b620010fe620013f9565b33600090815260016020526040908190208151608081019092528054829060ff1660028111156200112b57fe5b60028111156200113757fe5b81526020016000820160019054906101000a90046001600160a01b03166001600160a01b03166001600160a01b031681526020016001820154815260200160028201805480602002602001604051908101604052809291908181526020018280548015620011cf57602002820191906000526020600020905b81546001600160a01b03168152600190910190602001808311620011b0575b505050505081525050905090565b6001600160a01b038116620012065760405162461bcd60e51b8152600401620003559062001ac4565b6004546001600160a01b03163314620012335760405162461bcd60e51b8152600401620003559062001954565b6004805473ffffffffffffffffffffffffffffffffffffffff19166001600160a01b0392909216919091179055565b6200126c620013f9565b6001600160a01b038216620012955760405162461bcd60e51b81526004016200035590620019e8565b6001600160a01b038216600090815260016020526040908190208151608081019092528054829060ff166002811115620012cb57fe5b6002811115620012d757fe5b81526020016000820160019054906101000a90046001600160a01b03166001600160a01b03166001600160a01b0316815260200160018201548152602001600282018054806020026020016040519081016040528092919081815260200182805480156200136f57602002820191906000526020600020905b81546001600160a01b0316815260019091019060200180831162001350575b5050505050815250509050919050565b60405180610160016040528060008152602001600081526020016000815260200160008152602001600081526020016000815260200160008152602001600064ffffffffff16815260200160001515815260200160006001600160a01b03168152602001606081525090565b61274d8062001c5c83390190565b60408051608081019091528060008152600060208201819052604082015260609081015290565b60006020828403121562001432578081fd5b81356200143f8162001c42565b9392505050565b6000602080838503121562001459578182fd5b825167ffffffffffffffff8082111562001471578384fd5b818501915085601f83011262001485578384fd5b81518181111562001494578485fd5b620014a3848583020162001bc2565b81815284810190848601875b848110156200156f57815187016040818d03601f19011215620014d057898afd5b620014dc604062001bc2565b8982015188811115620014ed578b8cfd5b8201603f81018e13620014fe578b8cfd5b8a81015162001517620015118262001bea565b62001bc2565b8181528f60408385010111156200152c578d8efd5b6200153e828e83016040860162001c0f565b835250506040919091015190620015558262001c42565b808a019190915284529287019290870190600101620014af565b50909998505050505050505050565b60006020828403121562001590578081fd5b815180151581146200143f578182fd5b600060208284031215620015b2578081fd5b5035919050565b60008060008060008060c08789031215620015d2578182fd5b865195506020870151945060408701519350606087015192506080870151915060a087015190509295509295509295565b60008060008060008060008060006101208a8c03121562001622578283fd5b8951985060208a0151975060408a0151965060608a0151955060808a0151945060a08a0151935060c08a0151925060e08a015164ffffffffff8116811462001668578283fd5b6101008b015190925080151581146200167f578182fd5b809150509295985092959850929598565b6000610160825184526020830151602085015260408301516040850152606083015160608501526080830151608085015260a083015160a085015260c083015160c085015260e0830151620016e960e0860182620017c2565b5061010080840151620016ff828701826200178e565b50506101208084015162001716828701826200173c565b5050610140808401518282870152620017328387018262001794565b9695505050505050565b6001600160a01b03169052565b6000815180845260208085019450808401835b83811015620017835781516001600160a01b0316875295820195908201906001016200175c565b509495945050505050565b15159052565b60008151808452620017ae81602086016020860162001c0f565b601f01601f19169290920160200192915050565b64ffffffffff169052565b6001600160a01b0391909116815260200190565b6001600160a01b0392831681529116602082015260400190565b6001600160a01b03929092168252602082015260400190565b6000602082526200143f602083018462001749565b6000604082526200183e604083018562001749565b828103602084810191909152845180835285820192820190845b81811015620018765784518352938301939183019160010162001858565b5090979650505050505050565b60e08082528851908201819052600090602080820284016101009081019290850191808d01855b83811015620018dc5760ff19888703018552620018c986835162001690565b95509382019390820190600101620018aa565b505085019a909a52506040830197909752506060810194909452608084019290925260a083015260c09091015292915050565b901515815260200190565b6001600160a01b0396871681529486166020860152928516604085015290841660608401528316608083015290911660a082015260c00190565b60208082526024908201527f6f6e6c792061646d696e20616c6c6f77656420746f207472616e73666572206160408201527f646d696e00000000000000000000000000000000000000000000000000000000606082015260800190565b60208082526016908201527f414c52454144592048415320414e204143434f554e5400000000000000000000604082015260600190565b60208082526013908201527f61646472657373206e6f742070726573656e7400000000000000000000000000604082015260600190565b6020808252601d908201527f7468726573686f6c6420746f6f20686967682c2061626f766520312e31000000604082015260600190565b6020808252601c908201527f6f6e6c792061646d696e20616c6c6f77656420746f2075706461746500000000604082015260600190565b60208082526011908201527f7468726573686f6c642062656c6f772031000000000000000000000000000000604082015260600190565b60208082526012908201527f6e6565642076616c696420616464726573730000000000000000000000000000604082015260600190565b60208082526015908201527f6f6e6c792061646d696e2063616e207570646174650000000000000000000000604082015260600190565b60208082526015908201527f4e45454420544f20424520524547495354455245440000000000000000000000604082015260600190565b60006020825282516003811062001b7c57fe5b806020840152506001600160a01b03602084015116604083015260408301516060830152606083015160808084015262001bba60a084018262001749565b949350505050565b60405181810167ffffffffffffffff8111828210171562001be257600080fd5b604052919050565b600067ffffffffffffffff82111562001c01578081fd5b50601f01601f191660200190565b60005b8381101562001c2c57818101518382015260200162001c12565b8381111562001c3c576000848401525b50505050565b6001600160a01b038116811462001c5857600080fd5b5056fe6101606040523480156200001257600080fd5b506040516200274d3803806200274d833981016040819052620000359162000235565b85858482806001600160a01b03166080816001600160a01b031660601b81525050806001600160a01b0316630261bf8b6040518163ffffffff1660e01b815260040160206040518083038186803b1580156200009057600080fd5b505afa158015620000a5573d6000803e3d6000fd5b505050506040513d601f19601f82011682018060405250810190620000cb91906200020f565b60601b6001600160601b03191660a052506000620000e86200020b565b600080546001600160a01b0319166001600160a01b0383169081178255604051929350917f8be0079c531659141344cd1fd0a4f28419497f9722a3daafe3b4186f6b6457e0908290a350826001600160a01b031663fca513a86040518163ffffffff1660e01b815260040160206040518083038186803b1580156200016c57600080fd5b505afa15801562000181573d6000803e3d6000fd5b505050506040513d601f19601f82011682018060405250810190620001a791906200020f565b606090811b6001600160601b031990811660e05292811b83166101005290811b821660c052600180546001600160a01b0319166001600160a01b03989098169790971790965592851b8316610120525090921b9091166101405250620002e1915050565b3390565b60006020828403121562000221578081fd5b81516200022e81620002c8565b9392505050565b60008060008060008060c087890312156200024e578182fd5b86516200025b81620002c8565b60208801519096506200026e81620002c8565b60408801519095506200028181620002c8565b60608801519094506200029481620002c8565b6080880151909350620002a781620002c8565b60a0880151909250620002ba81620002c8565b809150509295509295509295565b6001600160a01b0381168114620002de57600080fd5b50565b60805160601c60a05160601c60c05160601c60e05160601c6101005160601c6101205160601c6101405160601c6123b36200039a60003980610534525080610891525080610afd5280610f0a5280610ffe528061174452806118355250806103e252806119cf52508061038b5280610de45280610e215280610e8b528061161e528061165b52806116c55250806104ac52806105c4528061066852806107c252806109f95280610a785250806103af52506123b36000f3fe608060405234801561001057600080fd5b506004361061011a5760003560e01c80638da5cb5b116100b2578063b4dcfc7711610081578063cdf58cd611610066578063cdf58cd6146101fe578063d826492014610211578063f2fde38b146102195761011a565b8063b4dcfc77146101d2578063baf7fa99146101da5761011a565b80638da5cb5b1461018f578063920f5c84146101975780639d1211bf146101b7578063b485b7ea146101bf5761011a565b806312065fe0116100ee57806312065fe01461016f57806332e4b2861461017757806338013f021461017f578063715018a6146101875761011a565b8062ae3bf81461011f578063040141e5146101345780630542975c14610152578063074b2e431461015a575b600080fd5b61013261012d366004611b57565b61022c565b005b61013c610389565b6040516101499190611f46565b60405180910390f35b61013c6103ad565b6101626103d1565b60405161014991906122be565b6101626103d6565b6101626103da565b61013c6103e0565b610132610404565b61013c610490565b6101aa6101a5366004611c62565b61049f565b604051610149919061201d565b61013c61086e565b6101326101cd366004611b8f565b610886565b61013c610a76565b6101ed6101e8366004611e27565b610a9a565b6040516101499594939291906122e8565b6101ed61020c366004611e27565b610ae0565b61013c610afb565b610132610227366004611b57565b610b1f565b610234610be2565b6000546001600160a01b0390811691161461026a5760405162461bcd60e51b815260040161026190612289565b60405180910390fd5b806001600160a01b031663a9059cbb610281610490565b6040517f70a082310000000000000000000000000000000000000000000000000000000081526001600160a01b038516906370a08231906102c6903090600401611f46565b60206040518083038186803b1580156102de57600080fd5b505afa1580156102f2573d6000803e3d6000fd5b505050506040513d601f19601f820116820180604052508101906103169190611e0f565b6040518363ffffffff1660e01b8152600401610333929190611fd9565b602060405180830381600087803b15801561034d57600080fd5b505af1158015610361573d6000803e3d6000fd5b505050506040513d601f19601f820116820180604052508101906103859190611def565b5050565b7f000000000000000000000000000000000000000000000000000000000000000081565b7f000000000000000000000000000000000000000000000000000000000000000081565b600981565b4790565b610bb881565b7f000000000000000000000000000000000000000000000000000000000000000081565b61040c610be2565b6000546001600160a01b039081169116146104395760405162461bcd60e51b815260040161026190612289565b600080546040516001600160a01b03909116907f8be0079c531659141344cd1fd0a4f28419497f9722a3daafe3b4186f6b6457e0908390a36000805473ffffffffffffffffffffffffffffffffffffffff19169055565b6000546001600160a01b031690565b6000336001600160a01b037f000000000000000000000000000000000000000000000000000000000000000016146104e95760405162461bcd60e51b81526004016102619061203b565b6104f1611a54565b61053084848080601f016020809104026020016040519081016040528093929190818152602001838380828437600092019190915250610be692505050565b90507f00000000000000000000000000000000000000000000000000000000000000006001600160a01b031681600001516001600160a01b0316146105875760405162461bcd60e51b81526004016102619061219a565b3060005b8b81101561074a578c8c8281811061059f57fe5b90506020020160208101906105b49190611b57565b6001600160a01b031663095ea7b37f00000000000000000000000000000000000000000000000000000000000000008d8d858181106105ef57fe5b905060200201356040518363ffffffff1660e01b8152600401610613929190611fd9565b602060405180830381600087803b15801561062d57600080fd5b505af1158015610641573d6000803e3d6000fd5b505050506040513d601f19601f820116820180604052508101906106659190611def565b507f00000000000000000000000000000000000000000000000000000000000000006001600160a01b031663573ade818e8e848181106106a157fe5b90506020020160208101906106b69190611b57565b8d8d858181106106c257fe5b90506020020135600187600001516040518563ffffffff1660e01b81526004016106ef9493929190611ff2565b602060405180830381600087803b15801561070957600080fd5b505af115801561071d573d6000803e3d6000fd5b505050506040513d601f19601f820116820180604052508101906107419190611e0f565b5060010161058b565b5060005b8b81101561085b57600061078f8a8a8481811061076757fe5b905060200201358d8d8581811061077a57fe5b90506020020135610c2490919063ffffffff16565b90508d8d8381811061079d57fe5b90506020020160208101906107b29190611b57565b6001600160a01b031663095ea7b37f0000000000000000000000000000000000000000000000000000000000000000836040518363ffffffff1660e01b81526004016107ff929190611fd9565b602060405180830381600087803b15801561081957600080fd5b505af115801561082d573d6000803e3d6000fd5b505050506040513d601f19601f820116820180604052508101906108519190611def565b505060010161074e565b5060019c9b505050505050505050505050565b7310f7fc1f91ba351f9c629c5947ad69bd03c05b9681565b336001600160a01b037f000000000000000000000000000000000000000000000000000000000000000016146108ce5760405162461bcd60e51b815260040161026190612163565b6108d6610490565b6001600160a01b0316836001600160a01b0316146109065760405162461bcd60e51b8152600401610261906121cf565b80518251146109275760405162461bcd60e51b8152600401610261906120cf565b8051309060609067ffffffffffffffff8111801561094457600080fd5b5060405190808252806020026020018201604052801561096e578160200160208202803683370190505b50905060005b845181101561099f5760008260008151811061098c57fe5b6020908102919091010152600101610974565b5060405130906060906109b6908890602001611f46565b60408051601f19818403018152908290527fab9c4b5d00000000000000000000000000000000000000000000000000000000825291506000906001600160a01b037f0000000000000000000000000000000000000000000000000000000000000000169063ab9c4b5d90610a3a9088908b908b908a908a908a908a90600401611f5a565b600060405180830381600087803b158015610a5457600080fd5b505af1158015610a68573d6000803e3d6000fd5b505050505050505050505050565b7f000000000000000000000000000000000000000000000000000000000000000081565b6000806000806060610aaa611a66565b610ab588888b610c52565b8051602082015160408301516060840151608090940151929d919c509a509198509650945050505050565b6000806000806060610af0611a66565b610ab588888b61120f565b7f000000000000000000000000000000000000000000000000000000000000000081565b610b27610be2565b6000546001600160a01b03908116911614610b545760405162461bcd60e51b815260040161026190612289565b6001600160a01b038116610b7a5760405162461bcd60e51b815260040161026190612072565b600080546040516001600160a01b03808516939216917f8be0079c531659141344cd1fd0a4f28419497f9722a3daafe3b4186f6b6457e091a36000805473ffffffffffffffffffffffffffffffffffffffff19166001600160a01b0392909216919091179055565b3390565b610bee611a54565b600082806020019051810190610c049190611b73565b60408051602081019091526001600160a01b039091168152915050919050565b600082820183811015610c495760405162461bcd60e51b81526004016102619061212c565b90505b92915050565b610c5a611a66565b6000610c7d610c76612710610c708660096113e9565b90611423565b8490611465565b9050836001600160a01b0316856001600160a01b03161415610d49576000610ca4866114a7565b60408051600180825281830190925291925060609190602080830190803683370190505090508681600081518110610cd857fe5b6001600160a01b039092166020928302919091018201526040805160a08101909152848152908101610d1687610c7087670de0b6b3a76400006113e9565b8152602001610d26898886611523565b8152602001610d36898686611523565b8152602001828152509350505050611208565b60408051600280825260608083018452926020830190803683370190505090508581600081518110610d7757fe5b60200260200101906001600160a01b031690816001600160a01b0316815250508481600181518110610da557fe5b6001600160a01b0392909216602092830291909101820152604080516003808252608082019092526060928392839291820183803683370190505090507f00000000000000000000000000000000000000000000000000000000000000006001600160a01b0316896001600160a01b031614158015610e5657507f00000000000000000000000000000000000000000000000000000000000000006001600160a01b0316886001600160a01b031614155b15610fc2578881600081518110610e6957fe5b60200260200101906001600160a01b031690816001600160a01b0316815250507f000000000000000000000000000000000000000000000000000000000000000081600181518110610eb757fe5b60200260200101906001600160a01b031690816001600160a01b0316815250508781600281518110610ee557fe5b6001600160a01b03928316602091820292909201015260405163d06ca61f60e01b81527f00000000000000000000000000000000000000000000000000000000000000009091169063d06ca61f90610f4390889085906004016122c7565b60006040518083038186803b158015610f5b57600080fd5b505afa925050508015610f9057506040513d6000823e601f3d908101601f19168201604052610f8d9190810190611d5f565b60015b610fba57604080516003808252608082019092529060208201606080368337019050509150610fbd565b91505b610fe4565b6040805160038082526080820190925290602082016060803683370190505091505b60405163d06ca61f60e01b81526000906001600160a01b037f0000000000000000000000000000000000000000000000000000000000000000169063d06ca61f9061103590899089906004016122c7565b60006040518083038186803b15801561104d57600080fd5b505afa92505050801561108257506040513d6000823e601f3d908101601f1916820160405261107f9190810190611d5f565b60015b6110c2576040805160028082526060820183529091602083019080368337019050509350826002815181106110b357fe5b60200260200101519050611128565b809450846001815181106110d257fe5b6020026020010151846002815181106110e757fe5b60200260200101511161110e578460018151811061110157fe5b6020026020010151611124565b8360028151811061111b57fe5b60200260200101515b9150505b60006111338b6114a7565b905060006111408b6114a7565b9050600061117561115585600a86900a6113e9565b610c70600a85900a61116f8d670de0b6b3a76400006113e9565b906113e9565b90506040518060a001604052808581526020018281526020016111998f8e87611523565b81526020016111a98e8786611523565b815260200185156111dc57886001815181106111c157fe5b602002602001015186146111d557866111d7565b895b6111fa565b60408051600280825260608201835290916020830190803683375050505b905299505050505050505050505b9392505050565b611217611a66565b826001600160a01b0316846001600160a01b031614156112ed57600061124e611247612710610c708660096113e9565b8490610c24565b9050600061125b866114a7565b6040805160018082528183019092529192506060919060208083019080368337019050509050868160008151811061128f57fe5b6001600160a01b039092166020928302919091018201526040805160a081019091528481529081016112cd85610c7089670de0b6b3a76400006113e9565b81526020016112dd898686611523565b8152602001610d36898886611523565b6060806112fb86868661157c565b915091506000611355611332612710610c7060098760008151811061131c57fe5b60200260200101516113e990919063ffffffff16565b8460008151811061133f57fe5b6020026020010151610c2490919063ffffffff16565b90506000611362886114a7565b9050600061136f886114a7565b9050600061139e61138485600a85900a6113e9565b610c70600a86900a61116f8c670de0b6b3a76400006113e9565b90506040518060a001604052808581526020018281526020016113c28c8787611523565b81526020016113d28b8b86611523565b815260200195909552509298975050505050505050565b6000826113f857506000610c4c565b8282028284828161140557fe5b0414610c495760405162461bcd60e51b81526004016102619061222c565b6000610c4983836040518060400160405280601a81526020017f536166654d6174683a206469766973696f6e206279207a65726f000000000000815250611939565b6000610c4983836040518060400160405280601e81526020017f536166654d6174683a207375627472616374696f6e206f766572666c6f770000815250611970565b6000816001600160a01b031663313ce5676040518163ffffffff1660e01b815260040160206040518083038186803b1580156114e257600080fd5b505afa1580156114f6573d6000803e3d6000fd5b505050506040513d601f19601f8201168201806040525081019061151a9190611e68565b60ff1692915050565b6000806115437310f7fc1f91ba351f9c629c5947ad69bd03c05b9661199c565b905060006115508661199c565b9050611572670de0b6b3a7640000610c708461116f600a89900a838b886113e9565b9695505050505050565b60408051600280825260608281019093528291829181602001602082028036833701905050905085816000815181106115b157fe5b60200260200101906001600160a01b031690816001600160a01b03168152505084816001815181106115df57fe5b6001600160a01b0392909216602092830291909101820152604080516003808252608082019092526060928392839291820183803683370190505090507f00000000000000000000000000000000000000000000000000000000000000006001600160a01b0316896001600160a01b03161415801561169057507f00000000000000000000000000000000000000000000000000000000000000006001600160a01b0316886001600160a01b031614155b156117fc5788816000815181106116a357fe5b60200260200101906001600160a01b031690816001600160a01b0316815250507f0000000000000000000000000000000000000000000000000000000000000000816001815181106116f157fe5b60200260200101906001600160a01b031690816001600160a01b031681525050878160028151811061171f57fe5b6001600160a01b0392831660209182029290920101526040516307c0329d60e21b81527f000000000000000000000000000000000000000000000000000000000000000090911690631f00ca749061177d908a9085906004016122c7565b60006040518083038186803b15801561179557600080fd5b505afa9250505080156117ca57506040513d6000823e601f3d908101601f191682016040526117c79190810190611d5f565b60015b6117f4576040805160038082526080820190925290602082016060803683370190505091506117f7565b91505b61181e565b6040805160038082526080820190925290602082016060803683370190505091505b6040516307c0329d60e21b81526001600160a01b037f00000000000000000000000000000000000000000000000000000000000000001690631f00ca749061186c908a9088906004016122c7565b60006040518083038186803b15801561188457600080fd5b505afa9250505080156118b957506040513d6000823e601f3d908101601f191682016040526118b69190810190611d5f565b60015b6118ca579094509250611931915050565b809350836000815181106118da57fe5b6020026020010151836000815181106118ef57fe5b602002602001015110801561191957508260008151811061190c57fe5b6020026020010151600014155b611924578385611927565b82825b9650965050505050505b935093915050565b6000818361195a5760405162461bcd60e51b81526004016102619190612028565b50600083858161196657fe5b0495945050505050565b600081848411156119945760405162461bcd60e51b81526004016102619190612028565b505050900390565b6040517fb3596f070000000000000000000000000000000000000000000000000000000081526000906001600160a01b037f0000000000000000000000000000000000000000000000000000000000000000169063b3596f0790611a04908590600401611f46565b60206040518083038186803b158015611a1c57600080fd5b505afa158015611a30573d6000803e3d6000fd5b505050506040513d601f19601f82011682018060405250810190610c4c9190611e0f565b60408051602081019091526000815290565b6040518060a0016040528060008152602001600081526020016000815260200160008152602001606081525090565b8035610c4c81612365565b60008083601f840112611ab1578182fd5b50813567ffffffffffffffff811115611ac8578182fd5b6020830191508360208083028501011115611ae257600080fd5b9250929050565b600082601f830112611af9578081fd5b8135611b0c611b0782612345565b61231e565b818152915060208083019084810181840286018201871015611b2d57600080fd5b60005b84811015611b4c57813584529282019290820190600101611b30565b505050505092915050565b600060208284031215611b68578081fd5b8135610c4981612365565b600060208284031215611b84578081fd5b8151610c4981612365565b600080600060608486031215611ba3578182fd5b8335611bae81612365565b925060208481013567ffffffffffffffff80821115611bcb578485fd5b818701915087601f830112611bde578485fd5b8135611bec611b0782612345565b81815284810190848601868402860187018c1015611c08578889fd5b8895505b83861015611c3257611c1e8c82611a95565b835260019590950194918601918601611c0c565b50965050506040870135925080831115611c4a578384fd5b5050611c5886828701611ae9565b9150509250925092565b600080600080600080600080600060a08a8c031215611c7f578485fd5b893567ffffffffffffffff80821115611c96578687fd5b611ca28d838e01611aa0565b909b50995060208c0135915080821115611cba578687fd5b611cc68d838e01611aa0565b909950975060408c0135915080821115611cde578687fd5b611cea8d838e01611aa0565b909750955060608c01359150611cff82612365565b90935060808b01359080821115611d14578384fd5b818c0191508c601f830112611d27578384fd5b813581811115611d35578485fd5b8d6020828501011115611d46578485fd5b6020830194508093505050509295985092959850929598565b60006020808385031215611d71578182fd5b825167ffffffffffffffff811115611d87578283fd5b8301601f81018513611d97578283fd5b8051611da5611b0782612345565b8181528381019083850185840285018601891015611dc1578687fd5b8694505b83851015611de3578051835260019490940193918501918501611dc5565b50979650505050505050565b600060208284031215611e00578081fd5b81518015158114610c49578182fd5b600060208284031215611e20578081fd5b5051919050565b600080600060608486031215611e3b578283fd5b833592506020840135611e4d81612365565b91506040840135611e5d81612365565b809150509250925092565b600060208284031215611e79578081fd5b815160ff81168114610c49578182fd5b6000815180845260208085019450808401835b83811015611ec15781516001600160a01b031687529582019590820190600101611e9c565b509495945050505050565b6000815180845260208085019450808401835b83811015611ec157815187529582019590820190600101611edf565b60008151808452815b81811015611f2057602081850181015186830182015201611f04565b81811115611f315782602083870101525b50601f01601f19169290920160200192915050565b6001600160a01b0391909116815260200190565b60006001600160a01b03808a16835260e06020840152611f7d60e084018a611e89565b8381036040850152611f8f818a611ecc565b90508381036060850152611fa38189611ecc565b9050818716608085015283810360a0850152611fbf8187611efb565b9250505061ffff831660c083015298975050505050505050565b6001600160a01b03929092168252602082015260400190565b6001600160a01b03948516815260208101939093526040830191909152909116606082015260800190565b901515815260200190565b600060208252610c496020830184611efb565b6020808252601b908201527f43414c4c45525f4d5553545f42455f4c454e44494e475f504f4f4c0000000000604082015260600190565b60208082526026908201527f4f776e61626c653a206e6577206f776e657220697320746865207a65726f206160408201527f6464726573730000000000000000000000000000000000000000000000000000606082015260800190565b60208082526027908201527f61737365747320616e6420616d6f756e74732068617665206e6f20657175616c60408201527f206c656e67746800000000000000000000000000000000000000000000000000606082015260800190565b6020808252601b908201527f536166654d6174683a206164646974696f6e206f766572666c6f770000000000604082015260600190565b6020808252601d908201527f43414c4c45525f4d5553545f42455f4c4f4e45534f4d455f534841524b000000604082015260600190565b6020808252818101527f5448495320434f4e545241435420495320464f5220444542544f52204f4e4c59604082015260600190565b6020808252602d908201527f5f73756273637269626572206e6565647320746f206f776e207468652070617960408201527f6261636b20636f6e747261637400000000000000000000000000000000000000606082015260800190565b60208082526021908201527f536166654d6174683a206d756c7469706c69636174696f6e206f766572666c6f60408201527f7700000000000000000000000000000000000000000000000000000000000000606082015260800190565b6020808252818101527f4f776e61626c653a2063616c6c6572206973206e6f7420746865206f776e6572604082015260600190565b90815260200190565b6000838252604060208301526122e06040830184611e89565b949350505050565b600086825285602083015284604083015283606083015260a0608083015261231360a0830184611e89565b979650505050505050565b60405181810167ffffffffffffffff8111828210171561233d57600080fd5b604052919050565b600067ffffffffffffffff82111561235b578081fd5b5060209081020190565b6001600160a01b038116811461237a57600080fd5b5056fea26469706673582212203e339d088ddf7864f05d2c1def850a828cf65de4c5e7bd6869190d6cf599b57e64736f6c634300060c0033a2646970667358221220d8a5ff2975927ae599cfc1ffeecc7c884f15776490293d1fd68d5cb2caa0e91464736f6c634300060c0033","linkReferences":{},"deployedLinkReferences":{},"network":"kovan","address":"0x4ba657d10295EBf3e7C998272bFA8bAE9A30bE60"}