{"_format":"hh-sol-artifact-1","contractName":"Subscribers","sourceName":"contracts/Subscribers.sol","abi":[{"inputs":[{"internalType":"contract ILendingPoolAddressesProvider","name":"_provider","type":"address"},{"internalType":"contract AaveProtocolDataProvider","name":"_aave_provider","type":"address"},{"internalType":"contract IUniswapV2Router02","name":"_uniswapRouter","type":"address"},{"internalType":"address","name":"wethAddress","type":"address"},{"internalType":"address","name":"linkAddress","type":"address"}],"stateMutability":"nonpayable","type":"constructor"},{"inputs":[],"name":"addMoreGas","outputs":[],"stateMutability":"payable","type":"function"},{"inputs":[{"internalType":"address","name":"_token","type":"address"}],"name":"approveAsCollateralOnlyIfAllowedInAave","outputs":[],"stateMutability":"nonpayable","type":"function"},{"inputs":[],"name":"getAccount","outputs":[{"components":[{"internalType":"enum Subscribers.Status","name":"status","type":"uint8"},{"internalType":"address payable","name":"payback","type":"address"},{"internalType":"uint256","name":"threshold","type":"uint256"},{"internalType":"address[]","name":"collaterals","type":"address[]"}],"internalType":"struct Subscribers.Account","name":"","type":"tuple"}],"stateMutability":"view","type":"function"},{"inputs":[{"internalType":"address","name":"_subscriber","type":"address"}],"name":"getAccount","outputs":[{"components":[{"internalType":"enum Subscribers.Status","name":"status","type":"uint8"},{"internalType":"address payable","name":"payback","type":"address"},{"internalType":"uint256","name":"threshold","type":"uint256"},{"internalType":"address[]","name":"collaterals","type":"address[]"}],"internalType":"struct Subscribers.Account","name":"","type":"tuple"}],"stateMutability":"view","type":"function"},{"inputs":[{"internalType":"address","name":"_subscriber","type":"address"}],"name":"getAssetsAndAmounts","outputs":[{"internalType":"address[]","name":"","type":"address[]"},{"internalType":"uint256[]","name":"","type":"uint256[]"}],"stateMutability":"view","type":"function"},{"inputs":[],"name":"getUnhealthySubscribers","outputs":[{"internalType":"address[]","name":"","type":"address[]"}],"stateMutability":"view","type":"function"},{"inputs":[],"name":"getUserData","outputs":[{"components":[{"internalType":"uint256","name":"currentATokenBalance","type":"uint256"},{"internalType":"uint256","name":"currentStableDebt","type":"uint256"},{"internalType":"uint256","name":"currentVariableDebt","type":"uint256"},{"internalType":"uint256","name":"principalStableDebt","type":"uint256"},{"internalType":"uint256","name":"scaledVariableDebt","type":"uint256"},{"internalType":"uint256","name":"stableBorrowRate","type":"uint256"},{"internalType":"uint256","name":"liquidityRate","type":"uint256"},{"internalType":"uint40","name":"stableRateLastUpdated","type":"uint40"},{"internalType":"bool","name":"usageAsCollateralEnabled","type":"bool"},{"internalType":"address","name":"token","type":"address"},{"internalType":"string","name":"symbol","type":"string"},{"internalType":"uint256","name":"variableBorrowRate","type":"uint256"},{"internalType":"uint256","name":"averageStableBorrowRate","type":"uint256"}],"internalType":"struct Subscribers.UserReserveData[]","name":"","type":"tuple[]"},{"internalType":"uint256","name":"totalCollateralETH","type":"uint256"},{"internalType":"uint256","name":"totalDebtETH","type":"uint256"},{"internalType":"uint256","name":"availableBorrowsETH","type":"uint256"},{"internalType":"uint256","name":"currentLiquidationThreshold","type":"uint256"},{"internalType":"uint256","name":"ltv","type":"uint256"},{"internalType":"uint256","name":"healthFactor","type":"uint256"}],"stateMutability":"view","type":"function"},{"inputs":[],"name":"monitorSubscribersHealth","outputs":[{"internalType":"bool","name":"needsPayback","type":"bool"}],"stateMutability":"view","type":"function"},{"inputs":[],"name":"pauseMonitoring","outputs":[],"stateMutability":"nonpayable","type":"function"},{"inputs":[{"internalType":"uint256","name":"_threshold","type":"uint256"}],"name":"registerHF","outputs":[],"stateMutability":"payable","type":"function"},{"inputs":[],"name":"startMonitoring","outputs":[],"stateMutability":"nonpayable","type":"function"},{"inputs":[{"internalType":"address","name":"_new","type":"address"}],"name":"updateAdmin","outputs":[],"stateMutability":"nonpayable","type":"function"},{"inputs":[{"internalType":"uint256","name":"_threshold","type":"uint256"}],"name":"updateHF","outputs":[],"stateMutability":"nonpayable","type":"function"},{"inputs":[{"internalType":"address","name":"_new","type":"address"}],"name":"updateLoneSomeSharkAddress","outputs":[],"stateMutability":"nonpayable","type":"function"},{"inputs":[{"internalType":"uint256","name":"_id","type":"uint256"}],"name":"updateUpkeepID","outputs":[],"stateMutability":"nonpayable","type":"function"}],"bytecode":"0x6101606040526000196080523480156200001857600080fd5b5060405162004919380380620049198339810160408190526200003b9162000146565b6001600160601b0319606083811b821660c05282811b821660e052600480546001600160a01b031916331781559087901b90911660a05260408051630261bf8b60e01b815290516000926001600160a01b03891692630261bf8b9281830192602092829003018186803b158015620000b257600080fd5b505afa158015620000c7573d6000803e3d6000fd5b505050506040513d601f19601f82011682018060405250810190620000ed919062000120565b6001600160601b0319606091821b81166101005294811b8516610140529490941b9092166101205250620001de92505050565b60006020828403121562000132578081fd5b81516200013f81620001c5565b9392505050565b600080600080600060a086880312156200015e578081fd5b85516200016b81620001c5565b60208701519095506200017e81620001c5565b60408701519094506200019181620001c5565b6060870151909350620001a481620001c5565b6080870151909250620001b781620001c5565b809150509295509295909350565b6001600160a01b0381168114620001db57600080fd5b50565b60805160a05160601c60c05160601c60e05160601c6101005160601c6101205160601c6101405160601c6146bc6200025d60003980610bd152508061061a528061072c52806107fe5280610f015280610fab5250806109a65280610deb528061110852505080610bf5525080610baf5250806103b852506146bc6000f3fe608060405260043610620000fe5760003560e01c8063547de9951162000097578063ba7b436d1162000061578063ba7b436d146200028b578063db613e8114620002a3578063e2f273bd14620002ca578063fbcbc0f114620002ef57620000fe565b8063547de99514620001e3578063815a86bc1462000208578063a661cc58146200022f578063aa7a3e96146200026457620000fe565b80631c4a641511620000d95780631c4a6415146200016757806322e8c87d14620001715780632ecc030814620001a75780632f2d474b14620001cc57620000fe565b806309a895be14620001035780630f2488f0146200012a57806317b62ee5146200014f575b600080fd5b3480156200011057600080fd5b5062000128620001223660046200159d565b62000314565b005b3480156200013757600080fd5b5062000128620001493660046200171d565b62000486565b3480156200015c57600080fd5b506200012862000531565b6200012862000580565b3480156200017e57600080fd5b50620001896200060b565b6040516200019e979695949392919062001a8d565b60405180910390f35b348015620001b457600080fd5b5062000128620001c63660046200159d565b62000a48565b62000128620001dd3660046200171d565b62000aa4565b348015620001f057600080fd5b5062000128620002023660046200171d565b62000ce2565b3480156200021557600080fd5b506200022062000d14565b6040516200019e919062001a1e565b3480156200023c57600080fd5b50620002546200024e3660046200159d565b62000efa565b6040516200019e92919062001a33565b3480156200027157600080fd5b506200027c62001081565b6040516200019e919062001b19565b3480156200029857600080fd5b5062000128620011e7565b348015620002b057600080fd5b50620002bb62001247565b6040516200019e919062001d73565b348015620002d757600080fd5b5062000128620002e93660046200159d565b62001330565b348015620002fc57600080fd5b50620002bb6200030e3660046200159d565b620013b5565b60013360009081526001602052604090205460ff1660028111156200033557fe5b146200035e5760405162461bcd60e51b8152600401620003559062001d3c565b60405180910390fd5b33600090815260016020526040908190205490517f095ea7b30000000000000000000000000000000000000000000000000000000081526001600160a01b038084169263095ea7b392620003e192610100909204909116907f000000000000000000000000000000000000000000000000000000000000000090600401620019eb565b602060405180830381600087803b158015620003fc57600080fd5b505af115801562000411573d6000803e3d6000fd5b505050506040513d601f19601f82011682018060405250810190620004379190620016fb565b50336000908152600160208181526040832060020180549283018155835290912001805473ffffffffffffffffffffffffffffffffffffffff19166001600160a01b0392909216919091179055565b80670de0b6b3a7640000811015620004b25760405162461bcd60e51b8152600401620003559062001c60565b6714d1120d7b160000811115620004dd5760405162461bcd60e51b8152600401620003559062001c97565b3360009081526001602052604090205461010090046001600160a01b03166200051a5760405162461bcd60e51b8152600401620003559062001bbb565b503360009081526001602081905260409091200155565b60013360009081526001602052604090205460ff1660028111156200055257fe5b106200057e57336000908152600160208190526040909120805460029260ff1990911690835b02179055505b565b3360009081526001602052604090205461010090046001600160a01b0316620005bd5760405162461bcd60e51b8152600401620003559062001bbb565b336000908152600160205260408082205490516101009091046001600160a01b0316913480156108fc02929091818181858888f1935050505015801562000608573d6000803e3d6000fd5b50565b606060008060008060008060607f00000000000000000000000000000000000000000000000000000000000000006001600160a01b031663b316ff896040518163ffffffff1660e01b815260040160006040518083038186803b1580156200067257600080fd5b505afa15801562000687573d6000803e3d6000fd5b505050506040513d6000823e601f3d908101601f19168201604052620006b19190810190620015c3565b90506060815167ffffffffffffffff81118015620006ce57600080fd5b506040519080825280602002602001820160405280156200070c57816020015b620006f8620014d2565b815260200190600190039081620006ee5790505b50905060005b82518110156200098e5760008060008060008060008060007f00000000000000000000000000000000000000000000000000000000000000006001600160a01b03166328dd2d018d8c815181106200076657fe5b602002602001015160200151336040518363ffffffff1660e01b81526004016200079292919062001a04565b6101206040518083038186803b158015620007ac57600080fd5b505afa158015620007c1573d6000803e3d6000fd5b505050506040513d601f19601f82011682018060405250810190620007e79190620017fe565b9850985098509850985098509850985098506000807f00000000000000000000000000000000000000000000000000000000000000006001600160a01b03166335ea6a758f8e815181106200083857fe5b6020026020010151602001516040518263ffffffff1660e01b8152600401620008629190620019d7565b6101406040518083038186803b1580156200087c57600080fd5b505afa15801562000891573d6000803e3d6000fd5b505050506040513d601f19601f82011682018060405250810190620008b7919062001780565b505050965050955050505050604051806101a001604052808c81526020018b81526020018a81526020018981526020018881526020018781526020018681526020018564ffffffffff16815260200184151581526020018f8e815181106200091b57fe5b6020026020010151602001516001600160a01b031681526020018f8e815181106200094257fe5b6020026020010151600001518152602001838152602001828152508d8d815181106200096a57fe5b60200260200101819052505050505050505050505050808060010191505062000712565b50604051632fe4a15f60e21b81526001600160a01b037f0000000000000000000000000000000000000000000000000000000000000000169063bf92857c90620009dd903390600401620019d7565b60c06040518083038186803b158015620009f657600080fd5b505afa15801562000a0b573d6000803e3d6000fd5b505050506040513d601f19601f8201168201806040525081019062000a31919062001736565b959e949d50929b5090995097509550909350915050565b6004546001600160a01b0316331462000a755760405162461bcd60e51b8152600401620003559062001d05565b6003805473ffffffffffffffffffffffffffffffffffffffff19166001600160a01b0392909216919091179055565b80670de0b6b3a764000081101562000ad05760405162461bcd60e51b8152600401620003559062001c60565b6714d1120d7b16000081111562000afb5760405162461bcd60e51b8152600401620003559062001c97565b3360009081526001602052604090205461010090046001600160a01b03161562000b395760405162461bcd60e51b8152600401620003559062001bbb565b336000818152600160208190526040808320805460ff191683178155820186905560028054928301815583527f405787fa12a823e0f2b7631cc41b3ba8828b3321ca811111fa75cd3aa3bb5ace909101805473ffffffffffffffffffffffffffffffffffffffff191684179055600354905191927f0000000000000000000000000000000000000000000000000000000000000000927f00000000000000000000000000000000000000000000000000000000000000009230927f0000000000000000000000000000000000000000000000000000000000000000926001600160a01b039092169162000c2c906200154c565b62000c3d9695949392919062001b24565b604051809103906000f08015801562000c5a573d6000803e3d6000fd5b503360009081526001602052604080822080546001600160a01b038086166101009081027fffffffffffffffffffffff0000000000000000000000000000000000000000ff90931692909217928390559251949550900416913480156108fc0292909190818181858888f1935050505015801562000cdc573d6000803e3d6000fd5b50505050565b6004546001600160a01b0316331462000d0f5760405162461bcd60e51b8152600401620003559062001c29565b600055565b60606000606060028054905067ffffffffffffffff8111801562000d3757600080fd5b5060405190808252806020026020018201604052801562000d62578160200160208202803683370190505b50905060005b60025460ff8216101562000ef357600060028260ff168154811062000d8957fe5b6000918252602090912001546001600160a01b0316905060026001600160a01b03821660009081526001602052604090205460ff16600281111562000dca57fe5b141562000ee957604051632fe4a15f60e21b81526000906001600160a01b037f0000000000000000000000000000000000000000000000000000000000000000169063bf92857c9062000e22908590600401620019d7565b60c06040518083038186803b15801562000e3b57600080fd5b505afa15801562000e50573d6000803e3d6000fd5b505050506040513d601f19601f8201168201806040525081019062000e76919062001736565b9550505050505060016000836001600160a01b03166001600160a01b0316815260200190815260200160002060010154811162000ee757848060010195505081848660ff168151811062000ec657fe5b60200260200101906001600160a01b031690816001600160a01b0316815250505b505b5060010162000d68565b5091505090565b60608060607f00000000000000000000000000000000000000000000000000000000000000006001600160a01b031663b316ff896040518163ffffffff1660e01b815260040160006040518083038186803b15801562000f5957600080fd5b505afa15801562000f6e573d6000803e3d6000fd5b505050506040513d6000823e601f3d908101601f1916820160405262000f989190810190620015c3565b905060005b81518110156200107a5760007f00000000000000000000000000000000000000000000000000000000000000006001600160a01b03166328dd2d0184848151811062000fe557fe5b602002602001015160200151886040518363ffffffff1660e01b81526004016200101192919062001a04565b6101206040518083038186803b1580156200102b57600080fd5b505afa15801562001040573d6000803e3d6000fd5b505050506040513d601f19601f82011682018060405250810190620010669190620017fe565b985050505050505050505060010162000f9d565b5050915091565b6000805b60025460ff82161015620011e357600060028260ff1681548110620010a657fe5b6000918252602090912001546001600160a01b0316905060026001600160a01b03821660009081526001602052604090205460ff166002811115620010e757fe5b1415620011d957604051632fe4a15f60e21b81526000906001600160a01b037f0000000000000000000000000000000000000000000000000000000000000000169063bf92857c906200113f908590600401620019d7565b60c06040518083038186803b1580156200115857600080fd5b505afa1580156200116d573d6000803e3d6000fd5b505050506040513d601f19601f8201168201806040525081019062001193919062001736565b9550505050505060016000836001600160a01b03166001600160a01b0316815260200190815260200160002060010154811015620011d757600193505050620011e3565b505b5060010162001085565b5090565b3360009081526001602052604090205461010090046001600160a01b0316620012245760405162461bcd60e51b8152600401620003559062001bbb565b33600090815260016020819052604082208054909160ff19909116908362000578565b620012516200155a565b33600090815260016020526040908190208151608081019092528054829060ff1660028111156200127e57fe5b60028111156200128a57fe5b81526020016000820160019054906101000a90046001600160a01b03166001600160a01b03166001600160a01b0316815260200160018201548152602001600282018054806020026020016040519081016040528092919081815260200182805480156200132257602002820191906000526020600020905b81546001600160a01b0316815260019091019060200180831162001303575b505050505081525050905090565b6001600160a01b038116620013595760405162461bcd60e51b8152600401620003559062001cce565b6004546001600160a01b03163314620013865760405162461bcd60e51b8152600401620003559062001b5e565b6004805473ffffffffffffffffffffffffffffffffffffffff19166001600160a01b0392909216919091179055565b620013bf6200155a565b6001600160a01b038216620013e85760405162461bcd60e51b8152600401620003559062001bf2565b6001600160a01b038216600090815260016020526040908190208151608081019092528054829060ff1660028111156200141e57fe5b60028111156200142a57fe5b81526020016000820160019054906101000a90046001600160a01b03166001600160a01b03166001600160a01b031681526020016001820154815260200160028201805480602002602001604051908101604052809291908181526020018280548015620014c257602002820191906000526020600020905b81546001600160a01b03168152600190910190602001808311620014a3575b5050505050815250509050919050565b604051806101a0016040528060008152602001600081526020016000815260200160008152602001600081526020016000815260200160008152602001600064ffffffffff16815260200160001515815260200160006001600160a01b031681526020016060815260200160008152602001600081525090565b6128288062001e5f83390190565b60408051608081019091528060008152600060208201819052604082015260609081015290565b805164ffffffffff811681146200159757600080fd5b92915050565b600060208284031215620015af578081fd5b8135620015bc8162001e48565b9392505050565b60006020808385031215620015d6578182fd5b825167ffffffffffffffff80821115620015ee578384fd5b818501915085601f83011262001602578384fd5b81518181111562001611578485fd5b62001620848583020162001dcc565b81815284810190848601875b84811015620016ec57815187016040818d03601f190112156200164d57898afd5b62001659604062001dcc565b89820151888111156200166a578b8cfd5b8201603f81018e136200167b578b8cfd5b8a810151620016946200168e8262001df4565b62001dcc565b8181528f6040838501011115620016a9578d8efd5b620016bb828e83016040860162001e19565b835250506040919091015190620016d28262001e48565b808a0191909152845292870192908701906001016200162c565b50909998505050505050505050565b6000602082840312156200170d578081fd5b81518015158114620015bc578182fd5b6000602082840312156200172f578081fd5b5035919050565b60008060008060008060c087890312156200174f578182fd5b865195506020870151945060408701519350606087015192506080870151915060a087015190509295509295509295565b6000806000806000806000806000806101408b8d031215620017a0578384fd5b8a51995060208b0151985060408b0151975060608b0151965060808b0151955060a08b0151945060c08b0151935060e08b015192506101008b01519150620017ed8c6101208d0162001581565b90509295989b9194979a5092959850565b60008060008060008060008060006101208a8c0312156200181d578485fd5b8951985060208a0151975060408a0151965060608a0151955060808a0151945060a08a0151935060c08a015192506200185a8b60e08c0162001581565b91506101008a0151801515811462001870578182fd5b809150509295985092959850929598565b60006101a0825184526020830151602085015260408301516040850152606083015160608501526080830151608085015260a083015160a085015260c083015160c085015260e0830151620018da60e0860182620019cc565b5061010080840151620018f08287018262001998565b505061012080840151620019078287018262001946565b505061014080840151828287015262001923838701826200199e565b610160868101519088015261018095860151959096019490945250929392505050565b6001600160a01b03169052565b6000815180845260208085019450808401835b838110156200198d5781516001600160a01b03168752958201959082019060010162001966565b509495945050505050565b15159052565b60008151808452620019b881602086016020860162001e19565b601f01601f19169290920160200192915050565b64ffffffffff169052565b6001600160a01b0391909116815260200190565b6001600160a01b03929092168252602082015260400190565b6001600160a01b0392831681529116602082015260400190565b600060208252620015bc602083018462001953565b60006040825262001a48604083018562001953565b828103602084810191909152845180835285820192820190845b8181101562001a805784518352938301939183019160010162001a62565b5090979650505050505050565b60e08082528851908201819052600090602080820284016101009081019290850191808d01855b8381101562001ae65760ff1988870301855262001ad386835162001881565b9550938201939082019060010162001ab4565b505085019a909a52506040830197909752506060810194909452608084019290925260a083015260c09091015292915050565b901515815260200190565b6001600160a01b0396871681529486166020860152928516604085015290841660608401528316608083015290911660a082015260c00190565b60208082526024908201527f6f6e6c792061646d696e20616c6c6f77656420746f207472616e73666572206160408201527f646d696e00000000000000000000000000000000000000000000000000000000606082015260800190565b60208082526016908201527f414c52454144592048415320414e204143434f554e5400000000000000000000604082015260600190565b60208082526013908201527f61646472657373206e6f742070726573656e7400000000000000000000000000604082015260600190565b6020808252601c908201527f6f6e6c792061646d696e20616c6c6f77656420746f2075706461746500000000604082015260600190565b60208082526011908201527f7468726573686f6c642062656c6f772031000000000000000000000000000000604082015260600190565b6020808252601d908201527f7468726573686f6c6420746f6f20686967682c2061626f766520312e35000000604082015260600190565b60208082526012908201527f6e6565642076616c696420616464726573730000000000000000000000000000604082015260600190565b60208082526015908201527f6f6e6c792061646d696e2063616e207570646174650000000000000000000000604082015260600190565b60208082526015908201527f4e45454420544f20424520524547495354455245440000000000000000000000604082015260600190565b60006020825282516003811062001d8657fe5b806020840152506001600160a01b03602084015116604083015260408301516060830152606083015160808084015262001dc460a084018262001953565b949350505050565b60405181810167ffffffffffffffff8111828210171562001dec57600080fd5b604052919050565b600067ffffffffffffffff82111562001e0b578081fd5b50601f01601f191660200190565b60005b8381101562001e3657818101518382015260200162001e1c565b8381111562000cdc5750506000910152565b6001600160a01b03811681146200060857600080fdfe6101606040523480156200001257600080fd5b506040516200282838038062002828833981016040819052620000359162000235565b85858482806001600160a01b03166080816001600160a01b031660601b81525050806001600160a01b0316630261bf8b6040518163ffffffff1660e01b815260040160206040518083038186803b1580156200009057600080fd5b505afa158015620000a5573d6000803e3d6000fd5b505050506040513d601f19601f82011682018060405250810190620000cb91906200020f565b60601b6001600160601b03191660a052506000620000e86200020b565b600080546001600160a01b0319166001600160a01b0383169081178255604051929350917f8be0079c531659141344cd1fd0a4f28419497f9722a3daafe3b4186f6b6457e0908290a350826001600160a01b031663fca513a86040518163ffffffff1660e01b815260040160206040518083038186803b1580156200016c57600080fd5b505afa15801562000181573d6000803e3d6000fd5b505050506040513d601f19601f82011682018060405250810190620001a791906200020f565b606090811b6001600160601b031990811660e05292811b83166101005290811b821660c052600180546001600160a01b0319166001600160a01b03989098169790971790965592851b8316610120525090921b9091166101405250620002e1915050565b3390565b60006020828403121562000221578081fd5b81516200022e81620002c8565b9392505050565b60008060008060008060c087890312156200024e578182fd5b86516200025b81620002c8565b60208801519096506200026e81620002c8565b60408801519095506200028181620002c8565b60608801519094506200029481620002c8565b6080880151909350620002a781620002c8565b60a0880151909250620002ba81620002c8565b809150509295509295509295565b6001600160a01b0381168114620002de57600080fd5b50565b60805160601c60a05160601c60c05160601c60e05160601c6101005160601c6101205160601c6101405160601c61248e6200039a6000398061060f52508061096c525080610bd85280610fe552806110d9528061181f52806119105250806104bd5280611aaa5250806104665280610ebf5280610efc5280610f6652806116f9528061173652806117a0525080610587528061069f5280610743528061089d5280610ad45280610b5352508061048a525061248e6000f3fe6080604052600436106101115760003560e01c80638da5cb5b116100a5578063b4dcfc7711610074578063cdf58cd611610059578063cdf58cd6146102b2578063d8264920146102d2578063f2fde38b146102e757610118565b8063b4dcfc771461026c578063baf7fa991461028157610118565b80638da5cb5b146101f5578063920f5c841461020a5780639d1211bf14610237578063b485b7ea1461024c57610118565b806312065fe0116100e157806312065fe0146101a157806332e4b286146101b657806338013f02146101cb578063715018a6146101e057610118565b8062ae3bf81461011d578063040141e51461013f5780630542975c1461016a578063074b2e431461017f57610118565b3661011857005b600080fd5b34801561012957600080fd5b5061013d610138366004611c32565b610307565b005b34801561014b57600080fd5b50610154610464565b6040516101619190612021565b60405180910390f35b34801561017657600080fd5b50610154610488565b34801561018b57600080fd5b506101946104ac565b6040516101619190612399565b3480156101ad57600080fd5b506101946104b1565b3480156101c257600080fd5b506101946104b5565b3480156101d757600080fd5b506101546104bb565b3480156101ec57600080fd5b5061013d6104df565b34801561020157600080fd5b5061015461056b565b34801561021657600080fd5b5061022a610225366004611d3d565b61057a565b60405161016191906120f8565b34801561024357600080fd5b50610154610949565b34801561025857600080fd5b5061013d610267366004611c6a565b610961565b34801561027857600080fd5b50610154610b51565b34801561028d57600080fd5b506102a161029c366004611f02565b610b75565b6040516101619594939291906123c3565b3480156102be57600080fd5b506102a16102cd366004611f02565b610bbb565b3480156102de57600080fd5b50610154610bd6565b3480156102f357600080fd5b5061013d610302366004611c32565b610bfa565b61030f610cbd565b6000546001600160a01b039081169116146103455760405162461bcd60e51b815260040161033c90612364565b60405180910390fd5b806001600160a01b031663a9059cbb61035c61056b565b6040517f70a082310000000000000000000000000000000000000000000000000000000081526001600160a01b038516906370a08231906103a1903090600401612021565b60206040518083038186803b1580156103b957600080fd5b505afa1580156103cd573d6000803e3d6000fd5b505050506040513d601f19601f820116820180604052508101906103f19190611eea565b6040518363ffffffff1660e01b815260040161040e9291906120b4565b602060405180830381600087803b15801561042857600080fd5b505af115801561043c573d6000803e3d6000fd5b505050506040513d601f19601f820116820180604052508101906104609190611eca565b5050565b7f000000000000000000000000000000000000000000000000000000000000000081565b7f000000000000000000000000000000000000000000000000000000000000000081565b600981565b4790565b610bb881565b7f000000000000000000000000000000000000000000000000000000000000000081565b6104e7610cbd565b6000546001600160a01b039081169116146105145760405162461bcd60e51b815260040161033c90612364565b600080546040516001600160a01b03909116907f8be0079c531659141344cd1fd0a4f28419497f9722a3daafe3b4186f6b6457e0908390a36000805473ffffffffffffffffffffffffffffffffffffffff19169055565b6000546001600160a01b031690565b6000336001600160a01b037f000000000000000000000000000000000000000000000000000000000000000016146105c45760405162461bcd60e51b815260040161033c90612116565b6105cc611b2f565b61060b84848080601f016020809104026020016040519081016040528093929190818152602001838380828437600092019190915250610cc192505050565b90507f00000000000000000000000000000000000000000000000000000000000000006001600160a01b031681600001516001600160a01b0316146106625760405162461bcd60e51b815260040161033c90612275565b3060005b8b811015610825578c8c8281811061067a57fe5b905060200201602081019061068f9190611c32565b6001600160a01b031663095ea7b37f00000000000000000000000000000000000000000000000000000000000000008d8d858181106106ca57fe5b905060200201356040518363ffffffff1660e01b81526004016106ee9291906120b4565b602060405180830381600087803b15801561070857600080fd5b505af115801561071c573d6000803e3d6000fd5b505050506040513d601f19601f820116820180604052508101906107409190611eca565b507f00000000000000000000000000000000000000000000000000000000000000006001600160a01b031663573ade818e8e8481811061077c57fe5b90506020020160208101906107919190611c32565b8d8d8581811061079d57fe5b90506020020135600187600001516040518563ffffffff1660e01b81526004016107ca94939291906120cd565b602060405180830381600087803b1580156107e457600080fd5b505af11580156107f8573d6000803e3d6000fd5b505050506040513d601f19601f8201168201806040525081019061081c9190611eea565b50600101610666565b5060005b8b81101561093657600061086a8a8a8481811061084257fe5b905060200201358d8d8581811061085557fe5b90506020020135610cff90919063ffffffff16565b90508d8d8381811061087857fe5b905060200201602081019061088d9190611c32565b6001600160a01b031663095ea7b37f0000000000000000000000000000000000000000000000000000000000000000836040518363ffffffff1660e01b81526004016108da9291906120b4565b602060405180830381600087803b1580156108f457600080fd5b505af1158015610908573d6000803e3d6000fd5b505050506040513d601f19601f8201168201806040525081019061092c9190611eca565b5050600101610829565b5060019c9b505050505050505050505050565b7310f7fc1f91ba351f9c629c5947ad69bd03c05b9681565b336001600160a01b037f000000000000000000000000000000000000000000000000000000000000000016146109a95760405162461bcd60e51b815260040161033c9061223e565b6109b161056b565b6001600160a01b0316836001600160a01b0316146109e15760405162461bcd60e51b815260040161033c906122aa565b8051825114610a025760405162461bcd60e51b815260040161033c906121aa565b8051309060609067ffffffffffffffff81118015610a1f57600080fd5b50604051908082528060200260200182016040528015610a49578160200160208202803683370190505b50905060005b8451811015610a7a57600082600081518110610a6757fe5b6020908102919091010152600101610a4f565b506040513090606090610a91908890602001612021565b60408051601f19818403018152908290527fab9c4b5d00000000000000000000000000000000000000000000000000000000825291506000906001600160a01b037f0000000000000000000000000000000000000000000000000000000000000000169063ab9c4b5d90610b159088908b908b908a908a908a908a90600401612035565b600060405180830381600087803b158015610b2f57600080fd5b505af1158015610b43573d6000803e3d6000fd5b505050505050505050505050565b7f000000000000000000000000000000000000000000000000000000000000000081565b6000806000806060610b85611b41565b610b9088888b610d2d565b8051602082015160408301516060840151608090940151929d919c509a509198509650945050505050565b6000806000806060610bcb611b41565b610b9088888b6112ea565b7f000000000000000000000000000000000000000000000000000000000000000081565b610c02610cbd565b6000546001600160a01b03908116911614610c2f5760405162461bcd60e51b815260040161033c90612364565b6001600160a01b038116610c555760405162461bcd60e51b815260040161033c9061214d565b600080546040516001600160a01b03808516939216917f8be0079c531659141344cd1fd0a4f28419497f9722a3daafe3b4186f6b6457e091a36000805473ffffffffffffffffffffffffffffffffffffffff19166001600160a01b0392909216919091179055565b3390565b610cc9611b2f565b600082806020019051810190610cdf9190611c4e565b60408051602081019091526001600160a01b039091168152915050919050565b600082820183811015610d245760405162461bcd60e51b815260040161033c90612207565b90505b92915050565b610d35611b41565b6000610d58610d51612710610d4b8660096114c4565b906114fe565b8490611540565b9050836001600160a01b0316856001600160a01b03161415610e24576000610d7f86611582565b60408051600180825281830190925291925060609190602080830190803683370190505090508681600081518110610db357fe5b6001600160a01b039092166020928302919091018201526040805160a08101909152848152908101610df187610d4b87670de0b6b3a76400006114c4565b8152602001610e018988866115fe565b8152602001610e118986866115fe565b81526020018281525093505050506112e3565b60408051600280825260608083018452926020830190803683370190505090508581600081518110610e5257fe5b60200260200101906001600160a01b031690816001600160a01b0316815250508481600181518110610e8057fe5b6001600160a01b0392909216602092830291909101820152604080516003808252608082019092526060928392839291820183803683370190505090507f00000000000000000000000000000000000000000000000000000000000000006001600160a01b0316896001600160a01b031614158015610f3157507f00000000000000000000000000000000000000000000000000000000000000006001600160a01b0316886001600160a01b031614155b1561109d578881600081518110610f4457fe5b60200260200101906001600160a01b031690816001600160a01b0316815250507f000000000000000000000000000000000000000000000000000000000000000081600181518110610f9257fe5b60200260200101906001600160a01b031690816001600160a01b0316815250508781600281518110610fc057fe5b6001600160a01b03928316602091820292909201015260405163d06ca61f60e01b81527f00000000000000000000000000000000000000000000000000000000000000009091169063d06ca61f9061101e90889085906004016123a2565b60006040518083038186803b15801561103657600080fd5b505afa92505050801561106b57506040513d6000823e601f3d908101601f191682016040526110689190810190611e3a565b60015b61109557604080516003808252608082019092529060208201606080368337019050509150611098565b91505b6110bf565b6040805160038082526080820190925290602082016060803683370190505091505b60405163d06ca61f60e01b81526000906001600160a01b037f0000000000000000000000000000000000000000000000000000000000000000169063d06ca61f9061111090899089906004016123a2565b60006040518083038186803b15801561112857600080fd5b505afa92505050801561115d57506040513d6000823e601f3d908101601f1916820160405261115a9190810190611e3a565b60015b61119d5760408051600280825260608201835290916020830190803683370190505093508260028151811061118e57fe5b60200260200101519050611203565b809450846001815181106111ad57fe5b6020026020010151846002815181106111c257fe5b6020026020010151116111e957846001815181106111dc57fe5b60200260200101516111ff565b836002815181106111f657fe5b60200260200101515b9150505b600061120e8b611582565b9050600061121b8b611582565b9050600061125061123085600a86900a6114c4565b610d4b600a85900a61124a8d670de0b6b3a76400006114c4565b906114c4565b90506040518060a001604052808581526020018281526020016112748f8e876115fe565b81526020016112848e87866115fe565b815260200185156112b7578860018151811061129c57fe5b602002602001015186146112b057866112b2565b895b6112d5565b60408051600280825260608201835290916020830190803683375050505b905299505050505050505050505b9392505050565b6112f2611b41565b826001600160a01b0316846001600160a01b031614156113c8576000611329611322612710610d4b8660096114c4565b8490610cff565b9050600061133686611582565b6040805160018082528183019092529192506060919060208083019080368337019050509050868160008151811061136a57fe5b6001600160a01b039092166020928302919091018201526040805160a081019091528481529081016113a885610d4b89670de0b6b3a76400006114c4565b81526020016113b88986866115fe565b8152602001610e118988866115fe565b6060806113d6868686611657565b91509150600061143061140d612710610d4b6009876000815181106113f757fe5b60200260200101516114c490919063ffffffff16565b8460008151811061141a57fe5b6020026020010151610cff90919063ffffffff16565b9050600061143d88611582565b9050600061144a88611582565b9050600061147961145f85600a85900a6114c4565b610d4b600a86900a61124a8c670de0b6b3a76400006114c4565b90506040518060a0016040528085815260200182815260200161149d8c87876115fe565b81526020016114ad8b8b866115fe565b815260200195909552509298975050505050505050565b6000826114d357506000610d27565b828202828482816114e057fe5b0414610d245760405162461bcd60e51b815260040161033c90612307565b6000610d2483836040518060400160405280601a81526020017f536166654d6174683a206469766973696f6e206279207a65726f000000000000815250611a14565b6000610d2483836040518060400160405280601e81526020017f536166654d6174683a207375627472616374696f6e206f766572666c6f770000815250611a4b565b6000816001600160a01b031663313ce5676040518163ffffffff1660e01b815260040160206040518083038186803b1580156115bd57600080fd5b505afa1580156115d1573d6000803e3d6000fd5b505050506040513d601f19601f820116820180604052508101906115f59190611f43565b60ff1692915050565b60008061161e7310f7fc1f91ba351f9c629c5947ad69bd03c05b96611a77565b9050600061162b86611a77565b905061164d670de0b6b3a7640000610d4b8461124a600a89900a838b886114c4565b9695505050505050565b604080516002808252606082810190935282918291816020016020820280368337019050509050858160008151811061168c57fe5b60200260200101906001600160a01b031690816001600160a01b03168152505084816001815181106116ba57fe5b6001600160a01b0392909216602092830291909101820152604080516003808252608082019092526060928392839291820183803683370190505090507f00000000000000000000000000000000000000000000000000000000000000006001600160a01b0316896001600160a01b03161415801561176b57507f00000000000000000000000000000000000000000000000000000000000000006001600160a01b0316886001600160a01b031614155b156118d757888160008151811061177e57fe5b60200260200101906001600160a01b031690816001600160a01b0316815250507f0000000000000000000000000000000000000000000000000000000000000000816001815181106117cc57fe5b60200260200101906001600160a01b031690816001600160a01b03168152505087816002815181106117fa57fe5b6001600160a01b0392831660209182029290920101526040516307c0329d60e21b81527f000000000000000000000000000000000000000000000000000000000000000090911690631f00ca7490611858908a9085906004016123a2565b60006040518083038186803b15801561187057600080fd5b505afa9250505080156118a557506040513d6000823e601f3d908101601f191682016040526118a29190810190611e3a565b60015b6118cf576040805160038082526080820190925290602082016060803683370190505091506118d2565b91505b6118f9565b6040805160038082526080820190925290602082016060803683370190505091505b6040516307c0329d60e21b81526001600160a01b037f00000000000000000000000000000000000000000000000000000000000000001690631f00ca7490611947908a9088906004016123a2565b60006040518083038186803b15801561195f57600080fd5b505afa92505050801561199457506040513d6000823e601f3d908101601f191682016040526119919190810190611e3a565b60015b6119a5579094509250611a0c915050565b809350836000815181106119b557fe5b6020026020010151836000815181106119ca57fe5b60200260200101511080156119f45750826000815181106119e757fe5b6020026020010151600014155b6119ff578385611a02565b82825b9650965050505050505b935093915050565b60008183611a355760405162461bcd60e51b815260040161033c9190612103565b506000838581611a4157fe5b0495945050505050565b60008184841115611a6f5760405162461bcd60e51b815260040161033c9190612103565b505050900390565b6040517fb3596f070000000000000000000000000000000000000000000000000000000081526000906001600160a01b037f0000000000000000000000000000000000000000000000000000000000000000169063b3596f0790611adf908590600401612021565b60206040518083038186803b158015611af757600080fd5b505afa158015611b0b573d6000803e3d6000fd5b505050506040513d601f19601f82011682018060405250810190610d279190611eea565b60408051602081019091526000815290565b6040518060a0016040528060008152602001600081526020016000815260200160008152602001606081525090565b8035610d2781612440565b60008083601f840112611b8c578182fd5b50813567ffffffffffffffff811115611ba3578182fd5b6020830191508360208083028501011115611bbd57600080fd5b9250929050565b600082601f830112611bd4578081fd5b8135611be7611be282612420565b6123f9565b818152915060208083019084810181840286018201871015611c0857600080fd5b60005b84811015611c2757813584529282019290820190600101611c0b565b505050505092915050565b600060208284031215611c43578081fd5b8135610d2481612440565b600060208284031215611c5f578081fd5b8151610d2481612440565b600080600060608486031215611c7e578182fd5b8335611c8981612440565b925060208481013567ffffffffffffffff80821115611ca6578485fd5b818701915087601f830112611cb9578485fd5b8135611cc7611be282612420565b81815284810190848601868402860187018c1015611ce3578889fd5b8895505b83861015611d0d57611cf98c82611b70565b835260019590950194918601918601611ce7565b50965050506040870135925080831115611d25578384fd5b5050611d3386828701611bc4565b9150509250925092565b600080600080600080600080600060a08a8c031215611d5a578485fd5b893567ffffffffffffffff80821115611d71578687fd5b611d7d8d838e01611b7b565b909b50995060208c0135915080821115611d95578687fd5b611da18d838e01611b7b565b909950975060408c0135915080821115611db9578687fd5b611dc58d838e01611b7b565b909750955060608c01359150611dda82612440565b90935060808b01359080821115611def578384fd5b818c0191508c601f830112611e02578384fd5b813581811115611e10578485fd5b8d6020828501011115611e21578485fd5b6020830194508093505050509295985092959850929598565b60006020808385031215611e4c578182fd5b825167ffffffffffffffff811115611e62578283fd5b8301601f81018513611e72578283fd5b8051611e80611be282612420565b8181528381019083850185840285018601891015611e9c578687fd5b8694505b83851015611ebe578051835260019490940193918501918501611ea0565b50979650505050505050565b600060208284031215611edb578081fd5b81518015158114610d24578182fd5b600060208284031215611efb578081fd5b5051919050565b600080600060608486031215611f16578283fd5b833592506020840135611f2881612440565b91506040840135611f3881612440565b809150509250925092565b600060208284031215611f54578081fd5b815160ff81168114610d24578182fd5b6000815180845260208085019450808401835b83811015611f9c5781516001600160a01b031687529582019590820190600101611f77565b509495945050505050565b6000815180845260208085019450808401835b83811015611f9c57815187529582019590820190600101611fba565b60008151808452815b81811015611ffb57602081850181015186830182015201611fdf565b8181111561200c5782602083870101525b50601f01601f19169290920160200192915050565b6001600160a01b0391909116815260200190565b60006001600160a01b03808a16835260e0602084015261205860e084018a611f64565b838103604085015261206a818a611fa7565b9050838103606085015261207e8189611fa7565b9050818716608085015283810360a085015261209a8187611fd6565b9250505061ffff831660c083015298975050505050505050565b6001600160a01b03929092168252602082015260400190565b6001600160a01b03948516815260208101939093526040830191909152909116606082015260800190565b901515815260200190565b600060208252610d246020830184611fd6565b6020808252601b908201527f43414c4c45525f4d5553545f42455f4c454e44494e475f504f4f4c0000000000604082015260600190565b60208082526026908201527f4f776e61626c653a206e6577206f776e657220697320746865207a65726f206160408201527f6464726573730000000000000000000000000000000000000000000000000000606082015260800190565b60208082526027908201527f61737365747320616e6420616d6f756e74732068617665206e6f20657175616c60408201527f206c656e67746800000000000000000000000000000000000000000000000000606082015260800190565b6020808252601b908201527f536166654d6174683a206164646974696f6e206f766572666c6f770000000000604082015260600190565b6020808252601d908201527f43414c4c45525f4d5553545f42455f4c4f4e45534f4d455f534841524b000000604082015260600190565b6020808252818101527f5448495320434f4e545241435420495320464f5220444542544f52204f4e4c59604082015260600190565b6020808252602d908201527f5f73756273637269626572206e6565647320746f206f776e207468652070617960408201527f6261636b20636f6e747261637400000000000000000000000000000000000000606082015260800190565b60208082526021908201527f536166654d6174683a206d756c7469706c69636174696f6e206f766572666c6f60408201527f7700000000000000000000000000000000000000000000000000000000000000606082015260800190565b6020808252818101527f4f776e61626c653a2063616c6c6572206973206e6f7420746865206f776e6572604082015260600190565b90815260200190565b6000838252604060208301526123bb6040830184611f64565b949350505050565b600086825285602083015284604083015283606083015260a060808301526123ee60a0830184611f64565b979650505050505050565b60405181810167ffffffffffffffff8111828210171561241857600080fd5b604052919050565b600067ffffffffffffffff821115612436578081fd5b5060209081020190565b6001600160a01b038116811461245557600080fd5b5056fea26469706673582212203dc24b444121264cc268baad105b85b811f6955edb29b1a295f27dc04d90389e64736f6c634300060c0033a2646970667358221220aaf16520df811fa730489604858b8837c2128716ae845b10ea4a37b73edbb05464736f6c634300060c0033","linkReferences":{},"deployedLinkReferences":{},"network":"kovan","address":"0x9dDc2758D7D1691504F09e95Af70c20B761CdBA6"}