{"_format":"hh-sol-artifact-1","contractName":"Subscribers","sourceName":"contracts/Subscribers.sol","abi":[{"inputs":[{"internalType":"contract ILendingPoolAddressesProvider","name":"_provider","type":"address"},{"internalType":"contract AaveProtocolDataProvider","name":"_aave_provider","type":"address"},{"internalType":"contract IUniswapV2Router02","name":"_uniswapRouter","type":"address"},{"internalType":"address","name":"wethAddress","type":"address"},{"internalType":"address","name":"linkAddress","type":"address"}],"stateMutability":"nonpayable","type":"constructor"},{"inputs":[{"internalType":"uint256","name":"_threshold","type":"uint256"}],"name":"activate","outputs":[],"stateMutability":"payable","type":"function"},{"inputs":[{"internalType":"address","name":"_token","type":"address"}],"name":"approveAsCollateralOnlyIfAllowedInAave","outputs":[],"stateMutability":"nonpayable","type":"function"},{"inputs":[],"name":"getAccount","outputs":[{"components":[{"internalType":"uint256","name":"hf","type":"uint256"},{"internalType":"bool","name":"active","type":"bool"},{"internalType":"address","name":"payback","type":"address"},{"internalType":"uint256","name":"threshold","type":"uint256"},{"internalType":"address[]","name":"collaterals","type":"address[]"}],"internalType":"struct Subscribers.Account","name":"","type":"tuple"}],"stateMutability":"view","type":"function"},{"inputs":[{"internalType":"address","name":"_subscriber","type":"address"}],"name":"getAccount","outputs":[{"components":[{"internalType":"uint256","name":"hf","type":"uint256"},{"internalType":"bool","name":"active","type":"bool"},{"internalType":"address","name":"payback","type":"address"},{"internalType":"uint256","name":"threshold","type":"uint256"},{"internalType":"address[]","name":"collaterals","type":"address[]"}],"internalType":"struct Subscribers.Account","name":"","type":"tuple"}],"stateMutability":"view","type":"function"},{"inputs":[{"internalType":"address","name":"_subscriber","type":"address"}],"name":"getAssetsAndAmounts","outputs":[{"internalType":"address[]","name":"","type":"address[]"},{"internalType":"uint256[]","name":"","type":"uint256[]"}],"stateMutability":"view","type":"function"},{"inputs":[],"name":"getUnhealthySubscribers","outputs":[{"internalType":"address[]","name":"","type":"address[]"}],"stateMutability":"view","type":"function"},{"inputs":[],"name":"getUserData","outputs":[{"components":[{"internalType":"uint256","name":"currentATokenBalance","type":"uint256"},{"internalType":"uint256","name":"currentStableDebt","type":"uint256"},{"internalType":"uint256","name":"currentVariableDebt","type":"uint256"},{"internalType":"uint256","name":"principalStableDebt","type":"uint256"},{"internalType":"uint256","name":"scaledVariableDebt","type":"uint256"},{"internalType":"uint256","name":"stableBorrowRate","type":"uint256"},{"internalType":"uint256","name":"liquidityRate","type":"uint256"},{"internalType":"uint40","name":"stableRateLastUpdated","type":"uint40"},{"internalType":"bool","name":"usageAsCollateralEnabled","type":"bool"},{"internalType":"address","name":"token","type":"address"},{"internalType":"string","name":"symbol","type":"string"}],"internalType":"struct Subscribers.UserReserveData[]","name":"","type":"tuple[]"},{"internalType":"uint256","name":"totalCollateralETH","type":"uint256"},{"internalType":"uint256","name":"totalDebtETH","type":"uint256"},{"internalType":"uint256","name":"availableBorrowsETH","type":"uint256"},{"internalType":"uint256","name":"currentLiquidationThreshold","type":"uint256"},{"internalType":"uint256","name":"ltv","type":"uint256"},{"internalType":"uint256","name":"healthFactor","type":"uint256"}],"stateMutability":"view","type":"function"},{"inputs":[],"name":"monitorSubscribersHealth","outputs":[{"internalType":"bool","name":"needsPayback","type":"bool"}],"stateMutability":"view","type":"function"},{"inputs":[{"internalType":"address","name":"_new","type":"address"}],"name":"updateAdmin","outputs":[],"stateMutability":"nonpayable","type":"function"},{"inputs":[{"internalType":"address","name":"_new","type":"address"}],"name":"updateLoneSomeSharkAddress","outputs":[],"stateMutability":"nonpayable","type":"function"}],"bytecode":"0x6101606040526000196080523480156200001857600080fd5b5060405162004317380380620043178339810160408190526200003b9162000148565b6001600160601b0319606083811b821660c05282811b821660e052600380546001600160a01b0319163317905586901b1660a05260408051630261bf8b60e01b815290516000916001600160a01b03881691630261bf8b91600480820192602092909190829003018186803b158015620000b457600080fd5b505afa158015620000c9573d6000803e3d6000fd5b505050506040513d601f19601f82011682018060405250810190620000ef919062000122565b6001600160601b0319606091821b81166101005294811b8516610140529490941b9092166101205250620001e092505050565b60006020828403121562000134578081fd5b81516200014181620001c7565b9392505050565b600080600080600060a0868803121562000160578081fd5b85516200016d81620001c7565b60208701519095506200018081620001c7565b60408701519094506200019381620001c7565b6060870151909350620001a681620001c7565b6080870151909250620001b981620001c7565b809150509295509295909350565b6001600160a01b0381168114620001dd57600080fd5b50565b60805160a05160601c60c05160601c60e05160601c6101005160601c6101205160601c6101405160601c6140b86200025f60003980610d7d5250806103cb52806104dd528061094b52806109f552508061067f528061083f5280610b3d5280610c8252505080610d9f525080610d5c5250806102ef52506140b86000f3fe608060405260043610620000c25760003560e01c8063aa7a3e961162000073578063db613e811162000055578063db613e8114620001e3578063e2f273bd146200020a578063fbcbc0f1146200022f57620000c2565b8063aa7a3e9614620001a5578063b260c42a14620001cc57620000c2565b80632ecc030811620000a95780632ecc03081462000124578063815a86bc1462000149578063a661cc58146200017057620000c2565b806309a895be14620000c757806322e8c87d14620000ee575b600080fd5b348015620000d457600080fd5b50620000ec620000e636600462001190565b62000254565b005b348015620000fb57600080fd5b5062000106620003bc565b6040516200011b9796959493929190620015f3565b60405180910390f35b3480156200013157600080fd5b50620000ec6200014336600462001190565b62000721565b3480156200015657600080fd5b50620001616200077d565b6040516200011b919062001584565b3480156200017d57600080fd5b50620001956200018f36600462001190565b62000944565b6040516200011b92919062001599565b348015620001b257600080fd5b50620001bd62000acb565b6040516200011b91906200167f565b620000ec620001dd36600462001310565b62000c12565b348015620001f057600080fd5b50620001fb62000eb3565b6040516200011b91906200186b565b3480156200021757600080fd5b50620000ec6200022936600462001190565b62000f6e565b3480156200023c57600080fd5b50620001fb6200024e36600462001190565b62000ff3565b3360009081526020819052604090206001015460ff16620002925760405162461bcd60e51b815260040162000289906200178f565b60405180910390fd5b33600090815260208190526040908190206001015490517f095ea7b30000000000000000000000000000000000000000000000000000000081526001600160a01b038084169263095ea7b3926200031892610100909204909116907f0000000000000000000000000000000000000000000000000000000000000000906004016200156b565b602060405180830381600087803b1580156200033357600080fd5b505af115801562000348573d6000803e3d6000fd5b505050506040513d601f19601f820116820180604052508101906200036e9190620012ee565b503360009081526020818152604082206003018054600181018255908352912001805473ffffffffffffffffffffffffffffffffffffffff19166001600160a01b0392909216919091179055565b606060008060008060008060607f00000000000000000000000000000000000000000000000000000000000000006001600160a01b031663b316ff896040518163ffffffff1660e01b815260040160006040518083038186803b1580156200042357600080fd5b505afa15801562000438573d6000803e3d6000fd5b505050506040513d6000823e601f3d908101601f19168201604052620004629190810190620011b6565b90506060815167ffffffffffffffff811180156200047f57600080fd5b50604051908082528060200260200182016040528015620004bd57816020015b620004a9620010dc565b8152602001906001900390816200049f5790505b50905060005b8251811015620006675760008060008060008060008060007f00000000000000000000000000000000000000000000000000000000000000006001600160a01b03166328dd2d018d8c815181106200051757fe5b602002602001015160200151336040518363ffffffff1660e01b81526004016200054392919062001551565b6101206040518083038186803b1580156200055d57600080fd5b505afa15801562000572573d6000803e3d6000fd5b505050506040513d601f19601f8201168201806040525081019062000598919062001373565b9850985098509850985098509850985098506040518061016001604052808a81526020018981526020018881526020018781526020018681526020018581526020018481526020018364ffffffffff16815260200182151581526020018d8c815181106200060257fe5b6020026020010151602001516001600160a01b031681526020018d8c815181106200062957fe5b6020026020010151600001518152508b8b815181106200064557fe5b60200260200101819052505050505050505050508080600101915050620004c3565b50604051632fe4a15f60e21b81526001600160a01b037f0000000000000000000000000000000000000000000000000000000000000000169063bf92857c90620006b69033906004016200153d565b60c06040518083038186803b158015620006cf57600080fd5b505afa158015620006e4573d6000803e3d6000fd5b505050506040513d601f19601f820116820180604052508101906200070a919062001329565b959e949d50929b5090995097509550909350915050565b6003546001600160a01b031633146200074e5760405162461bcd60e51b8152600401620002899062001834565b6002805473ffffffffffffffffffffffffffffffffffffffff19166001600160a01b0392909216919091179055565b60606000606060018054905067ffffffffffffffff81118015620007a057600080fd5b50604051908082528060200260200182016040528015620007cb578160200160208202803683370190505b50905060005b60015460ff821610156200093d57600060018260ff1681548110620007f257fe5b60009182526020808320909101546001600160a01b03168083529082905260409091206001015490915060ff16156200093357604051632fe4a15f60e21b81526000906001600160a01b037f0000000000000000000000000000000000000000000000000000000000000000169063bf92857c90620008769085906004016200153d565b60c06040518083038186803b1580156200088f57600080fd5b505afa158015620008a4573d6000803e3d6000fd5b505050506040513d601f19601f82011682018060405250810190620008ca919062001329565b6001600160a01b0388166000908152602081905260409020600201549096508611945062000931935050505057848060010195505081848660ff16815181106200091057fe5b60200260200101906001600160a01b031690816001600160a01b0316815250505b505b50600101620007d1565b5091505090565b60608060607f00000000000000000000000000000000000000000000000000000000000000006001600160a01b031663b316ff896040518163ffffffff1660e01b815260040160006040518083038186803b158015620009a357600080fd5b505afa158015620009b8573d6000803e3d6000fd5b505050506040513d6000823e601f3d908101601f19168201604052620009e29190810190620011b6565b905060005b815181101562000ac45760007f00000000000000000000000000000000000000000000000000000000000000006001600160a01b03166328dd2d0184848151811062000a2f57fe5b602002602001015160200151886040518363ffffffff1660e01b815260040162000a5b92919062001551565b6101206040518083038186803b15801562000a7557600080fd5b505afa15801562000a8a573d6000803e3d6000fd5b505050506040513d601f19601f8201168201806040525081019062000ab0919062001373565b9850505050505050505050600101620009e7565b5050915091565b6000805b60015460ff8216101562000c0e57600060018260ff168154811062000af057fe5b60009182526020808320909101546001600160a01b03168083529082905260409091206001015490915060ff161562000c0457604051632fe4a15f60e21b81526000906001600160a01b037f0000000000000000000000000000000000000000000000000000000000000000169063bf92857c9062000b749085906004016200153d565b60c06040518083038186803b15801562000b8d57600080fd5b505afa15801562000ba2573d6000803e3d6000fd5b505050506040513d601f19601f8201168201806040525081019062000bc8919062001329565b6001600160a01b038816600090815260208190526040902060020154909650861015945062000c0293505050505760019350505062000c0e565b505b5060010162000acf565b5090565b670de0b6b3a764000081101562000c3d5760405162461bcd60e51b81526004016200028990620017c6565b670e043da61725000081111562000c685760405162461bcd60e51b8152600401620002899062001758565b604051632fe4a15f60e21b81526000906001600160a01b037f0000000000000000000000000000000000000000000000000000000000000000169063bf92857c9062000cb99033906004016200153d565b60c06040518083038186803b15801562000cd257600080fd5b505afa15801562000ce7573d6000803e3d6000fd5b505050506040513d601f19601f8201168201806040525081019062000d0d919062001329565b3360009081526020819052604090208181556001808201805460ff191690911790819055600290910189905590965061010090046001600160a01b03161515945062000e6193505050505760007f00000000000000000000000000000000000000000000000000000000000000007f0000000000000000000000000000000000000000000000000000000000000000307f0000000000000000000000000000000000000000000000000000000000000000600260009054906101000a90046001600160a01b03163360405162000de39062001148565b62000df4969594939291906200168a565b604051809103906000f08015801562000e11573d6000803e3d6000fd5b5033600090815260208190526040902060010180546001600160a01b03909216610100027fffffffffffffffffffffff0000000000000000000000000000000000000000ff909216919091179055505b50506001805480820182556000919091527fb10e2d527612073b26eecdfd717e6a320cf44b4afac2b0732d9fcbe2b7fa0cf601805473ffffffffffffffffffffffffffffffffffffffff191633179055565b62000ebd62001156565b3360009081526020818152604091829020825160a08101845281548152600182015460ff811615158285015261010090046001600160a01b03168185015260028201546060820152600382018054855181860281018601909652808652919492936080860193929083018282801562000f6057602002820191906000526020600020905b81546001600160a01b0316815260019091019060200180831162000f41575b505050505081525050905090565b6001600160a01b03811662000f975760405162461bcd60e51b81526004016200028990620017fd565b6003546001600160a01b0316331462000fc45760405162461bcd60e51b81526004016200028990620016c4565b6003805473ffffffffffffffffffffffffffffffffffffffff19166001600160a01b0392909216919091179055565b62000ffd62001156565b6001600160a01b038216620010265760405162461bcd60e51b8152600401620002899062001721565b6001600160a01b0380831660009081526020818152604091829020825160a08101845281548152600182015460ff81161515828501526101009004909416848401526002810154606085015260038101805484518185028101850190955280855291936080860193909290830182828015620010cc57602002820191906000526020600020905b81546001600160a01b03168152600190910190602001808311620010ad575b5050505050815250509050919050565b60405180610160016040528060008152602001600081526020016000815260200160008152602001600081526020016000815260200160008152602001600064ffffffffff16815260200160001515815260200160006001600160a01b03168152602001606081525090565b612726806200195d83390190565b6040518060a001604052806000815260200160001515815260200160006001600160a01b0316815260200160008152602001606081525090565b600060208284031215620011a2578081fd5b8135620011af8162001943565b9392505050565b60006020808385031215620011c9578182fd5b825167ffffffffffffffff80821115620011e1578384fd5b818501915085601f830112620011f5578384fd5b81518181111562001204578485fd5b620012138485830201620018c3565b81815284810190848601875b84811015620012df57815187016040818d03601f190112156200124057898afd5b6200124c6040620018c3565b89820151888111156200125d578b8cfd5b8201603f81018e136200126e578b8cfd5b8a810151620012876200128182620018eb565b620018c3565b8181528f60408385010111156200129c578d8efd5b620012ae828e83016040860162001910565b835250506040919091015190620012c58262001943565b808a0191909152845292870192908701906001016200121f565b50909998505050505050505050565b60006020828403121562001300578081fd5b81518015158114620011af578182fd5b60006020828403121562001322578081fd5b5035919050565b60008060008060008060c0878903121562001342578182fd5b865195506020870151945060408701519350606087015192506080870151915060a087015190509295509295509295565b60008060008060008060008060006101208a8c03121562001392578283fd5b8951985060208a0151975060408a0151965060608a0151955060808a0151945060a08a0151935060c08a0151925060e08a015164ffffffffff81168114620013d8578283fd5b6101008b01519092508015158114620013ef578182fd5b809150509295985092959850929598565b6001600160a01b03169052565b6000815180845260208085019450808401835b83811015620014475781516001600160a01b03168752958201959082019060010162001420565b509495945050505050565b15159052565b600081518084526200147281602086016020860162001910565b601f01601f19169290920160200192915050565b6000610160825184526020830151602085015260408301516040850152606083015160608501526080830151608085015260a083015160a085015260c083015160c085015260e0830151620014df60e086018262001532565b5061010080840151620014f58287018262001452565b5050610120808401516200150c8287018262001400565b5050610140808401518282870152620015288387018262001458565b9695505050505050565b64ffffffffff169052565b6001600160a01b0391909116815260200190565b6001600160a01b0392831681529116602082015260400190565b6001600160a01b03929092168252602082015260400190565b600060208252620011af60208301846200140d565b600060408252620015ae60408301856200140d565b828103602084810191909152845180835285820192820190845b81811015620015e657845183529383019391830191600101620015c8565b5090979650505050505050565b60e08082528851908201819052600090602080820284016101009081019290850191808d01855b838110156200164c5760ff198887030185526200163986835162001486565b955093820193908201906001016200161a565b505085019a909a52506040830197909752506060810194909452608084019290925260a083015260c09091015292915050565b901515815260200190565b6001600160a01b0396871681529486166020860152928516604085015290841660608401528316608083015290911660a082015260c00190565b60208082526024908201527f6f6e6c792061646d696e20616c6c6f77656420746f207472616e73666572206160408201527f646d696e00000000000000000000000000000000000000000000000000000000606082015260800190565b60208082526013908201527f61646472657373206e6f742070726573656e7400000000000000000000000000604082015260600190565b6020808252601d908201527f7468726573686f6c6420746f6f20686967682c2061626f766520312e31000000604082015260600190565b60208082526014908201527f4e45454420544f20424520414354495641544544000000000000000000000000604082015260600190565b60208082526011908201527f7468726573686f6c642062656c6f772031000000000000000000000000000000604082015260600190565b60208082526012908201527f6e6565642076616c696420616464726573730000000000000000000000000000604082015260600190565b60208082526015908201527f6f6e6c792061646d696e2063616e207570646174650000000000000000000000604082015260600190565b600060208252825160208301526020830151151560408301526001600160a01b03604084015116606083015260608301516080830152608083015160a080840152620018bb60c08401826200140d565b949350505050565b60405181810167ffffffffffffffff81118282101715620018e357600080fd5b604052919050565b600067ffffffffffffffff82111562001902578081fd5b50601f01601f191660200190565b60005b838110156200192d57818101518382015260200162001913565b838111156200193d576000848401525b50505050565b6001600160a01b03811681146200195957600080fd5b5056fe6101606040523480156200001257600080fd5b506040516200272638038062002726833981016040819052620000359162000235565b85858482806001600160a01b03166080816001600160a01b031660601b81525050806001600160a01b0316630261bf8b6040518163ffffffff1660e01b815260040160206040518083038186803b1580156200009057600080fd5b505afa158015620000a5573d6000803e3d6000fd5b505050506040513d601f19601f82011682018060405250810190620000cb91906200020f565b60601b6001600160601b03191660a052506000620000e86200020b565b600080546001600160a01b0319166001600160a01b0383169081178255604051929350917f8be0079c531659141344cd1fd0a4f28419497f9722a3daafe3b4186f6b6457e0908290a350826001600160a01b031663fca513a86040518163ffffffff1660e01b815260040160206040518083038186803b1580156200016c57600080fd5b505afa15801562000181573d6000803e3d6000fd5b505050506040513d601f19601f82011682018060405250810190620001a791906200020f565b606090811b6001600160601b031990811660e05292811b83166101005290811b821660c052600180546001600160a01b0319166001600160a01b03989098169790971790965592851b8316610120525090921b9091166101405250620002e1915050565b3390565b60006020828403121562000221578081fd5b81516200022e81620002c8565b9392505050565b60008060008060008060c087890312156200024e578182fd5b86516200025b81620002c8565b60208801519096506200026e81620002c8565b60408801519095506200028181620002c8565b60608801519094506200029481620002c8565b6080880151909350620002a781620002c8565b60a0880151909250620002ba81620002c8565b809150509295509295509295565b6001600160a01b0381168114620002de57600080fd5b50565b60805160601c60a05160601c60c05160601c60e05160601c6101005160601c6101205160601c6101405160601c61238c6200039a6000398061050d52508061086a525080610ad65280610ee35280610fd7528061171d528061180e5250806103bb52806119a85250806103685280610dbd5280610dfa5280610e6452806115f75280611634528061169e525080610485528061059d5280610641528061079b52806109d25280610a5152508061038c525061238c6000f3fe608060405234801561001057600080fd5b50600436106100ff5760003560e01c8063920f5c8411610097578063baf7fa9911610066578063baf7fa99146101b7578063cdf58cd6146101db578063d8264920146101ee578063f2fde38b146101f6576100ff565b8063920f5c84146101745780639d1211bf14610194578063b485b7ea1461019c578063b4dcfc77146101af576100ff565b806332e4b286116100d357806332e4b2861461015457806338013f021461015c578063715018a6146101645780638da5cb5b1461016c576100ff565b8062ae3bf814610104578063040141e5146101195780630542975c14610137578063074b2e431461013f575b600080fd5b610117610112366004611b30565b610209565b005b610121610366565b60405161012e9190611f1f565b60405180910390f35b61012161038a565b6101476103ae565b60405161012e9190612297565b6101476103b3565b6101216103b9565b6101176103dd565b610121610469565b610187610182366004611c3b565b610478565b60405161012e9190611ff6565b610121610847565b6101176101aa366004611b68565b61085f565b610121610a4f565b6101ca6101c5366004611e00565b610a73565b60405161012e9594939291906122c1565b6101ca6101e9366004611e00565b610ab9565b610121610ad4565b610117610204366004611b30565b610af8565b610211610bbb565b6000546001600160a01b039081169116146102475760405162461bcd60e51b815260040161023e90612262565b60405180910390fd5b806001600160a01b031663a9059cbb61025e610469565b6040517f70a082310000000000000000000000000000000000000000000000000000000081526001600160a01b038516906370a08231906102a3903090600401611f1f565b60206040518083038186803b1580156102bb57600080fd5b505afa1580156102cf573d6000803e3d6000fd5b505050506040513d601f19601f820116820180604052508101906102f39190611de8565b6040518363ffffffff1660e01b8152600401610310929190611fb2565b602060405180830381600087803b15801561032a57600080fd5b505af115801561033e573d6000803e3d6000fd5b505050506040513d601f19601f820116820180604052508101906103629190611dc8565b5050565b7f000000000000000000000000000000000000000000000000000000000000000081565b7f000000000000000000000000000000000000000000000000000000000000000081565b600981565b610bb881565b7f000000000000000000000000000000000000000000000000000000000000000081565b6103e5610bbb565b6000546001600160a01b039081169116146104125760405162461bcd60e51b815260040161023e90612262565b600080546040516001600160a01b03909116907f8be0079c531659141344cd1fd0a4f28419497f9722a3daafe3b4186f6b6457e0908390a36000805473ffffffffffffffffffffffffffffffffffffffff19169055565b6000546001600160a01b031690565b6000336001600160a01b037f000000000000000000000000000000000000000000000000000000000000000016146104c25760405162461bcd60e51b815260040161023e90612014565b6104ca611a2d565b61050984848080601f016020809104026020016040519081016040528093929190818152602001838380828437600092019190915250610bbf92505050565b90507f00000000000000000000000000000000000000000000000000000000000000006001600160a01b031681600001516001600160a01b0316146105605760405162461bcd60e51b815260040161023e90612173565b3060005b8b811015610723578c8c8281811061057857fe5b905060200201602081019061058d9190611b30565b6001600160a01b031663095ea7b37f00000000000000000000000000000000000000000000000000000000000000008d8d858181106105c857fe5b905060200201356040518363ffffffff1660e01b81526004016105ec929190611fb2565b602060405180830381600087803b15801561060657600080fd5b505af115801561061a573d6000803e3d6000fd5b505050506040513d601f19601f8201168201806040525081019061063e9190611dc8565b507f00000000000000000000000000000000000000000000000000000000000000006001600160a01b031663573ade818e8e8481811061067a57fe5b905060200201602081019061068f9190611b30565b8d8d8581811061069b57fe5b90506020020135600187600001516040518563ffffffff1660e01b81526004016106c89493929190611fcb565b602060405180830381600087803b1580156106e257600080fd5b505af11580156106f6573d6000803e3d6000fd5b505050506040513d601f19601f8201168201806040525081019061071a9190611de8565b50600101610564565b5060005b8b8110156108345760006107688a8a8481811061074057fe5b905060200201358d8d8581811061075357fe5b90506020020135610bfd90919063ffffffff16565b90508d8d8381811061077657fe5b905060200201602081019061078b9190611b30565b6001600160a01b031663095ea7b37f0000000000000000000000000000000000000000000000000000000000000000836040518363ffffffff1660e01b81526004016107d8929190611fb2565b602060405180830381600087803b1580156107f257600080fd5b505af1158015610806573d6000803e3d6000fd5b505050506040513d601f19601f8201168201806040525081019061082a9190611dc8565b5050600101610727565b5060019c9b505050505050505050505050565b7310f7fc1f91ba351f9c629c5947ad69bd03c05b9681565b336001600160a01b037f000000000000000000000000000000000000000000000000000000000000000016146108a75760405162461bcd60e51b815260040161023e9061213c565b6108af610469565b6001600160a01b0316836001600160a01b0316146108df5760405162461bcd60e51b815260040161023e906121a8565b80518251146109005760405162461bcd60e51b815260040161023e906120a8565b8051309060609067ffffffffffffffff8111801561091d57600080fd5b50604051908082528060200260200182016040528015610947578160200160208202803683370190505b50905060005b84518110156109785760008260008151811061096557fe5b602090810291909101015260010161094d565b50604051309060609061098f908890602001611f1f565b60408051601f19818403018152908290527fab9c4b5d00000000000000000000000000000000000000000000000000000000825291506000906001600160a01b037f0000000000000000000000000000000000000000000000000000000000000000169063ab9c4b5d90610a139088908b908b908a908a908a908a90600401611f33565b600060405180830381600087803b158015610a2d57600080fd5b505af1158015610a41573d6000803e3d6000fd5b505050505050505050505050565b7f000000000000000000000000000000000000000000000000000000000000000081565b6000806000806060610a83611a3f565b610a8e88888b610c2b565b8051602082015160408301516060840151608090940151929d919c509a509198509650945050505050565b6000806000806060610ac9611a3f565b610a8e88888b6111e8565b7f000000000000000000000000000000000000000000000000000000000000000081565b610b00610bbb565b6000546001600160a01b03908116911614610b2d5760405162461bcd60e51b815260040161023e90612262565b6001600160a01b038116610b535760405162461bcd60e51b815260040161023e9061204b565b600080546040516001600160a01b03808516939216917f8be0079c531659141344cd1fd0a4f28419497f9722a3daafe3b4186f6b6457e091a36000805473ffffffffffffffffffffffffffffffffffffffff19166001600160a01b0392909216919091179055565b3390565b610bc7611a2d565b600082806020019051810190610bdd9190611b4c565b60408051602081019091526001600160a01b039091168152915050919050565b600082820183811015610c225760405162461bcd60e51b815260040161023e90612105565b90505b92915050565b610c33611a3f565b6000610c56610c4f612710610c498660096113c2565b906113fc565b849061143e565b9050836001600160a01b0316856001600160a01b03161415610d22576000610c7d86611480565b60408051600180825281830190925291925060609190602080830190803683370190505090508681600081518110610cb157fe5b6001600160a01b039092166020928302919091018201526040805160a08101909152848152908101610cef87610c4987670de0b6b3a76400006113c2565b8152602001610cff8988866114fc565b8152602001610d0f8986866114fc565b81526020018281525093505050506111e1565b60408051600280825260608083018452926020830190803683370190505090508581600081518110610d5057fe5b60200260200101906001600160a01b031690816001600160a01b0316815250508481600181518110610d7e57fe5b6001600160a01b0392909216602092830291909101820152604080516003808252608082019092526060928392839291820183803683370190505090507f00000000000000000000000000000000000000000000000000000000000000006001600160a01b0316896001600160a01b031614158015610e2f57507f00000000000000000000000000000000000000000000000000000000000000006001600160a01b0316886001600160a01b031614155b15610f9b578881600081518110610e4257fe5b60200260200101906001600160a01b031690816001600160a01b0316815250507f000000000000000000000000000000000000000000000000000000000000000081600181518110610e9057fe5b60200260200101906001600160a01b031690816001600160a01b0316815250508781600281518110610ebe57fe5b6001600160a01b03928316602091820292909201015260405163d06ca61f60e01b81527f00000000000000000000000000000000000000000000000000000000000000009091169063d06ca61f90610f1c90889085906004016122a0565b60006040518083038186803b158015610f3457600080fd5b505afa925050508015610f6957506040513d6000823e601f3d908101601f19168201604052610f669190810190611d38565b60015b610f9357604080516003808252608082019092529060208201606080368337019050509150610f96565b91505b610fbd565b6040805160038082526080820190925290602082016060803683370190505091505b60405163d06ca61f60e01b81526000906001600160a01b037f0000000000000000000000000000000000000000000000000000000000000000169063d06ca61f9061100e90899089906004016122a0565b60006040518083038186803b15801561102657600080fd5b505afa92505050801561105b57506040513d6000823e601f3d908101601f191682016040526110589190810190611d38565b60015b61109b5760408051600280825260608201835290916020830190803683370190505093508260028151811061108c57fe5b60200260200101519050611101565b809450846001815181106110ab57fe5b6020026020010151846002815181106110c057fe5b6020026020010151116110e757846001815181106110da57fe5b60200260200101516110fd565b836002815181106110f457fe5b60200260200101515b9150505b600061110c8b611480565b905060006111198b611480565b9050600061114e61112e85600a86900a6113c2565b610c49600a85900a6111488d670de0b6b3a76400006113c2565b906113c2565b90506040518060a001604052808581526020018281526020016111728f8e876114fc565b81526020016111828e87866114fc565b815260200185156111b5578860018151811061119a57fe5b602002602001015186146111ae57866111b0565b895b6111d3565b60408051600280825260608201835290916020830190803683375050505b905299505050505050505050505b9392505050565b6111f0611a3f565b826001600160a01b0316846001600160a01b031614156112c6576000611227611220612710610c498660096113c2565b8490610bfd565b9050600061123486611480565b6040805160018082528183019092529192506060919060208083019080368337019050509050868160008151811061126857fe5b6001600160a01b039092166020928302919091018201526040805160a081019091528481529081016112a685610c4989670de0b6b3a76400006113c2565b81526020016112b68986866114fc565b8152602001610d0f8988866114fc565b6060806112d4868686611555565b91509150600061132e61130b612710610c496009876000815181106112f557fe5b60200260200101516113c290919063ffffffff16565b8460008151811061131857fe5b6020026020010151610bfd90919063ffffffff16565b9050600061133b88611480565b9050600061134888611480565b9050600061137761135d85600a85900a6113c2565b610c49600a86900a6111488c670de0b6b3a76400006113c2565b90506040518060a0016040528085815260200182815260200161139b8c87876114fc565b81526020016113ab8b8b866114fc565b815260200195909552509298975050505050505050565b6000826113d157506000610c25565b828202828482816113de57fe5b0414610c225760405162461bcd60e51b815260040161023e90612205565b6000610c2283836040518060400160405280601a81526020017f536166654d6174683a206469766973696f6e206279207a65726f000000000000815250611912565b6000610c2283836040518060400160405280601e81526020017f536166654d6174683a207375627472616374696f6e206f766572666c6f770000815250611949565b6000816001600160a01b031663313ce5676040518163ffffffff1660e01b815260040160206040518083038186803b1580156114bb57600080fd5b505afa1580156114cf573d6000803e3d6000fd5b505050506040513d601f19601f820116820180604052508101906114f39190611e41565b60ff1692915050565b60008061151c7310f7fc1f91ba351f9c629c5947ad69bd03c05b96611975565b9050600061152986611975565b905061154b670de0b6b3a7640000610c4984611148600a89900a838b886113c2565b9695505050505050565b604080516002808252606082810190935282918291816020016020820280368337019050509050858160008151811061158a57fe5b60200260200101906001600160a01b031690816001600160a01b03168152505084816001815181106115b857fe5b6001600160a01b0392909216602092830291909101820152604080516003808252608082019092526060928392839291820183803683370190505090507f00000000000000000000000000000000000000000000000000000000000000006001600160a01b0316896001600160a01b03161415801561166957507f00000000000000000000000000000000000000000000000000000000000000006001600160a01b0316886001600160a01b031614155b156117d557888160008151811061167c57fe5b60200260200101906001600160a01b031690816001600160a01b0316815250507f0000000000000000000000000000000000000000000000000000000000000000816001815181106116ca57fe5b60200260200101906001600160a01b031690816001600160a01b03168152505087816002815181106116f857fe5b6001600160a01b0392831660209182029290920101526040516307c0329d60e21b81527f000000000000000000000000000000000000000000000000000000000000000090911690631f00ca7490611756908a9085906004016122a0565b60006040518083038186803b15801561176e57600080fd5b505afa9250505080156117a357506040513d6000823e601f3d908101601f191682016040526117a09190810190611d38565b60015b6117cd576040805160038082526080820190925290602082016060803683370190505091506117d0565b91505b6117f7565b6040805160038082526080820190925290602082016060803683370190505091505b6040516307c0329d60e21b81526001600160a01b037f00000000000000000000000000000000000000000000000000000000000000001690631f00ca7490611845908a9088906004016122a0565b60006040518083038186803b15801561185d57600080fd5b505afa92505050801561189257506040513d6000823e601f3d908101601f1916820160405261188f9190810190611d38565b60015b6118a357909450925061190a915050565b809350836000815181106118b357fe5b6020026020010151836000815181106118c857fe5b60200260200101511080156118f25750826000815181106118e557fe5b6020026020010151600014155b6118fd578385611900565b82825b9650965050505050505b935093915050565b600081836119335760405162461bcd60e51b815260040161023e9190612001565b50600083858161193f57fe5b0495945050505050565b6000818484111561196d5760405162461bcd60e51b815260040161023e9190612001565b505050900390565b6040517fb3596f070000000000000000000000000000000000000000000000000000000081526000906001600160a01b037f0000000000000000000000000000000000000000000000000000000000000000169063b3596f07906119dd908590600401611f1f565b60206040518083038186803b1580156119f557600080fd5b505afa158015611a09573d6000803e3d6000fd5b505050506040513d601f19601f82011682018060405250810190610c259190611de8565b60408051602081019091526000815290565b6040518060a0016040528060008152602001600081526020016000815260200160008152602001606081525090565b8035610c258161233e565b60008083601f840112611a8a578182fd5b50813567ffffffffffffffff811115611aa1578182fd5b6020830191508360208083028501011115611abb57600080fd5b9250929050565b600082601f830112611ad2578081fd5b8135611ae5611ae08261231e565b6122f7565b818152915060208083019084810181840286018201871015611b0657600080fd5b60005b84811015611b2557813584529282019290820190600101611b09565b505050505092915050565b600060208284031215611b41578081fd5b8135610c228161233e565b600060208284031215611b5d578081fd5b8151610c228161233e565b600080600060608486031215611b7c578182fd5b8335611b878161233e565b925060208481013567ffffffffffffffff80821115611ba4578485fd5b818701915087601f830112611bb7578485fd5b8135611bc5611ae08261231e565b81815284810190848601868402860187018c1015611be1578889fd5b8895505b83861015611c0b57611bf78c82611a6e565b835260019590950194918601918601611be5565b50965050506040870135925080831115611c23578384fd5b5050611c3186828701611ac2565b9150509250925092565b600080600080600080600080600060a08a8c031215611c58578485fd5b893567ffffffffffffffff80821115611c6f578687fd5b611c7b8d838e01611a79565b909b50995060208c0135915080821115611c93578687fd5b611c9f8d838e01611a79565b909950975060408c0135915080821115611cb7578687fd5b611cc38d838e01611a79565b909750955060608c01359150611cd88261233e565b90935060808b01359080821115611ced578384fd5b818c0191508c601f830112611d00578384fd5b813581811115611d0e578485fd5b8d6020828501011115611d1f578485fd5b6020830194508093505050509295985092959850929598565b60006020808385031215611d4a578182fd5b825167ffffffffffffffff811115611d60578283fd5b8301601f81018513611d70578283fd5b8051611d7e611ae08261231e565b8181528381019083850185840285018601891015611d9a578687fd5b8694505b83851015611dbc578051835260019490940193918501918501611d9e565b50979650505050505050565b600060208284031215611dd9578081fd5b81518015158114610c22578182fd5b600060208284031215611df9578081fd5b5051919050565b600080600060608486031215611e14578283fd5b833592506020840135611e268161233e565b91506040840135611e368161233e565b809150509250925092565b600060208284031215611e52578081fd5b815160ff81168114610c22578182fd5b6000815180845260208085019450808401835b83811015611e9a5781516001600160a01b031687529582019590820190600101611e75565b509495945050505050565b6000815180845260208085019450808401835b83811015611e9a57815187529582019590820190600101611eb8565b60008151808452815b81811015611ef957602081850181015186830182015201611edd565b81811115611f0a5782602083870101525b50601f01601f19169290920160200192915050565b6001600160a01b0391909116815260200190565b60006001600160a01b03808a16835260e06020840152611f5660e084018a611e62565b8381036040850152611f68818a611ea5565b90508381036060850152611f7c8189611ea5565b9050818716608085015283810360a0850152611f988187611ed4565b9250505061ffff831660c083015298975050505050505050565b6001600160a01b03929092168252602082015260400190565b6001600160a01b03948516815260208101939093526040830191909152909116606082015260800190565b901515815260200190565b600060208252610c226020830184611ed4565b6020808252601b908201527f43414c4c45525f4d5553545f42455f4c454e44494e475f504f4f4c0000000000604082015260600190565b60208082526026908201527f4f776e61626c653a206e6577206f776e657220697320746865207a65726f206160408201527f6464726573730000000000000000000000000000000000000000000000000000606082015260800190565b60208082526027908201527f61737365747320616e6420616d6f756e74732068617665206e6f20657175616c60408201527f206c656e67746800000000000000000000000000000000000000000000000000606082015260800190565b6020808252601b908201527f536166654d6174683a206164646974696f6e206f766572666c6f770000000000604082015260600190565b6020808252601d908201527f43414c4c45525f4d5553545f42455f4c4f4e45534f4d455f534841524b000000604082015260600190565b6020808252818101527f5448495320434f4e545241435420495320464f5220444542544f52204f4e4c59604082015260600190565b6020808252602d908201527f5f73756273637269626572206e6565647320746f206f776e207468652070617960408201527f6261636b20636f6e747261637400000000000000000000000000000000000000606082015260800190565b60208082526021908201527f536166654d6174683a206d756c7469706c69636174696f6e206f766572666c6f60408201527f7700000000000000000000000000000000000000000000000000000000000000606082015260800190565b6020808252818101527f4f776e61626c653a2063616c6c6572206973206e6f7420746865206f776e6572604082015260600190565b90815260200190565b6000838252604060208301526122b96040830184611e62565b949350505050565b600086825285602083015284604083015283606083015260a060808301526122ec60a0830184611e62565b979650505050505050565b60405181810167ffffffffffffffff8111828210171561231657600080fd5b604052919050565b600067ffffffffffffffff821115612334578081fd5b5060209081020190565b6001600160a01b038116811461235357600080fd5b5056fea2646970667358221220ab2b64588856c470cde21360ce42a589636ececf9a67b98c3f8bcdb74219cde464736f6c634300060c0033a264697066735822122073b0a5df6d6a2556316615a74ac6578f9a1c580460ed344d0067aea89236615a64736f6c634300060c0033","linkReferences":{},"deployedLinkReferences":{},"network":"kovan","address":"0x9FC6A5E17810BEF693B77c9fD47bAD58FF491A16"}