{"_format":"hh-sol-artifact-1","contractName":"Subscribers","sourceName":"contracts/Subscribers.sol","abi":[{"inputs":[{"internalType":"contract ILendingPoolAddressesProvider","name":"_provider","type":"address"},{"internalType":"contract AaveProtocolDataProvider","name":"_aave_provider","type":"address"},{"internalType":"contract IUniswapV2Router02","name":"_uniswapRouter","type":"address"},{"internalType":"address","name":"wethAddress","type":"address"},{"internalType":"address","name":"linkAddress","type":"address"}],"stateMutability":"nonpayable","type":"constructor"},{"inputs":[{"internalType":"uint256","name":"_threshold","type":"uint256"}],"name":"activate","outputs":[],"stateMutability":"payable","type":"function"},{"inputs":[],"name":"getAccount","outputs":[{"components":[{"internalType":"uint256","name":"hf","type":"uint256"},{"internalType":"bool","name":"active","type":"bool"},{"internalType":"address","name":"payback","type":"address"},{"internalType":"uint256","name":"threshold","type":"uint256"}],"internalType":"struct Subscribers.Account","name":"_account","type":"tuple"}],"stateMutability":"view","type":"function"},{"inputs":[{"internalType":"address","name":"_subscriber","type":"address"}],"name":"getAccount","outputs":[{"components":[{"internalType":"uint256","name":"hf","type":"uint256"},{"internalType":"bool","name":"active","type":"bool"},{"internalType":"address","name":"payback","type":"address"},{"internalType":"uint256","name":"threshold","type":"uint256"}],"internalType":"struct Subscribers.Account","name":"_account","type":"tuple"}],"stateMutability":"view","type":"function"},{"inputs":[{"internalType":"address","name":"_subscriber","type":"address"}],"name":"getAssetsAndAmounts","outputs":[{"internalType":"address[]","name":"","type":"address[]"},{"internalType":"uint256[]","name":"","type":"uint256[]"}],"stateMutability":"view","type":"function"},{"inputs":[],"name":"getUnhealthySubscribers","outputs":[{"internalType":"address[]","name":"","type":"address[]"}],"stateMutability":"view","type":"function"},{"inputs":[],"name":"getUserData","outputs":[{"components":[{"internalType":"uint256","name":"currentATokenBalance","type":"uint256"},{"internalType":"uint256","name":"currentStableDebt","type":"uint256"},{"internalType":"uint256","name":"currentVariableDebt","type":"uint256"},{"internalType":"uint256","name":"principalStableDebt","type":"uint256"},{"internalType":"uint256","name":"scaledVariableDebt","type":"uint256"},{"internalType":"uint256","name":"stableBorrowRate","type":"uint256"},{"internalType":"uint256","name":"liquidityRate","type":"uint256"},{"internalType":"uint40","name":"stableRateLastUpdated","type":"uint40"},{"internalType":"bool","name":"usageAsCollateralEnabled","type":"bool"}],"internalType":"struct Subscribers.UserReserveData[]","name":"","type":"tuple[]"}],"stateMutability":"nonpayable","type":"function"},{"inputs":[],"name":"monitorSubscribersHealth","outputs":[{"internalType":"bool","name":"needsPayback","type":"bool"}],"stateMutability":"view","type":"function"},{"inputs":[{"internalType":"address","name":"_new","type":"address"}],"name":"updateAdmin","outputs":[],"stateMutability":"nonpayable","type":"function"},{"inputs":[{"internalType":"address","name":"_new","type":"address"}],"name":"updateLoneSomeSharkAddress","outputs":[],"stateMutability":"nonpayable","type":"function"}],"bytecode":"0x6101406040523480156200001257600080fd5b5060405162003e9d38038062003e9d833981016040819052620000359162000141565b6001600160601b0319606083811b821660a05282811b821660c052600380546001600160a01b0319163317905586901b1660805260408051630261bf8b60e01b815290516000916001600160a01b03881691630261bf8b91600480820192602092909190829003018186803b158015620000ae57600080fd5b505afa158015620000c3573d6000803e3d6000fd5b505050506040513d601f19601f82011682018060405250810190620000e991906200011b565b6001600160601b0319606091821b811660e05294811b8516610120529490941b9092166101005250620001d992505050565b6000602082840312156200012d578081fd5b81516200013a81620001c0565b9392505050565b600080600080600060a0868803121562000159578081fd5b85516200016681620001c0565b60208701519095506200017981620001c0565b60408701519094506200018c81620001c0565b60608701519093506200019f81620001c0565b6080870151909250620001b281620001c0565b809150509295509295909350565b6001600160a01b0381168114620001d657600080fd5b50565b60805160601c60a05160601c60c05160601c60e05160601c6101005160601c6101205160601c613c546200024960003980610aeb5250806102105280610322528061069a5280610744525080610595528061088c5280610a0752505080610b11525080610ac85250613c546000f3fe608060405260043610620000a45760003560e01c8063aa7a3e961162000073578063db613e811162000055578063db613e81146200019a578063e2f273bd14620001c1578063fbcbc0f114620001e657620000a4565b8063aa7a3e96146200015c578063b260c42a146200018357620000a4565b806322e8c87d14620000a95780632ecc030814620000d9578063815a86bc1462000100578063a661cc581462000127575b600080fd5b348015620000b657600080fd5b50620000c16200020b565b604051620000d0919062001237565b60405180910390f35b348015620000e657600080fd5b50620000fe620000f836600462000ef6565b6200046e565b005b3480156200010d57600080fd5b5062000118620004d3565b604051620000d09190620011c8565b3480156200013457600080fd5b506200014c6200014636600462000ef6565b62000693565b604051620000d0929190620011dd565b3480156200016957600080fd5b50620001746200081a565b604051620000d09190620012eb565b620000fe6200019436600462001054565b62000961565b348015620001a757600080fd5b50620001b262000c16565b604051620000d09190620015ae565b348015620001ce57600080fd5b50620000fe620001e036600462000ef6565b62000cd9565b348015620001f357600080fd5b50620001b26200020536600462000ef6565b62000d5e565b6060807f00000000000000000000000000000000000000000000000000000000000000006001600160a01b031663b316ff896040518163ffffffff1660e01b815260040160006040518083038186803b1580156200026857600080fd5b505afa1580156200027d573d6000803e3d6000fd5b505050506040513d6000823e601f3d908101601f19168201604052620002a7919081019062000f1c565b90506060815167ffffffffffffffff81118015620002c457600080fd5b506040519080825280602002602001820160405280156200030257816020015b620002ee62000e60565b815260200190600190039081620002e45790505b50905060005b8251811015620004675760008060008060008060008060007f00000000000000000000000000000000000000000000000000000000000000006001600160a01b03166328dd2d018d8c815181106200035c57fe5b602002602001015160200151336040518363ffffffff1660e01b815260040162000388929190620011ae565b6101206040518083038186803b158015620003a257600080fd5b505afa158015620003b7573d6000803e3d6000fd5b505050506040513d601f19601f82011682018060405250810190620003dd9190620010b7565b9850985098509850985098509850985098506040518061012001604052808a81526020018981526020018881526020018781526020018681526020018581526020018481526020018364ffffffffff1681526020018215158152508b8b815181106200044557fe5b6020026020010181905250505050505050505050808060010191505062000308565b5091505090565b6003546001600160a01b03163314620004a45760405162461bcd60e51b81526004016200049b9062001540565b60405180910390fd5b6002805473ffffffffffffffffffffffffffffffffffffffff19166001600160a01b0392909216919091179055565b60606000606060018054905067ffffffffffffffff81118015620004f657600080fd5b5060405190808252806020026020018201604052801562000521578160200160208202803683370190505b50905060005b60015460ff821610156200046757600060018260ff16815481106200054857fe5b60009182526020808320909101546001600160a01b03168083529082905260409091206001015490915060ff16156200068957604051632fe4a15f60e21b81526000906001600160a01b037f0000000000000000000000000000000000000000000000000000000000000000169063bf92857c90620005cc9085906004016200119a565b60c06040518083038186803b158015620005e557600080fd5b505afa158015620005fa573d6000803e3d6000fd5b505050506040513d601f19601f820116820180604052508101906200062091906200106d565b6001600160a01b0388166000908152602081905260409020600201549096508611945062000687935050505057848060010195505081848660ff16815181106200066657fe5b60200260200101906001600160a01b031690816001600160a01b0316815250505b505b5060010162000527565b60608060607f00000000000000000000000000000000000000000000000000000000000000006001600160a01b031663b316ff896040518163ffffffff1660e01b815260040160006040518083038186803b158015620006f257600080fd5b505afa15801562000707573d6000803e3d6000fd5b505050506040513d6000823e601f3d908101601f1916820160405262000731919081019062000f1c565b905060005b8151811015620008135760007f00000000000000000000000000000000000000000000000000000000000000006001600160a01b03166328dd2d018484815181106200077e57fe5b602002602001015160200151886040518363ffffffff1660e01b8152600401620007aa929190620011ae565b6101206040518083038186803b158015620007c457600080fd5b505afa158015620007d9573d6000803e3d6000fd5b505050506040513d601f19601f82011682018060405250810190620007ff9190620010b7565b985050505050505050505060010162000736565b5050915091565b6000805b60015460ff821610156200095d57600060018260ff16815481106200083f57fe5b60009182526020808320909101546001600160a01b03168083529082905260409091206001015490915060ff16156200095357604051632fe4a15f60e21b81526000906001600160a01b037f0000000000000000000000000000000000000000000000000000000000000000169063bf92857c90620008c39085906004016200119a565b60c06040518083038186803b158015620008dc57600080fd5b505afa158015620008f1573d6000803e3d6000fd5b505050506040513d601f19601f820116820180604052508101906200091791906200106d565b6001600160a01b0388166000908152602081905260409020600201549096508610159450620009519350505050576001935050506200095d565b505b506001016200081e565b5090565b3360009081526020819052604090206001015460ff1615620009975760405162461bcd60e51b81526004016200049b9062001577565b670de0b6b3a7640000811015620009c25760405162461bcd60e51b81526004016200049b90620014d2565b670e043da617250000811115620009ed5760405162461bcd60e51b81526004016200049b906200143e565b604051632fe4a15f60e21b81526000906001600160a01b037f0000000000000000000000000000000000000000000000000000000000000000169063bf92857c9062000a3e9033906004016200119a565b60c06040518083038186803b15801562000a5757600080fd5b505afa15801562000a6c573d6000803e3d6000fd5b505050506040513d601f19601f8201168201806040525081019062000a9291906200106d565b336000908152602081905260408082208381556001808201805460ff1916909117905560029081018b90555490519298509096507f000000000000000000000000000000000000000000000000000000000000000095507f000000000000000000000000000000000000000000000000000000000000000094503093507f000000000000000000000000000000000000000000000000000000000000000092506001600160a01b03169062000b479062000eb5565b62000b57959493929190620012f6565b604051809103906000f08015801562000b74573d6000803e3d6000fd5b50336000818152602081905260408120600190810180546001600160a01b03909516610100027fffffffffffffffffffffff0000000000000000000000000000000000000000ff90951694909417909355825480840184559290527fb10e2d527612073b26eecdfd717e6a320cf44b4afac2b0732d9fcbe2b7fa0cf6909101805473ffffffffffffffffffffffffffffffffffffffff19169091179055505050565b62000c2062000ec3565b336000908152602081905260409020541562000c505760405162461bcd60e51b81526004016200049b9062001475565b3360009081526020819052604090206001015460ff1662000c855760405162461bcd60e51b81526004016200049b90620013fd565b503360009081526020818152604091829020825160808101845281548152600182015460ff81161515938201939093526101009092046001600160a01b031692820192909252600290910154606082015290565b6001600160a01b03811662000d025760405162461bcd60e51b81526004016200049b9062001509565b6003546001600160a01b0316331462000d2f5760405162461bcd60e51b81526004016200049b9062001328565b6003805473ffffffffffffffffffffffffffffffffffffffff19166001600160a01b0392909216919091179055565b62000d6862000ec3565b6001600160a01b03821662000d915760405162461bcd60e51b81526004016200049b90620013c6565b6001600160a01b0382166000908152602081905260409020541562000dca5760405162461bcd60e51b81526004016200049b9062001475565b6001600160a01b03821660009081526020819052604090206001015460ff1662000e085760405162461bcd60e51b81526004016200049b9062001385565b506001600160a01b0390811660009081526020818152604091829020825160808101845281548152600182015460ff811615159382019390935261010090920490931691810191909152600290910154606082015290565b60405180610120016040528060008152602001600081526020016000815260200160008152602001600081526020016000815260200160008152602001600064ffffffffff1681526020016000151581525090565b6125a1806200167e83390190565b60405180608001604052806000815260200160001515815260200160006001600160a01b03168152602001600081525090565b60006020828403121562000f08578081fd5b813562000f158162001664565b9392505050565b6000602080838503121562000f2f578182fd5b825167ffffffffffffffff8082111562000f47578384fd5b818501915085601f83011262000f5b578384fd5b81518181111562000f6a578485fd5b62000f798485830201620015e4565b81815284810190848601875b848110156200104557815187016040818d03601f1901121562000fa657898afd5b62000fb26040620015e4565b898201518881111562000fc3578b8cfd5b8201603f81018e1362000fd4578b8cfd5b8a81015162000fed62000fe7826200160c565b620015e4565b8181528f604083850101111562001002578d8efd5b62001014828e83016040860162001631565b8352505060409190910151906200102b8262001664565b808a01919091528452928701929087019060010162000f85565b50909998505050505050505050565b60006020828403121562001066578081fd5b5035919050565b60008060008060008060c0878903121562001086578182fd5b865195506020870151945060408701519350606087015192506080870151915060a087015190509295509295509295565b60008060008060008060008060006101208a8c031215620010d6578283fd5b8951985060208a0151975060408a0151965060608a0151955060808a0151945060a08a0151935060c08a0151925060e08a015164ffffffffff811681146200111c578283fd5b6101008b0151909250801515811462001133578182fd5b809150509295985092959850929598565b6000815180845260208085019450808401835b838110156200117e5781516001600160a01b03168752958201959082019060010162001157565b509495945050505050565b15159052565b64ffffffffff169052565b6001600160a01b0391909116815260200190565b6001600160a01b0392831681529116602082015260400190565b60006020825262000f15602083018462001144565b600060408252620011f2604083018562001144565b828103602084810191909152845180835285820192820190845b818110156200122a578451835293830193918301916001016200120c565b5090979650505050505050565b602080825282518282018190526000919060409081850190868401855b82811015620012de5781518051855286810151878601528581015186860152606080820151908601526080808201519086015260a0808201519086015260c0808201519086015260e080820151620012af828801826200118f565b50506101009081015190620012c78682018362001189565b505061012093909301929085019060010162001254565b5091979650505050505050565b901515815260200190565b6001600160a01b0395861681529385166020850152918416604084015283166060830152909116608082015260a00190565b60208082526024908201527f6f6e6c792061646d696e20616c6c6f77656420746f207472616e73666572206160408201527f646d696e00000000000000000000000000000000000000000000000000000000606082015260800190565b60208082526021908201527f75736572206973206e6f742061637469766520696e206f7572207265636f72646040820152607360f81b606082015260800190565b60208082526013908201527f61646472657373206e6f742070726573656e7400000000000000000000000000604082015260600190565b60208082526021908201527f796f7520617265206e6f742061637469766520696e206f7572207265636f72646040820152607360f81b606082015260800190565b6020808252601d908201527f7468726573686f6c6420746f6f20686967682c2061626f766520312e31000000604082015260600190565b60208082526025908201527f796f7520617265206e6f74207265676973746572656420696e206f757220726560408201527f636f726473000000000000000000000000000000000000000000000000000000606082015260800190565b60208082526011908201527f7468726573686f6c642062656c6f772031000000000000000000000000000000604082015260600190565b60208082526012908201527f6e6565642076616c696420616464726573730000000000000000000000000000604082015260600190565b60208082526015908201527f6f6e6c792061646d696e2063616e207570646174650000000000000000000000604082015260600190565b6020808252601f908201527f757365722068617320616c7265616479206265656e2061637469766174656400604082015260600190565b815181526020808301511515908201526040808301516001600160a01b0316908201526060918201519181019190915260800190565b60405181810167ffffffffffffffff811182821017156200160457600080fd5b604052919050565b600067ffffffffffffffff82111562001623578081fd5b50601f01601f191660200190565b60005b838110156200164e57818101518382015260200162001634565b838111156200165e576000848401525b50505050565b6001600160a01b03811681146200167a57600080fd5b5056fe6101406040523480156200001257600080fd5b50604051620025a1380380620025a183398101604081905262000035916200022b565b84848382806001600160a01b03166080816001600160a01b031660601b81525050806001600160a01b0316630261bf8b6040518163ffffffff1660e01b815260040160206040518083038186803b1580156200009057600080fd5b505afa158015620000a5573d6000803e3d6000fd5b505050506040513d601f19601f82011682018060405250810190620000cb919062000205565b60601b6001600160601b03191660a052506000620000e862000201565b600080546001600160a01b0319166001600160a01b0383169081178255604051929350917f8be0079c531659141344cd1fd0a4f28419497f9722a3daafe3b4186f6b6457e0908290a350826001600160a01b031663fca513a86040518163ffffffff1660e01b815260040160206040518083038186803b1580156200016c57600080fd5b505afa15801562000181573d6000803e3d6000fd5b505050506040513d601f19601f82011682018060405250810190620001a7919062000205565b606090811b6001600160601b031990811660e05292811b83166101005290811b821660c052600180546001600160a01b0319166001600160a01b0397909716969096179095559190931b166101205250620002c392505050565b3390565b60006020828403121562000217578081fd5b81516200022481620002aa565b9392505050565b600080600080600060a0868803121562000243578081fd5b85516200025081620002aa565b60208701519095506200026381620002aa565b60408701519094506200027681620002aa565b60608701519093506200028981620002aa565b60808701519092506200029c81620002aa565b809150509295509295909350565b6001600160a01b0381168114620002c057600080fd5b50565b60805160601c60a05160601c60c05160601c60e05160601c6101005160601c6101205160601c6122326200036f600039806107c7525080610a1b5280610dea5280610ede528061162452806117155250806103bb52806118af5250806103685280610cc45280610d015280610d6b52806114fe528061153b52806115a552508061048552806104ff52806105a352806106f95280610917528061099652508061038c52506122326000f3fe608060405234801561001057600080fd5b50600436106100ff5760003560e01c8063920f5c8411610097578063baf7fa9911610066578063baf7fa99146101b7578063cdf58cd6146101db578063d8264920146101ee578063f2fde38b146101f6576100ff565b8063920f5c84146101745780639d1211bf14610194578063b485b7ea1461019c578063b4dcfc77146101af576100ff565b806332e4b286116100d357806332e4b2861461015457806338013f021461015c578063715018a6146101645780638da5cb5b1461016c576100ff565b8062ae3bf814610104578063040141e5146101195780630542975c14610137578063074b2e431461013f575b600080fd5b610117610112366004611a25565b610209565b005b610121610366565b60405161012e9190611dfa565b60405180910390f35b61012161038a565b6101476103ae565b60405161012e919061213d565b6101476103b3565b6101216103b9565b6101176103dd565b610121610469565b610187610182366004611b14565b610478565b60405161012e9190611ed1565b6101216107a4565b6101176101aa366004611a41565b6107bc565b610121610994565b6101ca6101c5366004611cd9565b6109b8565b60405161012e959493929190612167565b6101ca6101e9366004611cd9565b6109fe565b610121610a19565b610117610204366004611a25565b610a3d565b610211610b00565b6000546001600160a01b039081169116146102475760405162461bcd60e51b815260040161023e90612108565b60405180910390fd5b806001600160a01b031663a9059cbb61025e610469565b6040517f70a082310000000000000000000000000000000000000000000000000000000081526001600160a01b038516906370a08231906102a3903090600401611dfa565b60206040518083038186803b1580156102bb57600080fd5b505afa1580156102cf573d6000803e3d6000fd5b505050506040513d601f19601f820116820180604052508101906102f39190611cc1565b6040518363ffffffff1660e01b8152600401610310929190611e8d565b602060405180830381600087803b15801561032a57600080fd5b505af115801561033e573d6000803e3d6000fd5b505050506040513d601f19601f820116820180604052508101906103629190611ca1565b5050565b7f000000000000000000000000000000000000000000000000000000000000000081565b7f000000000000000000000000000000000000000000000000000000000000000081565b600981565b610bb881565b7f000000000000000000000000000000000000000000000000000000000000000081565b6103e5610b00565b6000546001600160a01b039081169116146104125760405162461bcd60e51b815260040161023e90612108565b600080546040516001600160a01b03909116907f8be0079c531659141344cd1fd0a4f28419497f9722a3daafe3b4186f6b6457e0908390a36000805473ffffffffffffffffffffffffffffffffffffffff19169055565b6000546001600160a01b031690565b6000336001600160a01b037f000000000000000000000000000000000000000000000000000000000000000016146104c25760405162461bcd60e51b815260040161023e90611eef565b3060005b8a811015610681578b8b828181106104da57fe5b90506020020160208101906104ef9190611a25565b6001600160a01b031663095ea7b37f00000000000000000000000000000000000000000000000000000000000000008c8c8581811061052a57fe5b905060200201356040518363ffffffff1660e01b815260040161054e929190611e8d565b602060405180830381600087803b15801561056857600080fd5b505af115801561057c573d6000803e3d6000fd5b505050506040513d601f19601f820116820180604052508101906105a09190611ca1565b507f00000000000000000000000000000000000000000000000000000000000000006001600160a01b031663573ade818d8d848181106105dc57fe5b90506020020160208101906105f19190611a25565b8c8c858181106105fd57fe5b905060200201356001866040518563ffffffff1660e01b81526004016106269493929190611ea6565b602060405180830381600087803b15801561064057600080fd5b505af1158015610654573d6000803e3d6000fd5b505050506040513d601f19601f820116820180604052508101906106789190611cc1565b506001016104c6565b5060005b8a8110156107925760006106c689898481811061069e57fe5b905060200201358c8c858181106106b157fe5b90506020020135610b0490919063ffffffff16565b90508c8c838181106106d457fe5b90506020020160208101906106e99190611a25565b6001600160a01b031663095ea7b37f0000000000000000000000000000000000000000000000000000000000000000836040518363ffffffff1660e01b8152600401610736929190611e8d565b602060405180830381600087803b15801561075057600080fd5b505af1158015610764573d6000803e3d6000fd5b505050506040513d601f19601f820116820180604052508101906107889190611ca1565b5050600101610685565b5060019b9a5050505050505050505050565b7310f7fc1f91ba351f9c629c5947ad69bd03c05b9681565b336001600160a01b037f000000000000000000000000000000000000000000000000000000000000000016146108045760405162461bcd60e51b815260040161023e90612017565b61080c610469565b6001600160a01b0316836001600160a01b03161461083c5760405162461bcd60e51b815260040161023e9061204e565b805182511461085d5760405162461bcd60e51b815260040161023e90611f83565b8051309060609067ffffffffffffffff8111801561087a57600080fd5b506040519080825280602002602001820160405280156108a4578160200160208202803683370190505b50905060005b84518110156108d5576000826000815181106108c257fe5b60209081029190910101526001016108aa565b5060408051602081018252600080825291517fab9c4b5d0000000000000000000000000000000000000000000000000000000081523092906001600160a01b037f0000000000000000000000000000000000000000000000000000000000000000169063ab9c4b5d906109589088908b908b908a908a908a908a90600401611e0e565b600060405180830381600087803b15801561097257600080fd5b505af1158015610986573d6000803e3d6000fd5b505050505050505050505050565b7f000000000000000000000000000000000000000000000000000000000000000081565b60008060008060606109c8611934565b6109d388888b610b32565b8051602082015160408301516060840151608090940151929d919c509a509198509650945050505050565b6000806000806060610a0e611934565b6109d388888b6110ef565b7f000000000000000000000000000000000000000000000000000000000000000081565b610a45610b00565b6000546001600160a01b03908116911614610a725760405162461bcd60e51b815260040161023e90612108565b6001600160a01b038116610a985760405162461bcd60e51b815260040161023e90611f26565b600080546040516001600160a01b03808516939216917f8be0079c531659141344cd1fd0a4f28419497f9722a3daafe3b4186f6b6457e091a36000805473ffffffffffffffffffffffffffffffffffffffff19166001600160a01b0392909216919091179055565b3390565b600082820183811015610b295760405162461bcd60e51b815260040161023e90611fe0565b90505b92915050565b610b3a611934565b6000610b5d610b56612710610b508660096112c9565b90611303565b8490611345565b9050836001600160a01b0316856001600160a01b03161415610c29576000610b8486611387565b60408051600180825281830190925291925060609190602080830190803683370190505090508681600081518110610bb857fe5b6001600160a01b039092166020928302919091018201526040805160a08101909152848152908101610bf687610b5087670de0b6b3a76400006112c9565b8152602001610c06898886611403565b8152602001610c16898686611403565b81526020018281525093505050506110e8565b60408051600280825260608083018452926020830190803683370190505090508581600081518110610c5757fe5b60200260200101906001600160a01b031690816001600160a01b0316815250508481600181518110610c8557fe5b6001600160a01b0392909216602092830291909101820152604080516003808252608082019092526060928392839291820183803683370190505090507f00000000000000000000000000000000000000000000000000000000000000006001600160a01b0316896001600160a01b031614158015610d3657507f00000000000000000000000000000000000000000000000000000000000000006001600160a01b0316886001600160a01b031614155b15610ea2578881600081518110610d4957fe5b60200260200101906001600160a01b031690816001600160a01b0316815250507f000000000000000000000000000000000000000000000000000000000000000081600181518110610d9757fe5b60200260200101906001600160a01b031690816001600160a01b0316815250508781600281518110610dc557fe5b6001600160a01b03928316602091820292909201015260405163d06ca61f60e01b81527f00000000000000000000000000000000000000000000000000000000000000009091169063d06ca61f90610e239088908590600401612146565b60006040518083038186803b158015610e3b57600080fd5b505afa925050508015610e7057506040513d6000823e601f3d908101601f19168201604052610e6d9190810190611c11565b60015b610e9a57604080516003808252608082019092529060208201606080368337019050509150610e9d565b91505b610ec4565b6040805160038082526080820190925290602082016060803683370190505091505b60405163d06ca61f60e01b81526000906001600160a01b037f0000000000000000000000000000000000000000000000000000000000000000169063d06ca61f90610f159089908990600401612146565b60006040518083038186803b158015610f2d57600080fd5b505afa925050508015610f6257506040513d6000823e601f3d908101601f19168201604052610f5f9190810190611c11565b60015b610fa257604080516002808252606082018352909160208301908036833701905050935082600281518110610f9357fe5b60200260200101519050611008565b80945084600181518110610fb257fe5b602002602001015184600281518110610fc757fe5b602002602001015111610fee5784600181518110610fe157fe5b6020026020010151611004565b83600281518110610ffb57fe5b60200260200101515b9150505b60006110138b611387565b905060006110208b611387565b9050600061105561103585600a86900a6112c9565b610b50600a85900a61104f8d670de0b6b3a76400006112c9565b906112c9565b90506040518060a001604052808581526020018281526020016110798f8e87611403565b81526020016110898e8786611403565b815260200185156110bc57886001815181106110a157fe5b602002602001015186146110b557866110b7565b895b6110da565b60408051600280825260608201835290916020830190803683375050505b905299505050505050505050505b9392505050565b6110f7611934565b826001600160a01b0316846001600160a01b031614156111cd57600061112e611127612710610b508660096112c9565b8490610b04565b9050600061113b86611387565b6040805160018082528183019092529192506060919060208083019080368337019050509050868160008151811061116f57fe5b6001600160a01b039092166020928302919091018201526040805160a081019091528481529081016111ad85610b5089670de0b6b3a76400006112c9565b81526020016111bd898686611403565b8152602001610c16898886611403565b6060806111db86868661145c565b915091506000611235611212612710610b506009876000815181106111fc57fe5b60200260200101516112c990919063ffffffff16565b8460008151811061121f57fe5b6020026020010151610b0490919063ffffffff16565b9050600061124288611387565b9050600061124f88611387565b9050600061127e61126485600a85900a6112c9565b610b50600a86900a61104f8c670de0b6b3a76400006112c9565b90506040518060a001604052808581526020018281526020016112a28c8787611403565b81526020016112b28b8b86611403565b815260200195909552509298975050505050505050565b6000826112d857506000610b2c565b828202828482816112e557fe5b0414610b295760405162461bcd60e51b815260040161023e906120ab565b6000610b2983836040518060400160405280601a81526020017f536166654d6174683a206469766973696f6e206279207a65726f000000000000815250611819565b6000610b2983836040518060400160405280601e81526020017f536166654d6174683a207375627472616374696f6e206f766572666c6f770000815250611850565b6000816001600160a01b031663313ce5676040518163ffffffff1660e01b815260040160206040518083038186803b1580156113c257600080fd5b505afa1580156113d6573d6000803e3d6000fd5b505050506040513d601f19601f820116820180604052508101906113fa9190611d1a565b60ff1692915050565b6000806114237310f7fc1f91ba351f9c629c5947ad69bd03c05b9661187c565b905060006114308661187c565b9050611452670de0b6b3a7640000610b508461104f600a89900a838b886112c9565b9695505050505050565b604080516002808252606082810190935282918291816020016020820280368337019050509050858160008151811061149157fe5b60200260200101906001600160a01b031690816001600160a01b03168152505084816001815181106114bf57fe5b6001600160a01b0392909216602092830291909101820152604080516003808252608082019092526060928392839291820183803683370190505090507f00000000000000000000000000000000000000000000000000000000000000006001600160a01b0316896001600160a01b03161415801561157057507f00000000000000000000000000000000000000000000000000000000000000006001600160a01b0316886001600160a01b031614155b156116dc57888160008151811061158357fe5b60200260200101906001600160a01b031690816001600160a01b0316815250507f0000000000000000000000000000000000000000000000000000000000000000816001815181106115d157fe5b60200260200101906001600160a01b031690816001600160a01b03168152505087816002815181106115ff57fe5b6001600160a01b0392831660209182029290920101526040516307c0329d60e21b81527f000000000000000000000000000000000000000000000000000000000000000090911690631f00ca749061165d908a908590600401612146565b60006040518083038186803b15801561167557600080fd5b505afa9250505080156116aa57506040513d6000823e601f3d908101601f191682016040526116a79190810190611c11565b60015b6116d4576040805160038082526080820190925290602082016060803683370190505091506116d7565b91505b6116fe565b6040805160038082526080820190925290602082016060803683370190505091505b6040516307c0329d60e21b81526001600160a01b037f00000000000000000000000000000000000000000000000000000000000000001690631f00ca749061174c908a908890600401612146565b60006040518083038186803b15801561176457600080fd5b505afa92505050801561179957506040513d6000823e601f3d908101601f191682016040526117969190810190611c11565b60015b6117aa579094509250611811915050565b809350836000815181106117ba57fe5b6020026020010151836000815181106117cf57fe5b60200260200101511080156117f95750826000815181106117ec57fe5b6020026020010151600014155b611804578385611807565b82825b9650965050505050505b935093915050565b6000818361183a5760405162461bcd60e51b815260040161023e9190611edc565b50600083858161184657fe5b0495945050505050565b600081848411156118745760405162461bcd60e51b815260040161023e9190611edc565b505050900390565b6040517fb3596f070000000000000000000000000000000000000000000000000000000081526000906001600160a01b037f0000000000000000000000000000000000000000000000000000000000000000169063b3596f07906118e4908590600401611dfa565b60206040518083038186803b1580156118fc57600080fd5b505afa158015611910573d6000803e3d6000fd5b505050506040513d601f19601f82011682018060405250810190610b2c9190611cc1565b6040518060a0016040528060008152602001600081526020016000815260200160008152602001606081525090565b8035610b2c816121e4565b60008083601f84011261197f578182fd5b50813567ffffffffffffffff811115611996578182fd5b60208301915083602080830285010111156119b057600080fd5b9250929050565b600082601f8301126119c7578081fd5b81356119da6119d5826121c4565b61219d565b8181529150602080830190848101818402860182018710156119fb57600080fd5b60005b84811015611a1a578135845292820192908201906001016119fe565b505050505092915050565b600060208284031215611a36578081fd5b8135610b29816121e4565b600080600060608486031215611a55578182fd5b8335611a60816121e4565b925060208481013567ffffffffffffffff80821115611a7d578485fd5b818701915087601f830112611a90578485fd5b8135611a9e6119d5826121c4565b81815284810190848601868402860187018c1015611aba578889fd5b8895505b83861015611ae457611ad08c82611963565b835260019590950194918601918601611abe565b50965050506040870135925080831115611afc578384fd5b5050611b0a868287016119b7565b9150509250925092565b600080600080600080600080600060a08a8c031215611b31578485fd5b893567ffffffffffffffff80821115611b48578687fd5b611b548d838e0161196e565b909b50995060208c0135915080821115611b6c578687fd5b611b788d838e0161196e565b909950975060408c0135915080821115611b90578687fd5b611b9c8d838e0161196e565b909750955060608c01359150611bb1826121e4565b90935060808b01359080821115611bc6578384fd5b818c0191508c601f830112611bd9578384fd5b813581811115611be7578485fd5b8d6020828501011115611bf8578485fd5b6020830194508093505050509295985092959850929598565b60006020808385031215611c23578182fd5b825167ffffffffffffffff811115611c39578283fd5b8301601f81018513611c49578283fd5b8051611c576119d5826121c4565b8181528381019083850185840285018601891015611c73578687fd5b8694505b83851015611c95578051835260019490940193918501918501611c77565b50979650505050505050565b600060208284031215611cb2578081fd5b81518015158114610b29578182fd5b600060208284031215611cd2578081fd5b5051919050565b600080600060608486031215611ced578283fd5b833592506020840135611cff816121e4565b91506040840135611d0f816121e4565b809150509250925092565b600060208284031215611d2b578081fd5b815160ff81168114610b29578182fd5b6000815180845260208085019450808401835b83811015611d735781516001600160a01b031687529582019590820190600101611d4e565b509495945050505050565b6000815180845260208085019450808401835b83811015611d7357815187529582019590820190600101611d91565b600081518084526020825b82811015611dd3578481018201518682018301528101611db8565b82811115611de357838284880101525b5080601f19601f8401168601019250505092915050565b6001600160a01b0391909116815260200190565b60006001600160a01b03808a16835260e06020840152611e3160e084018a611d3b565b8381036040850152611e43818a611d7e565b90508381036060850152611e578189611d7e565b9050818716608085015283810360a0850152611e738187611dad565b9250505061ffff831660c083015298975050505050505050565b6001600160a01b03929092168252602082015260400190565b6001600160a01b03948516815260208101939093526040830191909152909116606082015260800190565b901515815260200190565b600060208252610b296020830184611dad565b6020808252601b908201527f43414c4c45525f4d5553545f42455f4c454e44494e475f504f4f4c0000000000604082015260600190565b60208082526026908201527f4f776e61626c653a206e6577206f776e657220697320746865207a65726f206160408201527f6464726573730000000000000000000000000000000000000000000000000000606082015260800190565b60208082526027908201527f61737365747320616e6420616d6f756e74732068617665206e6f20657175616c60408201527f206c656e67746800000000000000000000000000000000000000000000000000606082015260800190565b6020808252601b908201527f536166654d6174683a206164646974696f6e206f766572666c6f770000000000604082015260600190565b6020808252601d908201527f43414c4c45525f4d5553545f42455f4c4f4e45534f4d455f534841524b000000604082015260600190565b6020808252602d908201527f5f73756273637269626572206e6565647320746f206f776e207468652070617960408201527f6261636b20636f6e747261637400000000000000000000000000000000000000606082015260800190565b60208082526021908201527f536166654d6174683a206d756c7469706c69636174696f6e206f766572666c6f60408201527f7700000000000000000000000000000000000000000000000000000000000000606082015260800190565b6020808252818101527f4f776e61626c653a2063616c6c6572206973206e6f7420746865206f776e6572604082015260600190565b90815260200190565b60008382526040602083015261215f6040830184611d3b565b949350505050565b600086825285602083015284604083015283606083015260a0608083015261219260a0830184611d3b565b979650505050505050565b60405181810167ffffffffffffffff811182821017156121bc57600080fd5b604052919050565b600067ffffffffffffffff8211156121da578081fd5b5060209081020190565b6001600160a01b03811681146121f957600080fd5b5056fea2646970667358221220144909b0b289e89916b508d315b6ca6e8e23a71c8a5d74ac3eda494cbd99ea8364736f6c634300060c0033a2646970667358221220b7c7f65c9f85902773b683ca58ace5966ee8e19d94adf24ef689769ac567e67e64736f6c634300060c0033","linkReferences":{},"deployedLinkReferences":{},"network":"kovan","address":"0xFf73BB98d11fb8967027573319ee74B11D868af5"}