{"_format":"hh-sol-artifact-1","contractName":"Subscribers","sourceName":"contracts/Subscribers.sol","abi":[{"inputs":[{"internalType":"contract ILendingPoolAddressesProvider","name":"_provider","type":"address"},{"internalType":"contract AaveProtocolDataProvider","name":"_aave_provider","type":"address"},{"internalType":"contract IUniswapV2Router02","name":"_uniswapRouter","type":"address"},{"internalType":"address","name":"wethAddress","type":"address"},{"internalType":"address","name":"linkAddress","type":"address"}],"stateMutability":"nonpayable","type":"constructor"},{"inputs":[{"internalType":"uint256","name":"_threshold","type":"uint256"}],"name":"activate","outputs":[],"stateMutability":"payable","type":"function"},{"inputs":[],"name":"getAccount","outputs":[{"components":[{"internalType":"uint256","name":"hf","type":"uint256"},{"internalType":"bool","name":"active","type":"bool"},{"internalType":"address","name":"payback","type":"address"},{"internalType":"uint256","name":"threshold","type":"uint256"}],"internalType":"struct Subscribers.Account","name":"_account","type":"tuple"}],"stateMutability":"view","type":"function"},{"inputs":[{"internalType":"address","name":"_subscriber","type":"address"}],"name":"getAccount","outputs":[{"components":[{"internalType":"uint256","name":"hf","type":"uint256"},{"internalType":"bool","name":"active","type":"bool"},{"internalType":"address","name":"payback","type":"address"},{"internalType":"uint256","name":"threshold","type":"uint256"}],"internalType":"struct Subscribers.Account","name":"_account","type":"tuple"}],"stateMutability":"view","type":"function"},{"inputs":[{"internalType":"address","name":"_subscriber","type":"address"}],"name":"getAssetsAndAmounts","outputs":[{"internalType":"address[]","name":"","type":"address[]"},{"internalType":"uint256[]","name":"","type":"uint256[]"}],"stateMutability":"view","type":"function"},{"inputs":[],"name":"getUnhealthySubscribers","outputs":[{"internalType":"address[]","name":"","type":"address[]"}],"stateMutability":"view","type":"function"},{"inputs":[],"name":"monitorSubscribersHealth","outputs":[{"internalType":"bool","name":"needsPayback","type":"bool"}],"stateMutability":"view","type":"function"},{"inputs":[{"internalType":"address","name":"_new","type":"address"}],"name":"updateAdmin","outputs":[],"stateMutability":"nonpayable","type":"function"},{"inputs":[{"internalType":"address","name":"_new","type":"address"}],"name":"updateLoneSomeSharkAddress","outputs":[],"stateMutability":"nonpayable","type":"function"}],"bytecode":"0x6101406040523480156200001257600080fd5b50604051620061ac380380620061ac8339818101604052810190620000389190620002df565b8173ffffffffffffffffffffffffffffffffffffffff1660a08173ffffffffffffffffffffffffffffffffffffffff1660601b815250508073ffffffffffffffffffffffffffffffffffffffff1660c08173ffffffffffffffffffffffffffffffffffffffff1660601b8152505033600360006101000a81548173ffffffffffffffffffffffffffffffffffffffff021916908373ffffffffffffffffffffffffffffffffffffffff1602179055508473ffffffffffffffffffffffffffffffffffffffff1660808173ffffffffffffffffffffffffffffffffffffffff1660601b8152505060008573ffffffffffffffffffffffffffffffffffffffff16630261bf8b6040518163ffffffff1660e01b815260040160206040518083038186803b1580156200016757600080fd5b505afa1580156200017c573d6000803e3d6000fd5b505050506040513d601f19601f82011682018060405250810190620001a29190620002b3565b90508073ffffffffffffffffffffffffffffffffffffffff1660e08173ffffffffffffffffffffffffffffffffffffffff1660601b815250508373ffffffffffffffffffffffffffffffffffffffff166101208173ffffffffffffffffffffffffffffffffffffffff1660601b815250508473ffffffffffffffffffffffffffffffffffffffff166101008173ffffffffffffffffffffffffffffffffffffffff1660601b8152505050505050505062000439565b6000815190506200026881620003d1565b92915050565b6000815190506200027f81620003eb565b92915050565b600081519050620002968162000405565b92915050565b600081519050620002ad816200041f565b92915050565b600060208284031215620002c657600080fd5b6000620002d68482850162000257565b91505092915050565b600080600080600060a08688031215620002f857600080fd5b6000620003088882890162000285565b95505060206200031b888289016200026e565b94505060406200032e888289016200029c565b9350506060620003418882890162000257565b9250506080620003548882890162000257565b9150509295509295909350565b60006200036e82620003b1565b9050919050565b6000620003828262000361565b9050919050565b6000620003968262000361565b9050919050565b6000620003aa8262000361565b9050919050565b600073ffffffffffffffffffffffffffffffffffffffff82169050919050565b620003dc8162000361565b8114620003e857600080fd5b50565b620003f68162000375565b81146200040257600080fd5b50565b620004108162000389565b81146200041c57600080fd5b50565b6200042a816200039d565b81146200043657600080fd5b50565b60805160601c60a05160601c60c05160601c60e05160601c6101005160601c6101205160601c615d0d6200049f60003980610bce52508061056c52806106245250806103fa52806107be5280610a0f52505080610bf0525080610bad5250615d0d6000f3fe608060405260043610620000865760003560e01c8063b260c42a1162000055578063b260c42a146200015e578063db613e81146200017e578063e2f273bd14620001ae578063fbcbc0f114620001dc5762000086565b80632ecc0308146200008b578063815a86bc14620000b9578063a661cc5814620000e9578063aa7a3e96146200012e575b600080fd5b3480156200009857600080fd5b50620000b76004803603810190620000b191906200151e565b62000220565b005b348015620000c657600080fd5b50620000d1620002f7565b604051620000e0919062001cbb565b60405180910390f35b348015620000f657600080fd5b506200011560048036038101906200010f91906200151e565b62000565565b6040516200012592919062001cdf565b60405180910390f35b3480156200013b57600080fd5b50620001466200070c565b60405162000155919062001d1a565b60405180910390f35b6200017c60048036038101906200017691906200158f565b620008dd565b005b3480156200018b57600080fd5b506200019662000d58565b604051620001a5919062001ee8565b60405180910390f35b348015620001bb57600080fd5b50620001da6004803603810190620001d491906200151e565b62000f4d565b005b348015620001e957600080fd5b506200020860048036038101906200020291906200151e565b62001097565b60405162000217919062001ee8565b60405180910390f35b3373ffffffffffffffffffffffffffffffffffffffff16600360009054906101000a900473ffffffffffffffffffffffffffffffffffffffff1673ffffffffffffffffffffffffffffffffffffffff1614620002b3576040517f08c379a0000000000000000000000000000000000000000000000000000000008152600401620002aa9062001ea4565b60405180910390fd5b80600260006101000a81548173ffffffffffffffffffffffffffffffffffffffff021916908373ffffffffffffffffffffffffffffffffffffffff16021790555050565b60606000606060018054905067ffffffffffffffff811180156200031a57600080fd5b506040519080825280602002602001820160405280156200034a5781602001602082028036833780820191505090505b50905060005b6001805490508160ff1610156200055c57600060018260ff16815481106200037457fe5b9060005260206000200160009054906101000a900473ffffffffffffffffffffffffffffffffffffffff1690506000808273ffffffffffffffffffffffffffffffffffffffff1673ffffffffffffffffffffffffffffffffffffffff16815260200190815260200160002060010160009054906101000a900460ff16156200054d5760007f000000000000000000000000000000000000000000000000000000000000000073ffffffffffffffffffffffffffffffffffffffff1663bf92857c836040518263ffffffff1660e01b815260040162000453919062001c54565b60c06040518083038186803b1580156200046c57600080fd5b505afa15801562000481573d6000803e3d6000fd5b505050506040513d601f19601f82011682018060405250810190620004a79190620015bb565b955050505050506000808373ffffffffffffffffffffffffffffffffffffffff1673ffffffffffffffffffffffffffffffffffffffff1681526020019081526020016000206002015481116200054b57848060010195505081848660ff16815181106200051057fe5b602002602001019073ffffffffffffffffffffffffffffffffffffffff16908173ffffffffffffffffffffffffffffffffffffffff16815250505b505b50808060010191505062000350565b50809250505090565b60608060607f000000000000000000000000000000000000000000000000000000000000000073ffffffffffffffffffffffffffffffffffffffff1663b316ff896040518163ffffffff1660e01b815260040160006040518083038186803b158015620005d157600080fd5b505afa158015620005e6573d6000803e3d6000fd5b505050506040513d6000823e3d601f19601f820116820180604052508101906200061191906200154a565b905060005b8151811015620007055760007f000000000000000000000000000000000000000000000000000000000000000073ffffffffffffffffffffffffffffffffffffffff166328dd2d018484815181106200066b57fe5b602002602001015160200151886040518363ffffffff1660e01b81526004016200069792919062001c8e565b6101206040518083038186803b158015620006b157600080fd5b505afa158015620006c6573d6000803e3d6000fd5b505050506040513d601f19601f82011682018060405250810190620006ec919062001651565b9850505050505050505050808060010191505062000616565b5050915091565b600080600090505b6001805490508160ff161015620008d957600060018260ff16815481106200073857fe5b9060005260206000200160009054906101000a900473ffffffffffffffffffffffffffffffffffffffff1690506000808273ffffffffffffffffffffffffffffffffffffffff1673ffffffffffffffffffffffffffffffffffffffff16815260200190815260200160002060010160009054906101000a900460ff1615620008ca5760007f000000000000000000000000000000000000000000000000000000000000000073ffffffffffffffffffffffffffffffffffffffff1663bf92857c836040518263ffffffff1660e01b815260040162000817919062001c54565b60c06040518083038186803b1580156200083057600080fd5b505afa15801562000845573d6000803e3d6000fd5b505050506040513d601f19601f820116820180604052508101906200086b9190620015bb565b955050505050506000808373ffffffffffffffffffffffffffffffffffffffff1673ffffffffffffffffffffffffffffffffffffffff16815260200190815260200160002060020154811015620008c857600193505050620008d9565b505b50808060010191505062000714565b5090565b6000803373ffffffffffffffffffffffffffffffffffffffff1673ffffffffffffffffffffffffffffffffffffffff16815260200190815260200160002060010160009054906101000a900460ff16156200096f576040517f08c379a0000000000000000000000000000000000000000000000000000000008152600401620009669062001ec6565b60405180910390fd5b670de0b6b3a7640000811015620009bd576040517f08c379a0000000000000000000000000000000000000000000000000000000008152600401620009b49062001e60565b60405180910390fd5b670e043da61725000081111562000a0b576040517f08c379a000000000000000000000000000000000000000000000000000000000815260040162000a029062001e1c565b60405180910390fd5b60007f000000000000000000000000000000000000000000000000000000000000000073ffffffffffffffffffffffffffffffffffffffff1663bf92857c336040518263ffffffff1660e01b815260040162000a68919062001c71565b60c06040518083038186803b15801562000a8157600080fd5b505afa15801562000a96573d6000803e3d6000fd5b505050506040513d601f19601f8201168201806040525081019062000abc9190620015bb565b95505050505050806000803373ffffffffffffffffffffffffffffffffffffffff1673ffffffffffffffffffffffffffffffffffffffff1681526020019081526020016000206000018190555060016000803373ffffffffffffffffffffffffffffffffffffffff1673ffffffffffffffffffffffffffffffffffffffff16815260200190815260200160002060010160006101000a81548160ff021916908315150217905550816000803373ffffffffffffffffffffffffffffffffffffffff1673ffffffffffffffffffffffffffffffffffffffff1681526020019081526020016000206002018190555060007f00000000000000000000000000000000000000000000000000000000000000007f0000000000000000000000000000000000000000000000000000000000000000307f0000000000000000000000000000000000000000000000000000000000000000600260009054906101000a900473ffffffffffffffffffffffffffffffffffffffff1660405162000c409062001301565b62000c5095949392919062001d37565b604051809103906000f08015801562000c6d573d6000803e3d6000fd5b509050806000803373ffffffffffffffffffffffffffffffffffffffff1673ffffffffffffffffffffffffffffffffffffffff16815260200190815260200160002060010160016101000a81548173ffffffffffffffffffffffffffffffffffffffff021916908373ffffffffffffffffffffffffffffffffffffffff1602179055506001339080600181540180825580915050600190039060005260206000200160009091909190916101000a81548173ffffffffffffffffffffffffffffffffffffffff021916908373ffffffffffffffffffffffffffffffffffffffff160217905550505050565b62000d626200130f565b60008060003373ffffffffffffffffffffffffffffffffffffffff1673ffffffffffffffffffffffffffffffffffffffff168152602001908152602001600020600001541462000de9576040517f08c379a000000000000000000000000000000000000000000000000000000000815260040162000de09062001e3e565b60405180910390fd5b6000803373ffffffffffffffffffffffffffffffffffffffff1673ffffffffffffffffffffffffffffffffffffffff16815260200190815260200160002060010160009054906101000a900460ff1662000e7a576040517f08c379a000000000000000000000000000000000000000000000000000000000815260040162000e719062001dfa565b60405180910390fd5b6000803373ffffffffffffffffffffffffffffffffffffffff1673ffffffffffffffffffffffffffffffffffffffff168152602001908152602001600020604051806080016040529081600082015481526020016001820160009054906101000a900460ff161515151581526020016001820160019054906101000a900473ffffffffffffffffffffffffffffffffffffffff1673ffffffffffffffffffffffffffffffffffffffff1673ffffffffffffffffffffffffffffffffffffffff168152602001600282015481525050905090565b8073ffffffffffffffffffffffffffffffffffffffff16600073ffffffffffffffffffffffffffffffffffffffff16141562000fc0576040517f08c379a000000000000000000000000000000000000000000000000000000000815260040162000fb79062001e82565b60405180910390fd5b3373ffffffffffffffffffffffffffffffffffffffff16600360009054906101000a900473ffffffffffffffffffffffffffffffffffffffff1673ffffffffffffffffffffffffffffffffffffffff161462001053576040517f08c379a00000000000000000000000000000000000000000000000000000000081526004016200104a9062001d94565b60405180910390fd5b80600360006101000a81548173ffffffffffffffffffffffffffffffffffffffff021916908373ffffffffffffffffffffffffffffffffffffffff16021790555050565b620010a16200130f565b600073ffffffffffffffffffffffffffffffffffffffff168273ffffffffffffffffffffffffffffffffffffffff16141562001114576040517f08c379a00000000000000000000000000000000000000000000000000000000081526004016200110b9062001dd8565b60405180910390fd5b60008060008473ffffffffffffffffffffffffffffffffffffffff1673ffffffffffffffffffffffffffffffffffffffff16815260200190815260200160002060000154146200119b576040517f08c379a0000000000000000000000000000000000000000000000000000000008152600401620011929062001e3e565b60405180910390fd5b6000808373ffffffffffffffffffffffffffffffffffffffff1673ffffffffffffffffffffffffffffffffffffffff16815260200190815260200160002060010160009054906101000a900460ff166200122c576040517f08c379a0000000000000000000000000000000000000000000000000000000008152600401620012239062001db6565b60405180910390fd5b6000808373ffffffffffffffffffffffffffffffffffffffff1673ffffffffffffffffffffffffffffffffffffffff168152602001908152602001600020604051806080016040529081600082015481526020016001820160009054906101000a900460ff161515151581526020016001820160019054906101000a900473ffffffffffffffffffffffffffffffffffffffff1673ffffffffffffffffffffffffffffffffffffffff1673ffffffffffffffffffffffffffffffffffffffff1681526020016002820154815250509050919050565b613b1e80620021ba83390190565b604051806080016040528060008152602001600015158152602001600073ffffffffffffffffffffffffffffffffffffffff168152602001600081525090565b600081359050620013608162002151565b92915050565b600081519050620013778162002151565b92915050565b600082601f8301126200138f57600080fd5b8151620013a6620013a08262001f33565b62001f05565b9150818183526020840193506020810190508360005b83811015620013f05781518601620013d588826200146d565b845260208401935060208301925050600181019050620013bc565b5050505092915050565b6000815190506200140b816200216b565b92915050565b600082601f8301126200142357600080fd5b81516200143a620014348262001f5c565b62001f05565b915080825260208301602083018583830111156200145757600080fd5b620014648382846200211b565b50505092915050565b6000604082840312156200148057600080fd5b6200148c604062001f05565b9050600082015167ffffffffffffffff811115620014a957600080fd5b620014b78482850162001411565b6000830152506020620014cd8482850162001366565b60208301525092915050565b600081359050620014ea8162002185565b92915050565b600081519050620015018162002185565b92915050565b60008151905062001518816200219f565b92915050565b6000602082840312156200153157600080fd5b600062001541848285016200134f565b91505092915050565b6000602082840312156200155d57600080fd5b600082015167ffffffffffffffff8111156200157857600080fd5b62001586848285016200137d565b91505092915050565b600060208284031215620015a257600080fd5b6000620015b284828501620014d9565b91505092915050565b60008060008060008060c08789031215620015d557600080fd5b6000620015e589828a01620014f0565b9650506020620015f889828a01620014f0565b95505060406200160b89828a01620014f0565b94505060606200161e89828a01620014f0565b93505060806200163189828a01620014f0565b92505060a06200164489828a01620014f0565b9150509295509295509295565b60008060008060008060008060006101208a8c0312156200167157600080fd5b6000620016818c828d01620014f0565b9950506020620016948c828d01620014f0565b9850506040620016a78c828d01620014f0565b9750506060620016ba8c828d01620014f0565b9650506080620016cd8c828d01620014f0565b95505060a0620016e08c828d01620014f0565b94505060c0620016f38c828d01620014f0565b93505060e0620017068c828d0162001507565b9250506101006200171a8c828d01620013fa565b9150509295985092959850929598565b60006200173883836200176f565b60208301905092915050565b600062001752838362001c43565b60208301905092915050565b620017698162002067565b82525050565b6200177a816200200c565b82525050565b6200178b816200200c565b82525050565b60006200179e8262001fa9565b620017aa818562001fd9565b9350620017b78362001f89565b8060005b83811015620017ee578151620017d288826200172a565b9750620017df8362001fbf565b925050600181019050620017bb565b5085935050505092915050565b6000620018088262001fb4565b62001814818562001fea565b9350620018218362001f99565b8060005b83811015620018585781516200183c888262001744565b9750620018498362001fcc565b92505060018101905062001825565b5085935050505092915050565b620018708162002020565b82525050565b620018818162002020565b82525050565b62001892816200207b565b82525050565b620018a381620020a3565b82525050565b620018b481620020cb565b82525050565b6000620018c960248362001ffb565b91507f6f6e6c792061646d696e20616c6c6f77656420746f207472616e73666572206160008301527f646d696e000000000000000000000000000000000000000000000000000000006020830152604082019050919050565b60006200193160218362001ffb565b91507f75736572206973206e6f742061637469766520696e206f7572207265636f726460008301527f73000000000000000000000000000000000000000000000000000000000000006020830152604082019050919050565b60006200199960138362001ffb565b91507f61646472657373206e6f742070726573656e74000000000000000000000000006000830152602082019050919050565b6000620019db60218362001ffb565b91507f796f7520617265206e6f742061637469766520696e206f7572207265636f726460008301527f73000000000000000000000000000000000000000000000000000000000000006020830152604082019050919050565b600062001a43601d8362001ffb565b91507f7468726573686f6c6420746f6f20686967682c2061626f766520312e310000006000830152602082019050919050565b600062001a8560258362001ffb565b91507f796f7520617265206e6f74207265676973746572656420696e206f757220726560008301527f636f7264730000000000000000000000000000000000000000000000000000006020830152604082019050919050565b600062001aed60118362001ffb565b91507f7468726573686f6c642062656c6f7720310000000000000000000000000000006000830152602082019050919050565b600062001b2f60128362001ffb565b91507f6e6565642076616c6964206164647265737300000000000000000000000000006000830152602082019050919050565b600062001b7160158362001ffb565b91507f6f6e6c792061646d696e2063616e2075706461746500000000000000000000006000830152602082019050919050565b600062001bb3601f8362001ffb565b91507f757365722068617320616c7265616479206265656e20616374697661746564006000830152602082019050919050565b60808201600082015162001bfe600085018262001c43565b50602082015162001c13602085018262001865565b50604082015162001c2860408501826200176f565b50606082015162001c3d606085018262001c43565b50505050565b62001c4e816200204c565b82525050565b600060208201905062001c6b600083018462001780565b92915050565b600060208201905062001c8860008301846200175e565b92915050565b600060408201905062001ca5600083018562001780565b62001cb4602083018462001780565b9392505050565b6000602082019050818103600083015262001cd7818462001791565b905092915050565b6000604082019050818103600083015262001cfb818562001791565b9050818103602083015262001d118184620017fb565b90509392505050565b600060208201905062001d31600083018462001876565b92915050565b600060a08201905062001d4e600083018862001887565b62001d5d602083018762001898565b62001d6c6040830186620018a9565b62001d7b606083018562001780565b62001d8a608083018462001780565b9695505050505050565b6000602082019050818103600083015262001daf81620018ba565b9050919050565b6000602082019050818103600083015262001dd18162001922565b9050919050565b6000602082019050818103600083015262001df3816200198a565b9050919050565b6000602082019050818103600083015262001e1581620019cc565b9050919050565b6000602082019050818103600083015262001e378162001a34565b9050919050565b6000602082019050818103600083015262001e598162001a76565b9050919050565b6000602082019050818103600083015262001e7b8162001ade565b9050919050565b6000602082019050818103600083015262001e9d8162001b20565b9050919050565b6000602082019050818103600083015262001ebf8162001b62565b9050919050565b6000602082019050818103600083015262001ee18162001ba4565b9050919050565b600060808201905062001eff600083018462001be6565b92915050565b6000604051905081810181811067ffffffffffffffff8211171562001f2957600080fd5b8060405250919050565b600067ffffffffffffffff82111562001f4b57600080fd5b602082029050602081019050919050565b600067ffffffffffffffff82111562001f7457600080fd5b601f19601f8301169050602081019050919050565b6000819050602082019050919050565b6000819050602082019050919050565b600081519050919050565b600081519050919050565b6000602082019050919050565b6000602082019050919050565b600082825260208201905092915050565b600082825260208201905092915050565b600082825260208201905092915050565b600062002019826200202c565b9050919050565b60008115159050919050565b600073ffffffffffffffffffffffffffffffffffffffff82169050919050565b6000819050919050565b600064ffffffffff82169050919050565b60006200207482620020f3565b9050919050565b600062002088826200208f565b9050919050565b60006200209c826200202c565b9050919050565b6000620020b082620020b7565b9050919050565b6000620020c4826200202c565b9050919050565b6000620020d882620020df565b9050919050565b6000620020ec826200202c565b9050919050565b6000620021008262002107565b9050919050565b600062002114826200202c565b9050919050565b60005b838110156200213b5780820151818401526020810190506200211e565b838111156200214b576000848401525b50505050565b6200215c816200200c565b81146200216857600080fd5b50565b620021768162002020565b81146200218257600080fd5b50565b62002190816200204c565b81146200219c57600080fd5b50565b620021aa8162002056565b8114620021b657600080fd5b5056fe6101406040523480156200001257600080fd5b5060405162003b1e38038062003b1e83398181016040528101906200003891906200041a565b848483828073ffffffffffffffffffffffffffffffffffffffff1660808173ffffffffffffffffffffffffffffffffffffffff1660601b815250508073ffffffffffffffffffffffffffffffffffffffff16630261bf8b6040518163ffffffff1660e01b815260040160206040518083038186803b158015620000ba57600080fd5b505afa158015620000cf573d6000803e3d6000fd5b505050506040513d601f19601f82011682018060405250810190620000f59190620003ee565b73ffffffffffffffffffffffffffffffffffffffff1660a08173ffffffffffffffffffffffffffffffffffffffff1660601b815250505060006200013e6200038a60201b60201c565b9050806000806101000a81548173ffffffffffffffffffffffffffffffffffffffff021916908373ffffffffffffffffffffffffffffffffffffffff1602179055508073ffffffffffffffffffffffffffffffffffffffff16600073ffffffffffffffffffffffffffffffffffffffff167f8be0079c531659141344cd1fd0a4f28419497f9722a3daafe3b4186f6b6457e060405160405180910390a3508273ffffffffffffffffffffffffffffffffffffffff1663fca513a86040518163ffffffff1660e01b815260040160206040518083038186803b1580156200022357600080fd5b505afa15801562000238573d6000803e3d6000fd5b505050506040513d601f19601f820116820180604052508101906200025e9190620003ee565b73ffffffffffffffffffffffffffffffffffffffff1660e08173ffffffffffffffffffffffffffffffffffffffff1660601b815250508173ffffffffffffffffffffffffffffffffffffffff166101008173ffffffffffffffffffffffffffffffffffffffff1660601b815250508073ffffffffffffffffffffffffffffffffffffffff1660c08173ffffffffffffffffffffffffffffffffffffffff1660601b8152505050505082600160006101000a81548173ffffffffffffffffffffffffffffffffffffffff021916908373ffffffffffffffffffffffffffffffffffffffff1602179055508073ffffffffffffffffffffffffffffffffffffffff166101208173ffffffffffffffffffffffffffffffffffffffff1660601b81525050505050505062000574565b600033905090565b600081519050620003a3816200050c565b92915050565b600081519050620003ba8162000526565b92915050565b600081519050620003d18162000540565b92915050565b600081519050620003e8816200055a565b92915050565b6000602082840312156200040157600080fd5b6000620004118482850162000392565b91505092915050565b600080600080600060a086880312156200043357600080fd5b60006200044388828901620003a9565b95505060206200045688828901620003c0565b94505060406200046988828901620003d7565b93505060606200047c8882890162000392565b92505060806200048f8882890162000392565b9150509295509295909350565b6000620004a982620004ec565b9050919050565b6000620004bd826200049c565b9050919050565b6000620004d1826200049c565b9050919050565b6000620004e5826200049c565b9050919050565b600073ffffffffffffffffffffffffffffffffffffffff82169050919050565b62000517816200049c565b81146200052357600080fd5b50565b6200053181620004b0565b81146200053d57600080fd5b50565b6200054b81620004c4565b81146200055757600080fd5b50565b6200056581620004d8565b81146200057157600080fd5b50565b60805160601c60a05160601c60c05160601c60e05160601c6101005160601c6101205160601c6134fe6200062060003980610a78525080610dbd528061145c52806115af5280612016528061216752508061051252806123505250806104bf52806112b7528061130e52806113ac5280611e715280611ec85280611f665250806106b45280610791528061083552806109ad5280610c605280610d015250806104e352506134fe6000f3fe608060405234801561001057600080fd5b50600436106100ff5760003560e01c8063920f5c8411610097578063baf7fa9911610066578063baf7fa9914610266578063cdf58cd61461029a578063d8264920146102ce578063f2fde38b146102ec576100ff565b8063920f5c84146101de5780639d1211bf1461020e578063b485b7ea1461022c578063b4dcfc7714610248576100ff565b806332e4b286116100d357806332e4b2861461017a57806338013f0214610198578063715018a6146101b65780638da5cb5b146101c0576100ff565b8062ae3bf814610104578063040141e5146101205780630542975c1461013e578063074b2e431461015c575b600080fd5b61011e6004803603810190610119919061290c565b610308565b005b6101286104bd565b6040516101359190612e71565b60405180910390f35b6101466104e1565b6040516101539190612fa0565b60405180910390f35b610164610505565b604051610171919061312e565b60405180910390f35b61018261050a565b60405161018f919061312e565b60405180910390f35b6101a0610510565b6040516101ad9190612fd6565b60405180910390f35b6101be610534565b005b6101c8610687565b6040516101d59190612e71565b60405180910390f35b6101f860048036038101906101f391906127ba565b6106b0565b6040516102059190612f85565b60405180910390f35b610216610a5e565b6040516102239190612e71565b60405180910390f35b6102466004803603810190610241919061273b565b610a76565b005b610250610cff565b60405161025d9190612fbb565b60405180910390f35b610280600480360381019061027b919061295e565b610d23565b604051610291959493929190613179565b60405180910390f35b6102b460048036038101906102af919061295e565b610d6f565b6040516102c5959493929190613179565b60405180910390f35b6102d6610dbb565b6040516102e39190612ff1565b60405180910390f35b61030660048036038101906103019190612712565b610ddf565b005b610310610fa1565b73ffffffffffffffffffffffffffffffffffffffff1660008054906101000a900473ffffffffffffffffffffffffffffffffffffffff1673ffffffffffffffffffffffffffffffffffffffff161461039d576040517f08c379a00000000000000000000000000000000000000000000000000000000081526004016103949061310e565b60405180910390fd5b8073ffffffffffffffffffffffffffffffffffffffff1663a9059cbb6103c1610687565b8373ffffffffffffffffffffffffffffffffffffffff166370a08231306040518263ffffffff1660e01b81526004016103fa9190612e71565b60206040518083038186803b15801561041257600080fd5b505afa158015610426573d6000803e3d6000fd5b505050506040513d601f19601f8201168201806040525081019061044a9190612935565b6040518363ffffffff1660e01b8152600401610467929190612f17565b602060405180830381600087803b15801561048157600080fd5b505af1158015610495573d6000803e3d6000fd5b505050506040513d601f19601f820116820180604052508101906104b991906128e3565b5050565b7f000000000000000000000000000000000000000000000000000000000000000081565b7f000000000000000000000000000000000000000000000000000000000000000081565b600981565b610bb881565b7f000000000000000000000000000000000000000000000000000000000000000081565b61053c610fa1565b73ffffffffffffffffffffffffffffffffffffffff1660008054906101000a900473ffffffffffffffffffffffffffffffffffffffff1673ffffffffffffffffffffffffffffffffffffffff16146105c9576040517f08c379a00000000000000000000000000000000000000000000000000000000081526004016105c09061310e565b60405180910390fd5b600073ffffffffffffffffffffffffffffffffffffffff1660008054906101000a900473ffffffffffffffffffffffffffffffffffffffff1673ffffffffffffffffffffffffffffffffffffffff167f8be0079c531659141344cd1fd0a4f28419497f9722a3daafe3b4186f6b6457e060405160405180910390a360008060006101000a81548173ffffffffffffffffffffffffffffffffffffffff021916908373ffffffffffffffffffffffffffffffffffffffff160217905550565b60008060009054906101000a900473ffffffffffffffffffffffffffffffffffffffff16905090565b60007f000000000000000000000000000000000000000000000000000000000000000073ffffffffffffffffffffffffffffffffffffffff163373ffffffffffffffffffffffffffffffffffffffff1614610740576040517f08c379a00000000000000000000000000000000000000000000000000000000081526004016107379061302e565b60405180910390fd5b600030905060005b8b8b9050811015610925578b8b8281811061075f57fe5b90506020020160208101906107749190612712565b73ffffffffffffffffffffffffffffffffffffffff1663095ea7b37f00000000000000000000000000000000000000000000000000000000000000008c8c858181106107bc57fe5b905060200201356040518363ffffffff1660e01b81526004016107e0929190612f17565b602060405180830381600087803b1580156107fa57600080fd5b505af115801561080e573d6000803e3d6000fd5b505050506040513d601f19601f8201168201806040525081019061083291906128e3565b507f000000000000000000000000000000000000000000000000000000000000000073ffffffffffffffffffffffffffffffffffffffff1663573ade818d8d8481811061087b57fe5b90506020020160208101906108909190612712565b8c8c8581811061089c57fe5b905060200201356001866040518563ffffffff1660e01b81526004016108c59493929190612f40565b602060405180830381600087803b1580156108df57600080fd5b505af11580156108f3573d6000803e3d6000fd5b505050506040513d601f19601f820116820180604052508101906109179190612935565b508080600101915050610748565b5060005b8b8b9050811015610a4b57600061096d89898481811061094557fe5b905060200201358c8c8581811061095857fe5b90506020020135610fa990919063ffffffff16565b90508c8c8381811061097b57fe5b90506020020160208101906109909190612712565b73ffffffffffffffffffffffffffffffffffffffff1663095ea7b37f0000000000000000000000000000000000000000000000000000000000000000836040518363ffffffff1660e01b81526004016109ea929190612f17565b602060405180830381600087803b158015610a0457600080fd5b505af1158015610a18573d6000803e3d6000fd5b505050506040513d601f19601f82011682018060405250810190610a3c91906128e3565b50508080600101915050610929565b5060019150509998505050505050505050565b7310f7fc1f91ba351f9c629c5947ad69bd03c05b9681565b7f000000000000000000000000000000000000000000000000000000000000000073ffffffffffffffffffffffffffffffffffffffff163373ffffffffffffffffffffffffffffffffffffffff1614610b04576040517f08c379a0000000000000000000000000000000000000000000000000000000008152600401610afb906130ae565b60405180910390fd5b610b0c610687565b73ffffffffffffffffffffffffffffffffffffffff168373ffffffffffffffffffffffffffffffffffffffff1614610b79576040517f08c379a0000000000000000000000000000000000000000000000000000000008152600401610b70906130ce565b60405180910390fd5b8051825114610bbd576040517f08c379a0000000000000000000000000000000000000000000000000000000008152600401610bb49061306e565b60405180910390fd5b60003090506060825167ffffffffffffffff81118015610bdc57600080fd5b50604051908082528060200260200182016040528015610c0b5781602001602082028036833780820191505090505b50905060005b8451811015610c4257600082600081518110610c2957fe5b6020026020010181815250508080600101915050610c11565b506000309050606060405180602001604052806000815250905060007f000000000000000000000000000000000000000000000000000000000000000073ffffffffffffffffffffffffffffffffffffffff1663ab9c4b5d868989888888886040518863ffffffff1660e01b8152600401610cc39796959493929190612e8c565b600060405180830381600087803b158015610cdd57600080fd5b505af1158015610cf1573d6000803e3d6000fd5b505050505050505050505050565b7f000000000000000000000000000000000000000000000000000000000000000081565b6000806000806060610d336123fe565b610d3e88888b610ffe565b9050806000015181602001518260400151836060015184608001519550955095509550955050939792965093509350565b6000806000806060610d7f6123fe565b610d8a88888b611861565b9050806000015181602001518260400151836060015184608001519550955095509550955050939792965093509350565b7f000000000000000000000000000000000000000000000000000000000000000081565b610de7610fa1565b73ffffffffffffffffffffffffffffffffffffffff1660008054906101000a900473ffffffffffffffffffffffffffffffffffffffff1673ffffffffffffffffffffffffffffffffffffffff1614610e74576040517f08c379a0000000000000000000000000000000000000000000000000000000008152600401610e6b9061310e565b60405180910390fd5b600073ffffffffffffffffffffffffffffffffffffffff168173ffffffffffffffffffffffffffffffffffffffff161415610ee4576040517f08c379a0000000000000000000000000000000000000000000000000000000008152600401610edb9061304e565b60405180910390fd5b8073ffffffffffffffffffffffffffffffffffffffff1660008054906101000a900473ffffffffffffffffffffffffffffffffffffffff1673ffffffffffffffffffffffffffffffffffffffff167f8be0079c531659141344cd1fd0a4f28419497f9722a3daafe3b4186f6b6457e060405160405180910390a3806000806101000a81548173ffffffffffffffffffffffffffffffffffffffff021916908373ffffffffffffffffffffffffffffffffffffffff16021790555050565b600033905090565b600080828401905083811015610ff4576040517f08c379a0000000000000000000000000000000000000000000000000000000008152600401610feb9061308e565b60405180910390fd5b8091505092915050565b6110066123fe565b6000611042611033612710611025600987611b2590919063ffffffff16565b611b9590919063ffffffff16565b84611bdf90919063ffffffff16565b90508373ffffffffffffffffffffffffffffffffffffffff168573ffffffffffffffffffffffffffffffffffffffff16141561118a57600061108386611c29565b90506060600167ffffffffffffffff8111801561109f57600080fd5b506040519080825280602002602001820160405280156110ce5781602001602082028036833780820191505090505b50905086816000815181106110df57fe5b602002602001019073ffffffffffffffffffffffffffffffffffffffff16908173ffffffffffffffffffffffffffffffffffffffff16815250506040518060a0016040528084815260200161115787611149670de0b6b3a764000088611b2590919063ffffffff16565b611b9590919063ffffffff16565b8152602001611167898886611cb3565b8152602001611177898686611cb3565b815260200182815250935050505061185a565b6060600267ffffffffffffffff811180156111a457600080fd5b506040519080825280602002602001820160405280156111d35781602001602082028036833780820191505090505b50905085816000815181106111e457fe5b602002602001019073ffffffffffffffffffffffffffffffffffffffff16908173ffffffffffffffffffffffffffffffffffffffff1681525050848160018151811061122c57fe5b602002602001019073ffffffffffffffffffffffffffffffffffffffff16908173ffffffffffffffffffffffffffffffffffffffff16815250506060806060600367ffffffffffffffff8111801561128357600080fd5b506040519080825280602002602001820160405280156112b25781602001602082028036833780820191505090505b5090507f000000000000000000000000000000000000000000000000000000000000000073ffffffffffffffffffffffffffffffffffffffff168973ffffffffffffffffffffffffffffffffffffffff161415801561135d57507f000000000000000000000000000000000000000000000000000000000000000073ffffffffffffffffffffffffffffffffffffffff168873ffffffffffffffffffffffffffffffffffffffff1614155b1561156057888160008151811061137057fe5b602002602001019073ffffffffffffffffffffffffffffffffffffffff16908173ffffffffffffffffffffffffffffffffffffffff16815250507f0000000000000000000000000000000000000000000000000000000000000000816001815181106113d857fe5b602002602001019073ffffffffffffffffffffffffffffffffffffffff16908173ffffffffffffffffffffffffffffffffffffffff1681525050878160028151811061142057fe5b602002602001019073ffffffffffffffffffffffffffffffffffffffff16908173ffffffffffffffffffffffffffffffffffffffff16815250507f000000000000000000000000000000000000000000000000000000000000000073ffffffffffffffffffffffffffffffffffffffff1663d06ca61f86836040518363ffffffff1660e01b81526004016114b5929190613149565b60006040518083038186803b1580156114cd57600080fd5b505afa92505050801561150357506040513d6000823e3d601f19601f8201168201806040525081019061150091906128a2565b60015b61155657600367ffffffffffffffff8111801561151f57600080fd5b5060405190808252806020026020018201604052801561154e5781602001602082028036833780820191505090505b50915061155b565b809250505b6115ab565b600367ffffffffffffffff8111801561157857600080fd5b506040519080825280602002602001820160405280156115a75781602001602082028036833780820191505090505b5091505b60007f000000000000000000000000000000000000000000000000000000000000000073ffffffffffffffffffffffffffffffffffffffff1663d06ca61f87876040518363ffffffff1660e01b8152600401611608929190613149565b60006040518083038186803b15801561162057600080fd5b505afa92505050801561165657506040513d6000823e3d601f19601f8201168201806040525081019061165391906128a2565b60015b6116c057600267ffffffffffffffff8111801561167257600080fd5b506040519080825280602002602001820160405280156116a15781602001602082028036833780820191505090505b509350826002815181106116b157fe5b60200260200101519050611726565b809450846001815181106116d057fe5b6020026020010151846002815181106116e557fe5b60200260200101511161170c57846001815181106116ff57fe5b6020026020010151611722565b8360028151811061171957fe5b60200260200101515b9150505b60006117318b611c29565b9050600061173e8b611c29565b9050600061179961175b84600a0a86611b2590919063ffffffff16565b61178b84600a0a61177d670de0b6b3a76400008e611b2590919063ffffffff16565b611b2590919063ffffffff16565b611b9590919063ffffffff16565b90506040518060a001604052808581526020018281526020016117bd8f8e87611cb3565b81526020016117cd8e8786611cb3565b81526020016000861461180257886001815181106117e757fe5b602002602001015186146117fb57866117fd565b895b61184b565b600267ffffffffffffffff8111801561181a57600080fd5b506040519080825280602002602001820160405280156118495781602001602082028036833780820191505090505b505b81525099505050505050505050505b9392505050565b6118696123fe565b8273ffffffffffffffffffffffffffffffffffffffff168473ffffffffffffffffffffffffffffffffffffffff1614156119ed5760006118d96118ca6127106118bc600987611b2590919063ffffffff16565b611b9590919063ffffffff16565b84610fa990919063ffffffff16565b905060006118e686611c29565b90506060600167ffffffffffffffff8111801561190257600080fd5b506040519080825280602002602001820160405280156119315781602001602082028036833780820191505090505b509050868160008151811061194257fe5b602002602001019073ffffffffffffffffffffffffffffffffffffffff16908173ffffffffffffffffffffffffffffffffffffffff16815250506040518060a001604052808481526020016119ba856119ac670de0b6b3a76400008a611b2590919063ffffffff16565b611b9590919063ffffffff16565b81526020016119ca898686611cb3565b81526020016119da898886611cb3565b8152602001828152509350505050611b1e565b6060806119fb868686611d41565b915091506000611a63611a40612710611a32600987600081518110611a1c57fe5b6020026020010151611b2590919063ffffffff16565b611b9590919063ffffffff16565b84600081518110611a4d57fe5b6020026020010151610fa990919063ffffffff16565b90506000611a7088611c29565b90506000611a7d88611c29565b90506000611ad8611a9a83600a0a86611b2590919063ffffffff16565b611aca85600a0a611abc670de0b6b3a76400008d611b2590919063ffffffff16565b611b2590919063ffffffff16565b611b9590919063ffffffff16565b90506040518060a00160405280858152602001828152602001611afc8c8787611cb3565b8152602001611b0c8b8b86611cb3565b81526020018681525096505050505050505b9392505050565b600080831415611b385760009050611b8f565b6000828402905082848281611b4957fe5b0414611b8a576040517f08c379a0000000000000000000000000000000000000000000000000000000008152600401611b81906130ee565b60405180910390fd5b809150505b92915050565b6000611bd783836040518060400160405280601a81526020017f536166654d6174683a206469766973696f6e206279207a65726f000000000000815250612290565b905092915050565b6000611c2183836040518060400160405280601e81526020017f536166654d6174683a207375627472616374696f6e206f766572666c6f7700008152506122f1565b905092915050565b60008173ffffffffffffffffffffffffffffffffffffffff1663313ce5676040518163ffffffff1660e01b815260040160206040518083038186803b158015611c7157600080fd5b505afa158015611c85573d6000803e3d6000fd5b505050506040513d601f19601f82011682018060405250810190611ca991906129ad565b60ff169050919050565b600080611cd37310f7fc1f91ba351f9c629c5947ad69bd03c05b9661234c565b90506000611ce08661234c565b9050611d36670de0b6b3a7640000611d2884611d1a88600a0a611d0c878c611b2590919063ffffffff16565b611b9590919063ffffffff16565b611b2590919063ffffffff16565b611b9590919063ffffffff16565b925050509392505050565b6060806060600267ffffffffffffffff81118015611d5e57600080fd5b50604051908082528060200260200182016040528015611d8d5781602001602082028036833780820191505090505b5090508581600081518110611d9e57fe5b602002602001019073ffffffffffffffffffffffffffffffffffffffff16908173ffffffffffffffffffffffffffffffffffffffff16815250508481600181518110611de657fe5b602002602001019073ffffffffffffffffffffffffffffffffffffffff16908173ffffffffffffffffffffffffffffffffffffffff16815250506060806060600367ffffffffffffffff81118015611e3d57600080fd5b50604051908082528060200260200182016040528015611e6c5781602001602082028036833780820191505090505b5090507f000000000000000000000000000000000000000000000000000000000000000073ffffffffffffffffffffffffffffffffffffffff168973ffffffffffffffffffffffffffffffffffffffff1614158015611f1757507f000000000000000000000000000000000000000000000000000000000000000073ffffffffffffffffffffffffffffffffffffffff168873ffffffffffffffffffffffffffffffffffffffff1614155b1561211a578881600081518110611f2a57fe5b602002602001019073ffffffffffffffffffffffffffffffffffffffff16908173ffffffffffffffffffffffffffffffffffffffff16815250507f000000000000000000000000000000000000000000000000000000000000000081600181518110611f9257fe5b602002602001019073ffffffffffffffffffffffffffffffffffffffff16908173ffffffffffffffffffffffffffffffffffffffff16815250508781600281518110611fda57fe5b602002602001019073ffffffffffffffffffffffffffffffffffffffff16908173ffffffffffffffffffffffffffffffffffffffff16815250507f000000000000000000000000000000000000000000000000000000000000000073ffffffffffffffffffffffffffffffffffffffff16631f00ca7488836040518363ffffffff1660e01b815260040161206f929190613149565b60006040518083038186803b15801561208757600080fd5b505afa9250505080156120bd57506040513d6000823e3d601f19601f820116820180604052508101906120ba91906128a2565b60015b61211057600367ffffffffffffffff811180156120d957600080fd5b506040519080825280602002602001820160405280156121085781602001602082028036833780820191505090505b509150612115565b809250505b612165565b600367ffffffffffffffff8111801561213257600080fd5b506040519080825280602002602001820160405280156121615781602001602082028036833780820191505090505b5091505b7f000000000000000000000000000000000000000000000000000000000000000073ffffffffffffffffffffffffffffffffffffffff16631f00ca7488866040518363ffffffff1660e01b81526004016121c0929190613149565b60006040518083038186803b1580156121d857600080fd5b505afa92505050801561220e57506040513d6000823e3d601f19601f8201168201806040525081019061220b91906128a2565b60015b6122215781819550955050505050612288565b8093508360008151811061223157fe5b60200260200101518360008151811061224657fe5b6020026020010151108015612270575060008360008151811061226557fe5b602002602001015114155b61227b57838561227e565b82825b9650965050505050505b935093915050565b600080831182906122d7576040517f08c379a00000000000000000000000000000000000000000000000000000000081526004016122ce919061300c565b60405180910390fd5b5060008385816122e357fe5b049050809150509392505050565b6000838311158290612339576040517f08c379a0000000000000000000000000000000000000000000000000000000008152600401612330919061300c565b60405180910390fd5b5060008385039050809150509392505050565b60007f000000000000000000000000000000000000000000000000000000000000000073ffffffffffffffffffffffffffffffffffffffff1663b3596f07836040518263ffffffff1660e01b81526004016123a79190612e71565b60206040518083038186803b1580156123bf57600080fd5b505afa1580156123d3573d6000803e3d6000fd5b505050506040513d601f19601f820116820180604052508101906123f79190612935565b9050919050565b6040518060a0016040528060008152602001600081526020016000815260200160008152602001606081525090565b60008135905061243c81613455565b92915050565b60008083601f84011261245457600080fd5b8235905067ffffffffffffffff81111561246d57600080fd5b60208301915083602082028301111561248557600080fd5b9250929050565b600082601f83011261249d57600080fd5b81356124b06124ab82613200565b6131d3565b915081818352602084019350602081019050838560208402820111156124d557600080fd5b60005b8381101561250557816124eb888261242d565b8452602084019350602083019250506001810190506124d8565b5050505092915050565b60008083601f84011261252157600080fd5b8235905067ffffffffffffffff81111561253a57600080fd5b60208301915083602082028301111561255257600080fd5b9250929050565b600082601f83011261256a57600080fd5b813561257d61257882613228565b6131d3565b915081818352602084019350602081019050838560208402820111156125a257600080fd5b60005b838110156125d257816125b888826126d3565b8452602084019350602083019250506001810190506125a5565b5050505092915050565b600082601f8301126125ed57600080fd5b81516126006125fb82613228565b6131d3565b9150818183526020840193506020810190508385602084028201111561262557600080fd5b60005b83811015612655578161263b88826126e8565b845260208401935060208301925050600181019050612628565b5050505092915050565b60008151905061266e8161346c565b92915050565b60008083601f84011261268657600080fd5b8235905067ffffffffffffffff81111561269f57600080fd5b6020830191508360018202830111156126b757600080fd5b9250929050565b6000813590506126cd81613483565b92915050565b6000813590506126e28161349a565b92915050565b6000815190506126f78161349a565b92915050565b60008151905061270c816134b1565b92915050565b60006020828403121561272457600080fd5b60006127328482850161242d565b91505092915050565b60008060006060848603121561275057600080fd5b600061275e8682870161242d565b935050602084013567ffffffffffffffff81111561277b57600080fd5b6127878682870161248c565b925050604084013567ffffffffffffffff8111156127a457600080fd5b6127b086828701612559565b9150509250925092565b600080600080600080600080600060a08a8c0312156127d857600080fd5b60008a013567ffffffffffffffff8111156127f257600080fd5b6127fe8c828d01612442565b995099505060208a013567ffffffffffffffff81111561281d57600080fd5b6128298c828d0161250f565b975097505060408a013567ffffffffffffffff81111561284857600080fd5b6128548c828d0161250f565b955095505060606128678c828d0161242d565b93505060808a013567ffffffffffffffff81111561288457600080fd5b6128908c828d01612674565b92509250509295985092959850929598565b6000602082840312156128b457600080fd5b600082015167ffffffffffffffff8111156128ce57600080fd5b6128da848285016125dc565b91505092915050565b6000602082840312156128f557600080fd5b60006129038482850161265f565b91505092915050565b60006020828403121561291e57600080fd5b600061292c848285016126be565b91505092915050565b60006020828403121561294757600080fd5b6000612955848285016126e8565b91505092915050565b60008060006060848603121561297357600080fd5b6000612981868287016126d3565b93505060206129928682870161242d565b92505060406129a38682870161242d565b9150509250925092565b6000602082840312156129bf57600080fd5b60006129cd848285016126fd565b91505092915050565b60006129e28383612a06565b60208301905092915050565b60006129fa8383612e53565b60208301905092915050565b612a0f816132fa565b82525050565b612a1e816132fa565b82525050565b6000612a2f82613270565b612a3981856132b6565b9350612a4483613250565b8060005b83811015612a75578151612a5c88826129d6565b9750612a678361329c565b925050600181019050612a48565b5085935050505092915050565b6000612a8d8261327b565b612a9781856132c7565b9350612aa283613260565b8060005b83811015612ad3578151612aba88826129ee565b9750612ac5836132a9565b925050600181019050612aa6565b5085935050505092915050565b612ae98161330c565b82525050565b6000612afa82613286565b612b0481856132d8565b9350612b14818560208601613411565b612b1d81613444565b840191505092915050565b612b318161336f565b82525050565b612b4081613393565b82525050565b612b4f816133b7565b82525050565b612b5e816133db565b82525050565b612b6d816133ff565b82525050565b6000612b7e82613291565b612b8881856132e9565b9350612b98818560208601613411565b612ba181613444565b840191505092915050565b6000612bb9601b836132e9565b91507f43414c4c45525f4d5553545f42455f4c454e44494e475f504f4f4c00000000006000830152602082019050919050565b6000612bf96026836132e9565b91507f4f776e61626c653a206e6577206f776e657220697320746865207a65726f206160008301527f64647265737300000000000000000000000000000000000000000000000000006020830152604082019050919050565b6000612c5f6027836132e9565b91507f61737365747320616e6420616d6f756e74732068617665206e6f20657175616c60008301527f206c656e677468000000000000000000000000000000000000000000000000006020830152604082019050919050565b6000612cc5601b836132e9565b91507f536166654d6174683a206164646974696f6e206f766572666c6f7700000000006000830152602082019050919050565b6000612d05601d836132e9565b91507f43414c4c45525f4d5553545f42455f4c4f4e45534f4d455f534841524b0000006000830152602082019050919050565b6000612d45602d836132e9565b91507f5f73756273637269626572206e6565647320746f206f776e207468652070617960008301527f6261636b20636f6e7472616374000000000000000000000000000000000000006020830152604082019050919050565b6000612dab6021836132e9565b91507f536166654d6174683a206d756c7469706c69636174696f6e206f766572666c6f60008301527f77000000000000000000000000000000000000000000000000000000000000006020830152604082019050919050565b6000612e116020836132e9565b91507f4f776e61626c653a2063616c6c6572206973206e6f7420746865206f776e65726000830152602082019050919050565b612e4d8161332a565b82525050565b612e5c81613358565b82525050565b612e6b81613358565b82525050565b6000602082019050612e866000830184612a15565b92915050565b600060e082019050612ea1600083018a612a15565b8181036020830152612eb38189612a24565b90508181036040830152612ec78188612a82565b90508181036060830152612edb8187612a82565b9050612eea6080830186612a15565b81810360a0830152612efc8185612aef565b9050612f0b60c0830184612e44565b98975050505050505050565b6000604082019050612f2c6000830185612a15565b612f396020830184612e62565b9392505050565b6000608082019050612f556000830187612a15565b612f626020830186612e62565b612f6f6040830185612b64565b612f7c6060830184612a15565b95945050505050565b6000602082019050612f9a6000830184612ae0565b92915050565b6000602082019050612fb56000830184612b28565b92915050565b6000602082019050612fd06000830184612b37565b92915050565b6000602082019050612feb6000830184612b46565b92915050565b60006020820190506130066000830184612b55565b92915050565b600060208201905081810360008301526130268184612b73565b905092915050565b6000602082019050818103600083015261304781612bac565b9050919050565b6000602082019050818103600083015261306781612bec565b9050919050565b6000602082019050818103600083015261308781612c52565b9050919050565b600060208201905081810360008301526130a781612cb8565b9050919050565b600060208201905081810360008301526130c781612cf8565b9050919050565b600060208201905081810360008301526130e781612d38565b9050919050565b6000602082019050818103600083015261310781612d9e565b9050919050565b6000602082019050818103600083015261312781612e04565b9050919050565b60006020820190506131436000830184612e62565b92915050565b600060408201905061315e6000830185612e62565b81810360208301526131708184612a24565b90509392505050565b600060a08201905061318e6000830188612e62565b61319b6020830187612e62565b6131a86040830186612e62565b6131b56060830185612e62565b81810360808301526131c78184612a24565b90509695505050505050565b6000604051905081810181811067ffffffffffffffff821117156131f657600080fd5b8060405250919050565b600067ffffffffffffffff82111561321757600080fd5b602082029050602081019050919050565b600067ffffffffffffffff82111561323f57600080fd5b602082029050602081019050919050565b6000819050602082019050919050565b6000819050602082019050919050565b600081519050919050565b600081519050919050565b600081519050919050565b600081519050919050565b6000602082019050919050565b6000602082019050919050565b600082825260208201905092915050565b600082825260208201905092915050565b600082825260208201905092915050565b600082825260208201905092915050565b600061330582613338565b9050919050565b60008115159050919050565b6000613323826132fa565b9050919050565b600061ffff82169050919050565b600073ffffffffffffffffffffffffffffffffffffffff82169050919050565b6000819050919050565b600060ff82169050919050565b600061337a82613381565b9050919050565b600061338c82613338565b9050919050565b600061339e826133a5565b9050919050565b60006133b082613338565b9050919050565b60006133c2826133c9565b9050919050565b60006133d482613338565b9050919050565b60006133e6826133ed565b9050919050565b60006133f882613338565b9050919050565b600061340a82613358565b9050919050565b60005b8381101561342f578082015181840152602081019050613414565b8381111561343e576000848401525b50505050565b6000601f19601f8301169050919050565b61345e816132fa565b811461346957600080fd5b50565b6134758161330c565b811461348057600080fd5b50565b61348c81613318565b811461349757600080fd5b50565b6134a381613358565b81146134ae57600080fd5b50565b6134ba81613362565b81146134c557600080fd5b5056fea26469706673582212202aaddeb7371181ac25a7ae1eb0c63b58c61fe8a9612868634e2d0f9e92f8a9cb64736f6c634300060c0033a2646970667358221220db6e81706a2a7ea283ef09c74949708be1fc121f2222f9b6f9f2f4026e6bf68864736f6c634300060c0033","linkReferences":{},"deployedLinkReferences":{},"network":"kovan","address":"0x67D3a4028Dee79321Ad21192D21ed1A364C35887"}